:020000040800F2
:1000000000000120655D0008855C0008875C000831
:10001000895C00088B5C00088D5C00080000000013
:10002000000000000000000000000000A12E0008F9
:100030008F5C000800000000312F0008915C000870
:10004000A95D0008A95D0008A95D0008A95D000878
:10005000A95D0008A95D0008A95D0008A95D000868
:10006000A95D0008A95D0008A95D0008A95D000858
:10007000A95D0008A95D0008A95C0008A95D000849
:10008000A95D0008A95D0008B55C0008A95D00082D
:10009000A95D0008A95D0008A95D0008A95D000828
:1000A000A95D0008A95D0008A95D0008A95D000818
:1000B000A95D0008A95D0008A95D0008A95D000808
:1000C000A95D0008A95D0008A95D0008C15C0008E1
:1000D000A95D0008CD5C0008A95D0008A95D0008C5
:1000E000A95D0008A95D0008A95D000800000000E6
:1000F0000000000000000000000000000000000000
:100100000000000000000000A95D0008A95D0008D3
:10011000A95D0008A95D0008A95D0008A95D0008A7
:10012000A95D0008A95D0008A95D0008A95D000897
:10013000A95D00080000000000000000A95D0008A3
:10014000A95D0008A95D0008A95D0008A95D000877
:10015000000000000000000000000000000000009F
:10016000000000000000000000000000000000008F
:10017000000000000000000000000000000000007F
:10018000000000000000000000000000000000006F
:10019000000000000000000000000000000000005F
:1001A000000000000000000000000000000000004F
:1001B000000000000000000000000000000000003F
:1001C000000000000000000000000000000000002F
:1001D000000000000000000000000000000000001F
:0401E0005FF8E0F1F3
:1001F00010B5054C237833B9044B13B10448AFF361
:1002000000800123237010BD2002002000000000A8
:10021000FC6F000808B5034B1BB103490348AFF35B
:10022000008008BD0000000024020020FC6F0008D0
:10023000034613F8012B002AFBD1181A0138704726
:1002400080F0004002E000BF81F0004142001FBF8B
:100250005FEA410392EA030F7FEA226C7FEA236C94
:100260006AD04FEA1262D2EB1363C1BFD218414089
:1002700048404140B8BF5B42192B88BF704710F01F
:10028000004F40F4000020F07F4018BF404211F0C2
:10029000004F41F4000121F07F4118BF494292EA2A
:1002A000030F3FD0A2F1010241FA03FC10EB0C0056
:1002B000C3F1200301FA03F100F0004302D54942E3
:1002C00060EB4000B0F5000F13D3B0F1807F06D390
:1002D00040084FEA310102F10102FE2A51D2B1F188
:1002E000004F40EBC25008BF20F0010040EA03007D
:1002F0007047490040EB000010F4000FA2F101022A
:10030000EDD1B0FA80FCACF1080CB2EB0C0200FAB3
:100310000CF0AABF00EBC25052421843BCBFD04001
:100320001843704792F0000F81F4000106BF80F47B
:1003300000000132013BB5E74FEA41037FEA226C3E
:1003400018BF7FEA236C21D092EA030F04D092F009
:10035000000F08BF0846704790EA010F1CBF00203D
:10036000704712F07F4F04D1400028BF40F000409A
:10037000704712F100723CBF00F50000704700F0BA
:10038000004343F0FE4040F4000070477FEA2262E1
:1003900016BF08467FEA23630146420206BF5FEAB2
:1003A000412390EA010F40F4800070474FF00003B2
:1003B00004E000BF10F0004348BF40425FEA000C79
:1003C00008BF704743F0964301464FF000001CE021
:1003D00050EA010208BF70474FF000030AE000BF77
:1003E00050EA010208BF704711F0004302D54042B5
:1003F00061EB41015FEA010C02BF84460146002027
:1004000043F0B64308BFA3F18053A3F50003BCFA41
:100410008CF2083AA3EBC25310DB01FA02FC6344EE
:1004200000FA02FCC2F12002BCF1004F20FA02F2F5
:1004300043EB020008BF20F00100704702F12002E8
:1004400001FA02FCC2F1200250EA4C0021FA02F249
:1004500043EB020008BF20EADC7070474FF0FF0C4E
:100460001CEAD0521EBF1CEAD15392EA0C0F93EA49
:100470000C0F6FD01A4480EA010C400218BF5FEAEB
:1004800041211ED04FF0006343EA501043EA51115E
:10049000A0FB01310CF00040B1F5000F3EBF490058
:1004A00041EAD3715B0040EA010062F17F02FD2A5C
:1004B0001DD8B3F1004F40EBC25008BF20F001003F
:1004C000704790F0000F0CF0004C08BF49024CEA56
:1004D000502040EA51207F3AC2BFD2F1FF0340EAE8
:1004E000C250704740F400004FF00003013A5DDC59
:1004F00012F1190FDCBF00F000407047C2F100029A
:10050000410021FA02F1C2F1200200FA02FC5FEA86
:10051000310040F1000053EA4C0308BF20EADC70D0
:10052000704792F0000F00F0004C02BF400010F442
:10053000000F013AF9D040EA0C0093F0000F01F0EF
:10054000004C02BF490011F4000F013BF9D041EA11
:100550000C018FE70CEAD15392EA0C0F18BF93EA13
:100560000C0F0AD030F0004C18BF31F0004CD8D13D
:1005700080EA010000F00040704790F0000F17BFC4
:1005800090F0004F084691F0000F91F0004F14D00A
:1005900092EA0C0F01D142020FD193EA0C0F03D162
:1005A0004B0218BF084608D180EA010000F0004065
:1005B00040F0FE4040F40000704740F0FE4040F440
:1005C000400070474FF0FF0C1CEAD0521EBF1CEADF
:1005D000D15392EA0C0F93EA0C0F69D0A2EB0302FD
:1005E00080EA010C49024FEA402037D04FF0805397
:1005F00043EA111143EA10130CF000408B4238BF5C
:100600005B0042F17D024FF4000C8B4224BF5B1A69
:1006100040EA0C00B3EB510F24BFA3EB510340EAB7
:100620005C00B3EB910F24BFA3EB910340EA9C0065
:10063000B3EBD10F24BFA3EBD10340EADC001B01D5
:1006400018BF5FEA1C1CE0D1FD2A3FF650AF8B4279
:1006500040EBC25008BF20F0010070470CF0004C86
:100660004CEA50207F32C2BFD2F1FF0340EAC250B1
:10067000704740F400004FF00003013A37E792F072
:10068000000F00F0004C02BF400010F4000F013AD0
:10069000F9D040EA0C0093F0000F01F0004C02BFCB
:1006A000490011F4000F013BF9D041EA0C0195E734
:1006B0000CEAD15392EA0C0F08D142027FF47DAFCD
:1006C00093EA0C0F7FF470AF084676E793EA0C0FBD
:1006D00004D14B023FF44CAF08466EE730F0004CBB
:1006E00018BF31F0004CCAD130F000427FF45CAF4B
:1006F00031F000437FF43CAF5FE700BF4FF0FF3CB9
:1007000006E000BF4FF0010C02E000BF4FF0010C0B
:100710004DF804CD4FEA40024FEA41037FEA226CD4
:1007200018BF7FEA236C11D001B052EA530C18BFF6
:1007300090EA010F58BFB2EB030088BFC81738BF5B
:100740006FEAE17018BF40F0010070477FEA226C49
:1007500002D15FEA402C05D17FEA236CE4D15FEA45
:10076000412CE1D05DF8040B704700BF8446084679
:100770006146FFE70FB5FFF7C9FF002848BF10F13A
:10078000000F0FBD4DF808EDFFF7F4FF0CBF01207F
:1007900000205DF808FB00BF4DF808EDFFF7EAFF09
:1007A00034BF012000205DF808FB00BF4DF808EDC4
:1007B000FFF7E0FF94BF012000205DF808FB00BFB9
:1007C0004DF808EDFFF7D2FF94BF012000205DF83F
:1007D00008FB00BF4DF808EDFFF7C8FF34BF01204C
:1007E00000205DF808FB00BF4FEA4002B2F1FE4F67
:1007F0000FD34FF09E03B3EB12620DD94FEA0023E3
:1008000043F0004310F0004F23FA02F018BF4042BB
:1008100070474FF00000704712F1610F01D14202A2
:1008200005D110F0004008BF6FF0004070474FF056
:100830000000704753B94AB9002908BF00281CBFFF
:100840004FF0FF314FF0FF3000F07AB9ADF1080CF6
:100850006DE904CE00F006F8DDF804E0DDE90223DE
:1008600004B070472DE9F0478C460E460446089DBB
:10087000002B50D18A4217466CD9B2FA82FEBEF1E3
:10088000000F0BD0CEF1200C01FA0EF620FA0CFC72
:1008900002FA0EF74CEA060C00FA0EF43A0CBCFB16
:1008A000F2F9BBB202FB19CC09FB03FA4FEA144878
:1008B00048EA0C46B2450AD9F61909F1FF3180F031
:1008C0002581B24540F22281A9F102093E44A6EBFE
:1008D0000A06B6FBF2F002FB106600FB03F3A4B2BB
:1008E00044EA0644A34209D9E41900F1FF3280F03A
:1008F0000B81A34240F2088102383C440021E41AF3
:1009000040EA0940002D62D0002324FA0EF42C6046
:100910006B60BDE8F0878B4207D9002D55D00021D0
:1009200085E841000846BDE8F087B3FA83F1002965
:1009300040F08F80B34202D3824200F2FC80841ADE
:1009400066EB03060120B446002D40D085E8101068
:10095000BDE8F08712B90127B7FBF2F7B7FA87FEB7
:10096000BEF1000F35D10121F61B4FEA174C1FFADB
:1009700087F8B6FBFCF20CFB126608FB02F0230CB6
:1009800043EA0646B04207D9F61902F1FF3302D214
:10099000B04200F2D2801A46361AB6FBFCF00CFBCD
:1009A000106608FB00F8A3B243EA0644A04507D945
:1009B000E41900F1FF3302D2A04500F2B9801846D5
:1009C000A4EB080440EA02409CE729462846BDE81B
:1009D000F08707FA0EF7CEF1200326FA03F24FEA6A
:1009E000174CB2FBFCF11FFA87F80CFB112206FA38
:1009F0000EF620FA03F301FB08F933431E0C46EA16
:100A00000246B14500FA0EF409D9F61901F1FF3298
:100A100080F08C80B14540F2898002393E44A6EBDB
:100A20000906B6FBFCF00CFB106200FB08F99EB255
:100A300046EA0246B14507D9F61900F1FF3371D2F3
:100A4000B1456FD902383E44A6EB090640EA0141A0
:100A50008FE7C1F1200722FA07F88B4048EA030329
:100A600026FA07F44FEA134EB4FBFEF91FFA83FC93
:100A70000EFB19448E4020FA07F809FB0CFA48EAED
:100A800006084FEA184646EA0444A24502FA01F273
:100A900000FA01F608D9E41809F1FF3044D2A24562
:100AA00042D9A9F102091C44A4EB0A04B4FBFEF0EC
:100AB0000EFB104400FB0CFC1FFA88F848EA0444C3
:100AC000A44507D9E41800F1FF3E29D2A44527D94F
:100AD00002381C4440EA0940A0FB0289A4EB0C0C3C
:100AE000CC45C246CE4615D312D055B1B6EB0A035B
:100AF0006CEB0E0606FA07F7CB401F43CE402F6083
:100B00006E600021BDE8F0871046F7E68946DEE614
:100B10004645EAD2B8EB020A69EB030E0138E4E776
:100B20007046D7E718468FE78146BDE7114676E75E
:100B300002383C4444E7084606E7023A3E442BE7C5
:100B4000704700BF38B50E4B054618784FF47A73DE
:100B5000B3FBF0F30B4A1068B0FBF3F000F0DAFBE4
:100B6000044658B90F2D09D8024629464FF0FF30E8
:100B700000F090FB044B20461D6038BD012038BDBD
:100B8000000000204C00002004000020074A08B5A7
:100B90001368032043F01003136000F069FB0F207B
:100BA000FFF7D0FF04F072FF002008BD00200240D4
:100BB000034A044B11681B780B441360704700BF55
:100BC000F054002000000020014B1868704700BF5F
:100BD000F054002038B50446FFF7F6FF0546631CC5
:100BE0001EBF044B1B78E418FFF7EEFF401B844246
:100BF000FAD838BD00000020044B1B680360044B8A
:100C00001B684360034B1B6883607047E8F7FF1F56
:100C1000ECF7FF1FF0F7FF1F70477047036810B530
:100C20005A680446900627D51A68910724D5A26A07
:100C3000D2065EBFA26A42F40072A2629A6802F40F
:100C40006022B2F5602F10D1E26872B95A6822F0C2
:100C500020025A60A36A23F48073A362A36ADB04B0
:100C60005EBFA36A43F00103A3622046FFF7D4FFEF
:100C70006FF0120223681A6023685A68100630D594
:100C80001A6851072DD5A26AD2065EBFA26A42F445
:100C90000052A2629A6802F4E042B2F5E04F0AD034
:100CA0005A68500516D49A6802F46022B2F5602F93
:100CB00010D1E26872B95A6822F080025A60A36AC1
:100CC00023F48053A362A36AD9055EBFA36A43F0ED
:100CD0000103A362204604F08BFB6FF00C02236833
:100CE0001A6023685A6852060DD51B68DB070AD5BF
:100CF000A36A204643F48033A362FFF78EFF6FF0B0
:100D0000010223681A6010BD002373B5019390F8A7
:100D10002430012B74D001234D6880F82430062D37
:100D200002684FEA85030C6825D82B441F25566BB3
:100D3000053B9D4026EA050504FA03F32B43536364
:100D4000092C4FEA44038D682FD907262344D16824
:100D50001E3B9E4021EA060105FA03F30B43D360D4
:100D6000A4F11003012B2BD90023002280F82420AA
:100D7000184602B070BD0C2D0BD82B441F25166BE6
:100D8000233B9D4026EA050504FA03F32B43136336
:100D9000D6E72B441F25D66A413B9D4026EA050530
:100DA00004FA03F32B43D362CAE7072611692344ED
:100DB0009E4021EA060105FA03F30B431361CFE7D6
:100DC000104B9A4216D193681B02CDD49368102C15
:100DD00043F400039360C7D10B4B0C4A1B68B3FB71
:100DE000F2F20A2353430193019B002BBCD0019BD9
:100DF000013BF8E7836A43F0200383620123B4E7F1
:100E00000223B5E7002401404C00002040420F00BF
:100E1000002373B50193036804469A68D20702D58C
:100E2000002002B070BD9A6842F001029A60124B35
:100E3000124A1B68B3FBF2F30193019BC3B9FFF79E
:100E4000C3FE064623689D6815F00105E8D1FFF74B
:100E5000BBFE801B0228F5D9A36A84F8245043F016
:100E60001003A362E36A012043F00103E362D8E7C1
:100E7000019B013BE0E700BF4C00002040420F0017
:100E800038B5036804469A68D20701D4002038BDFB
:100E90009A6822F001029A60FFF796FE05462368E1
:100EA0009B68DB07F2D5FFF78FFE401B0228F6D9BF
:100EB000A36A012043F01003A362E36A43F0010335
:100EC000E36238BD70B50446002871D0836A23B947
:100ED000C36280F8243004F001FE2046FFF7D0FF03
:100EE000A36A13F0100FA36A64D1002862D1E169EC
:100EF00023F48853626823F0020343F002030A4399
:100F0000A168A362E368B1F5807F42EA430238D06A
:100F1000012914BF06464FF480766569012D07D17B
:100F2000002B30D1A369013B46EA433545F4006606
:100F30002368B1F5807F5D6825F4694545EA0605BB
:100F40005D609E681D4D05EA060545EA02059D6047
:100F500001D0012920D1216901390905DD6A25F473
:100F600070052943D9629968154B0B409A4215D1F7
:100F70000023E362A36A23F0030343F00103A362A7
:100F800070BD0E46C9E7A36A43F02003A362E36A7B
:100F900043F00103E362CBE70021DFE7A36A23F01C
:100FA000120343F01003A362E36A43F00103E36218
:100FB000012070BD43F01003A362F9E7FDF7E1FFE4
:100FC000FE0E1FFF90F8243010B5012B04464ED0C2
:100FD000012380F82430FFF71BFF002843D1A36AC8
:100FE000244A23F4405323F0010343F48053A362C3
:100FF0002368934205D1A2F58062526812F4702FE3
:1010000029D1A26A22F48012A262A26A12F480722A
:1010100008BFE262002284F824206FF004021A6004
:101020005A6842F080025A605A68520520D49A6881
:1010300002F4E042B2F5E04F11D10E4A934205D1DD
:10104000A2F58062526812F4702F08D19A6842F4B7
:1010500002129A6010BDA26A42F48012D4E79A6824
:1010600042F40042F5E7002384F8243010BD02204A
:1010700010BD00BF002801400329036807D00429E0
:1010800003D0022905D1186C7047986C7047586CD2
:101090007047D86B70470000F7B50246002092F801
:1010A00024300190012B00F0D8800127D2F808E00D
:1010B00082F824704E6813680D68BEF1000F7BD172
:1010C000BE4273D170469C6BA40DA40544EAC5349E
:1010D0009C639C68E40707D49C68CF6924F4E044CF
:1010E00024F001043C439C608C69012C0DD1CF6934
:1010F000B7F5E04F17BF906A5F6840F0200090623C
:1011000012BF204647F480675F604F69012F05D109
:10111000002C74D15C6844F480545C60092D4FEA63
:101120004504D1F808E070D94FF0070C2C44DF6873
:101130001E3C0CFA04FC27EA0C070EFA04F43C43AC
:10114000DC60A5F11004012C98BF9F68DFF81CE15A
:101150009CBF47F400079F60022ECF6862D0032E29
:1011600066D0012E6AD1596901EA0E0139435961ED
:10117000012C16D83A498B4269D19968090210D4DA
:101180009968102D41F4000199600AD1354B364918
:101190001B68B3FBF1F10A234B430193019B002B26
:1011A00052D1002382F8243003B0F0BD946A38464F
:1011B00044F0200494628CE70F69D3F838E0F41B04
:1011C00004EB8404BE4204F10F0410D807F1FF3C85
:1011D00005FA04F747EA0C574FF01F0C0CFA04F419
:1011E00044F440142EEA04043C439C6371E71F2737
:1011F00007FA04F444F440142EEA0404F5E7906A74
:1012000040F020009062384688E74FF0070C1F69D5
:101210002C440CFA04FC27EA0C070EFA04F43C43B5
:101220001C618EE7996901EA0E01394399619FE7D4
:10123000D96901EA0E013943D96199E7196A01EACE
:101240000E013943196293E7019B013BA5E7936ABD
:10125000012043F020039362A3E70220A4E700BF2C
:10126000002401404C00002040420F0000F0FFFF2E
:10127000074A0002D36800F4E06023F4E0631B0433
:101280001B0C43F0BF6343F400330343D360704748
:1012900000ED00E0174B30B5DC68C4F30224C4F164
:1012A0000703251D042B28BF0423062D4FF001053D
:1012B00098BF002405FA03F303F1FF3388BF033C12
:1012C0001940A14005FA04F4013C2240002842EAFA
:1012D00001024FEA0212AFBF00F16040064B00F07E
:1012E0000F00D2B2A5BFD2B200F561401A5480F807
:1012F000002330BD00ED00E014ED00E001234209C1
:1013000000F01F0003FA00F0014B43F82200704781
:1013100000E100E00138B0F1807F0AD2F021064BF5
:10132000064A586082F823100020072298601A604D
:1013300070470120704700BF10E000E000ED00E0C2
:1013400010B5002832D00168194B1424994225D8D1
:10135000184AA3F207430A44B2FBF4F29200026473
:101360008468C36343680A682343C46822F47F52D5
:101370002343046922F030022343446923438469F0
:101380002343C469234313430B600122002380F8E5
:101390002120836380F82030184610BD064B0B4493
:1013A000B3FBF4F39B000364044BD9E7012010BDA9
:1013B00007040240F8FFFDBFF8FBFDBF0004024038
:1013C000F0B590F82040012C35D0012490F8215040
:1013D00080F82040A5424FF000064FF0020428D1CB
:1013E00080F82140046886632668076C26F00106B1
:1013F0002660C66BBD407560636043680568102B4E
:10140000C36A0BBFA260A160E160E2604BB12368D8
:1014100043F00E0323602B68002043F001032B6090
:10142000F0BD236823F004032360236843F00A031C
:10143000F0E780F820600220F0BD000090F8213035
:1014400010B5022B03D004238363012010BD036871
:101450001A6822F00E021A601A6822F001021A605D
:10146000294A934224D902F56272934219D0143268
:10147000934218D01432934217D0143293420CBFC7
:101480004FF480534FF48033204A536001230024EB
:1014900080F82130436B80F820409BB3984720466A
:1014A00010BD0123F0E71023EEE74FF48073EBE764
:1014B00017498B4216D014318B4215D014318B4210
:1014C00014D014318B4214D014318B4214D0143107
:1014D0008B4214D0934214BF4FF480334FF080738B
:1014E0000C4AD2E70123FBE71023F9E74FF480739E
:1014F000F6E74FF48053F3E74FF48033F0E74FF40F
:101500008013EDE7184610BD800002400004024041
:10151000080002400000024070B40425C66B026C53
:101520003468036895402542196855D04D0753D556
:101530001A6896065EBF1A6822F004021A60604AB2
:1015400093421FD902F56272934214D0143293422F
:1015500013D01432934212D0143293420CBF4FF482
:1015600080434FF48023574A5360C36A002B00F036
:10157000A58070BC18470423F5E74023F3E74FF438
:101580008063F0E750498B4216D014318B4215D05E
:1015900014318B4214D014318B4214D014318B424D
:1015A00014D014318B4214D0934214BF4FF48023D3
:1015B0004FF08063454AD7E70423FBE74023F9E770
:1015C0004FF48063F6E74FF48043F3E74FF4802352
:1015D000F0E74FF48003EDE702259540254257D010
:1015E0008D0755D51A68940606D41A6822F00A02A7
:1015F0001A60012280F82120314A93421ED902F557
:101600006272934213D01432934212D01432934236
:1016100011D0143293420CBF4FF400534FF40033F7
:10162000284A5360002380F82030836A9EE7022313
:10163000F6E72023F4E74FF40073F1E722498B42E9
:1016400016D014318B4215D014318B4214D0143182
:101650008B4214D014318B4214D014318B4214D0ED
:10166000934214BF4FF400334FF00073174AD8E78A
:101670000223FBE72023F9E74FF40073F6E74FF46A
:101680000053F3E74FF40033F0E74FF40013EDE7B6
:1016900008259540254211D009070FD5196821F07A
:1016A0000E011960012303FA02F27260836380F86D
:1016B0002130002380F82030036B57E770BC70475F
:1016C0008000024000040240080002400000024086
:1016D0002DE9F74F00221646654BDFF8A4E1DFF84D
:1016E000A4C14FF001080C6808FA06F808EA0404DF
:1016F000A0457FD14D68122D00F0AF8000F28880A8
:10170000022D00F0A7807CD8002D00F08E80012DE6
:1017100000F09E804FF00F09FF2C93BF824606F128
:101720008045083DD0F800B092BFB500D0F804B0B5
:10173000AD0009FA05F82BEA080802FA05F588BF9A
:1017400000F1040A48EA0505CAF80050D1F804A0DF
:101750001AF0805F4ED0474D464FAD6926F0030822
:1017600045F00105BD61BD6908F1804805F001053E
:10177000019508F5803806F0030B019D4FEA8B0BAD
:10178000D8F8085009FA0BF925EA09093A4DA84298
:1017900068D005F58065A84266D005F58065A84249
:1017A00064D005F58065A8420CBF0325042505FA21
:1017B0000BF545EA0905C8F808501D681AF4803F82
:1017C00014BF2543A5431D605D681AF4003F14BF94
:1017D0002543A5435D609D681AF4801F14BF25430F
:1017E000A5439D60DD681AF4001F14BF2C4325EA51
:1017F0000404DC600136102E7FF473AF03B0BDE843
:10180000F08F032D22D0112D84D1CA68043281E7D4
:101810001A4FBD4209D012D8DFF86C904D4504D064
:1018200009F580394D457FF475AF8A68C2B1012A48
:101830000CBFC0F81080C0F8148008226AE7754514
:10184000F3D06545F1D0DFF84490EBE7002261E783
:10185000CA685FE7CA6808325CE7CA680C3259E7B1
:10186000042257E70025A2E70125A0E702259EE70D
:101870000004014000100240000801400000211057
:101880000000311000003210000011100000221082
:101890008368194214BF0120002070470AB101611A
:1018A00070470904FBE7C3685940C16070470000F6
:1018B00003682DE9F341DB07054614D42B689F0725
:1018C00062D42B68190700F199802B685A0700F140
:1018D000C380EA6A002A40F031812A6A002A40F077
:1018E0008481002014E0904C636803F00C03042B07
:1018F00007D0636803F00C03082B0CD16368DE0388
:1019000009D523689C03D9D5AB68002BD6D101201B
:1019100002B0BDE8F081AB68B3F5803F10D1236819
:1019200043F480332360FFF74FF90646236898039A
:10193000C4D4FFF749F9801B6428F7D90320E7E7EF
:101940009BB9236823F480332360236823F4802326
:101950002360FFF739F9064623689903AED5FFF7F0
:1019600033F9801B6428F7D9E8E7B3F5A02F236883
:1019700003D143F480232360D1E723F48033236031
:10198000236823F48023CDE7674C636813F00C0FC2
:1019900007D0636803F00C03082B10D16368DA03E7
:1019A0000DD423689B0702D56B69012BAFD1236847
:1019B000AA6923F0F80343EAC203236081E76A6956
:1019C0005A4B6AB101221A60FFF7FEF806462368F7
:1019D0009F07ECD4FFF7F8F8801B0228F7D9ADE792
:1019E0001A60FFF7F1F80646236898077FF569AF9C
:1019F000FFF7EAF8801B0228F6D99FE7EA694A4C0C
:101A00004B4BDAB101221A60FFF7DEF80646636A33
:101A10009B070DD54FF4FA52464B1B68B3FBF2F30C
:101A2000019300BF019B5A1E0192002BF9D14CE794
:101A3000FFF7CAF8801B0228E9D97FE71A60FFF791
:101A4000C3F80646636A9F077FF53FAFFFF7BCF810
:101A5000801B0228F6D971E7334CE369DE0024D4F9
:101A60000127E36943F08053E361E36903F08053A6
:101A70000093009B304E3368D80518D52B69012B95
:101A800026D1236A43F001032362FFF79DF841F258
:101A900088368046236A9A073FD5002F3FF419AF56
:101AA000E36923F08053E36113E70027E2E733683B
:101AB00043F480733360FFF787F880463368D905B5
:101AC000DCD4FFF781F8A0EB08006428F6D935E7ED
:101AD000ABB9236A41F2883823F001032362236AF9
:101AE00023F004032362FFF76FF80646236A9B077F
:101AF000D3D5FFF769F8801B4045F7D91EE7052BC2
:101B0000236A03D143F004032362BAE723F00103FD
:101B10002362236A23F00403B6E7FFF755F8A0EB2E
:101B20000800B042B6D909E7001002400000424266
:101B3000800442424C000020007000404F4C63681B
:101B4000D80308D5636803F00C03082B03D1E36ABC
:101B5000D9033FF5DCAE022A33D12368DA0006D57B
:101B6000E36A6A6B03F0F00393427FF4D0AE002384
:101B7000434E3360FFF728F8074623681B011AD449
:101B8000E36A6A6B23F0F0031343E362E36A2A6BB0
:101B900023F470631343E36201233360FFF714F807
:101BA000064623681F013FF598AEFFF70DF8801B2E
:101BB0006428F6D9C2E6FFF707F8C01B6428DCD911
:101BC000BCE60022E36A23F48033E3622C4B1A6004
:101BD000FEF7FAFF0646236818017FF57EAEFEF792
:101BE000F3FF801B6428F6D9A8E6244C636803F051
:101BF0000C03082B3FF48BAE0023224E022A3360E5
:101C00002FD1FEF7E1FF07462368990123D46B6AC1
:101C1000B3F5803F09D1E26A69680A43E262E26A89
:101C2000E96822F00F020A43E262A96A62680B4384
:101C300022F474121343636001233360FEF7C4FF80
:101C4000054623689A013FF54CAEFEF7BDFF401BE9
:101C50000228F6D972E6FEF7B7FFC01B0228D3D9D7
:101C60006CE6FEF7B1FF054623689B017FF539AEB0
:101C7000FEF7AAFF401B0228F6D95FE600100240DB
:101C80006800424260004242F0B589B06A462A4B81
:101C900003F10805144618685968083303C4AB42B9
:101CA0002246F7D118689B882060A380234B04ACA0
:101CB00003F11005224618685968083303C2AB4285
:101CC0001446F7D11E494B6803F00C02082A31D1A3
:101CD000C3F3834208A80244DB0312F8206C26D524
:101CE000CB6A03F00F03034413F8102CCB6A13F4F0
:101CF000803F144B16D0CF6ACC6AC4F3032402345D
:101D0000A4FB0645A4FB030103FB0511C7F3031362
:101D10000133A3FB0223FEF78DFD0D2E00D14008F9
:101D200009B0F0BD03FB06F0B0FBF2F0F5E70648A2
:101D30007043F5E70348F3E71470000822700008C9
:101D40000010024000127A0000093D00544A2DE9BB
:101D5000F0411368054603F007038B420E462AD371
:101D600029688C0734D4CA0747D44D4A136803F056
:101D700007039E42C0F082802A684A4C12F0040F8A
:101D800040F08780130706D563682A6923F46053FF
:101D900043EAC2036360FFF777FF6368424AC3F315
:101DA0000313D35CD840414B18600F20FEF7CAFEE6
:101DB0000020BDE8F081136823F007030B43136094
:101DC000136803F007039942CAD00120BDE8F081EF
:101DD000344B11F0040F1EBF5A6842F4E0625A609F
:101DE000080742BF5A6842F460525A605A68A868AD
:101DF00022F0F00202435A60B5E76A68294C012AD2
:101E000023681CD113F4003FDFD0636841F28838A7
:101E100023F0030313436360FEF7D6FE6B680746A7
:101E2000012B14D1636803F00C03042B9DD0FEF743
:101E3000CBFEC01B4045F5D90320BDE8F081022A46
:101E400002D113F0007FDFE713F0020FDCE7022B73
:101E50000FD1636803F00C03082B86D0FEF7B4FEA5
:101E6000C01B4045F5D9E7E7FEF7AEFEC01B404575
:101E7000E2D8636813F00C0FF6D176E7136823F00D
:101E8000070333431360136803F007039E429CD19A
:101E900072E76368E96823F4E0630B43636071E70A
:101EA0000020024000100240B77100084C000020E2
:101EB000044B054A5B68C3F30223D35C034A1068F2
:101EC000D840704700100240C77100084C00002045
:101ED000044B054A5B68C3F3C223D35C034A106812
:101EE000D840704700100240C77100084C00002025
:101EF00003682DE9F34113F0010F0546574C1FD03D
:101F0000E369DA0047D40127E36943F08053E361D2
:101F1000E36903F080530193019B514E3368DB0565
:101F20003BD5236A13F440734BD1236A6A6823F4C8
:101F30004073134323621FB1E36923F08053E361CD
:101F40002A68930705D56368A96823F440430B43C7
:101F50006360570705D5E36AE96823F400330B4350
:101F6000E362160705D5E36A2A6923F48023134345
:101F7000E362E36A980366D4E36A590363D428688A
:101F800010F010001AD06368EA6923F48003134349
:101F90006360002012E00027BFE7336843F48073DA
:101FA0003360FEF711FE80463368D805B9D4FEF7DA
:101FB0000BFEA0EB08006428F6D9032002B0BDE8B0
:101FC000F0816A6802F440729342AED00120254A43
:101FD000236A1060002023F4407110602162D90749
:101FE000A3D5FEF7F1FD41F288380646236A9A0729
:101FF0009BD4FEF7E9FD801B4045F7D9DDE7236858
:10200000A96913F0806F04D0E26A02F0F0028A42FC
:1020100022D1E36A23F0F0030B43E362E36A6A69C7
:1020200023F4704313430122E3620F4B1A60FEF75F
:10203000CBFD064623689A00A1D4FEF7C5FD801BA0
:102040006428F7D9B9E72368DB00D8D5E36A6A6961
:1020500003F47043934292D00120AFE70010024096
:102060000070004040044242700042422DE9F041BD
:102070000446884617461D46069E2268936838EA3D
:1020800003030CBF012300239F4202D10020BDE8BF
:10209000F0816B1CF2D055BB23685A6822F0E00235
:1020A0005A606268B2F5827F0AD1A268B2F5004F29
:1020B00002D0B2F5806F03D11A6822F040021A6094
:1020C000A26AB2F5005F09D11A6822F40052120424
:1020D000120C1A601A6842F400521A60012384F844
:1020E00051300023032084F85030BDE8F081FEF722
:1020F0006BFD801B8542C0D8CEE713B50B4600921E
:10210000802100220446FFF7B1FF20B10320636D58
:1021100043F02003636502B010BD10B504460028EB
:1021200036D00023836290F8513003F0FF021BB9D0
:1021300080F8502003F008FD0223216884F8513014
:102140000B68A06823F040030B606368A269034337
:10215000E06803432069034360690343E069034384
:10216000206A0343A06A034302F4007003430B6038
:10217000120C636A02F004021A434A60CB69002021
:1021800023F40063CB610123606584F8513010BDF6
:10219000012010BD2DE9FF411E4690F85030044645
:1021A000012B0D46904600F09C80012380F85030B2
:1021B000FEF70AFD074694F85100C0B2012840F02E
:1021C0008E80002D4ED0B8F1000F4BD0032384F841
:1021D000513000236365A363A4F83680A387E387A7
:1021E00063642364A3682563B3F5004F2368A4F8F0
:1021F000348002BF1A6842F480421A601A6852069C
:102200005EBF1A6842F040021A60E268B2F5006FE1
:10221000626838D11AB1E28E92B2012A06D135F83D
:10222000022BDA60E38E013B9BB2E386E38E9BB226
:1022300093B900973346012202212046FFF716FF8B
:1022400078B93A4631462046FFF757FF002838D084
:1022500020230120636505E023689A689007DED497
:102260004EB90320012384F85130002384F8503004
:1022700004B0BDE8F081711CD8D0FEF7A5FCC01BEE
:102280008642D3D8EDE71AB1E28E92B2012A06D186
:1022900015F8012B1A73E38E013B9BB2E386E38EA4
:1022A0009BB2002BC5D023689A689207F0D4002E09
:1022B000D7D0731CF3D0FEF787FCC01B8642EED844
:1022C000CFE7A36833B903932368DA6803929B6866
:1022D0000393039B606D003018BF0120C2E702200A
:1022E000C0E70220C4E72DE9F043994690F850304A
:1022F00085B0012B04460D4616460C9F00F0EE807B
:10230000012380F85030FEF75FFC94F8513080468E
:10231000DBB2012B61680AD0B1F5827F40F0DC802E
:10232000A268002A40F0D880042B40F0D580002D10
:102330004ED0002E4CD0B9F1000F49D094F8513056
:10234000A663012B04BF052384F851300023636585
:10235000236463642368A4F83E90A4F836901A6856
:10236000A4F83C90500658BF1A68256358BF42F045
:102370004002A4F8349058BF1A60E268B2F5006FCA
:102380005DD119B1E28E92B2012A06D135F8022B45
:10239000DA60E38E013B9BB2E3864FF00109E38EE6
:1023A0009BB2BBB9E38F9BB2A3B9CDF800803B468B
:1023B000012202212046FFF759FE002835D142466E
:1023C00039462046FFF799FE00287AD0202363651E
:1023D00001202BE0B9F1000F0FD0E38E9BB263B167
:1023E00023689A68910708D54FF0000935F8022B49
:1023F000DA60E38E013B9BB2E386E38F9BB263B16D
:1024000023689A68D20708D54FF00109DB6826F8DF
:10241000023BE38F013B9BB2E387781CBFD0FEF702
:10242000D3FBA0EB08008742B9D80320012384F82E
:102430005130002384F8503005B0BDE8F08319B165
:10244000E28E92B2012A06D115F8012B1A73E38E9F
:10245000013B9BB2E3864FF00109E38E9BB21BB9AF
:10246000E38F9BB2002BA0D0B9F1000F0FD0E38E09
:102470009BB263B123689A68910708D54FF00009B1
:102480002A7801351A73E38E013B9BB2E386E38F12
:102490009BB26BB123689A68D20709D54FF0010946
:1024A000DB68013606F8013CE38F013B9BB2E38712
:1024B0007B1CD2D0FEF788FBA0EB08008742CCD86B
:1024C000B3E7A368002BB1D123680390DA680392C5
:1024D0009B680393039BA9E70220A7E70220ABE7D1
:1024E0002DE9F3411E4643680446B3F5827F0D464D
:1024F00090460CD1836853B9042380F851301346B9
:1025000000960A46FFF7EFFE02B0BDE8F08194F8AE
:102510005030012B00F08180012384F85030FEF709
:1025200053FB074694F85100C0B2012873D1002D27
:1025300058D0B8F1000F55D0042384F8513000234F
:1025400063652363A4F83E80A386E3862364636403
:10255000A368A563B3F5004F2368A4F83C8002BFCD
:102560001A6822F480421A601A6852065EBF1A681E
:1025700042F040021A60E368CBB1E38F9BB2D3B163
:1025800023689A68D2073CD5DB6825F8023BE38FC5
:10259000013B9BB2E387F0E723689A68D0071FD519
:1025A0001B7B05F8013BE38F013B9BB2E387E38F85
:1025B0009BB2002BF0D16368B3F5827F0BD1A36887
:1025C000B3F5004F02D0B3F5806F04D122681368D1
:1025D00023F040031360606D003018BF012001E05C
:1025E0003EB90320012384F85130002384F8503091
:1025F0008AE7711CDBD0FEF7E7FAC01B8642D6D80B
:10260000EFE7002EEDD0731CB7D0FEF7DDFAC01B4C
:102610008642B2D8E5E70220E4E7022074E770477B
:10262000036830B559689A6885B002F04105012DFC
:10263000044605D14D0603D5036C984705B030BD5F
:10264000900704D50D0602D5636C2046F5E712F01D
:10265000600FF3D08806F1D555060ED594F85100D9
:102660000025032836D0606D40F0040060650195B8
:10267000D868019098680190019890060CD5626D19
:1026800042F001026265002203929A6803921A687E
:1026900022F040021A60039A626D002ACED05A6876
:1026A00022F0E0025A60012284F851208A0718D0F3
:1026B0005A68E06C22F003025A6018B10B4B436376
:1026C000FEF7BCFEA06C0028B8D0084B4363FEF7B1
:1026D000B5FEB3E70295DA6802929B680293029B0B
:1026E000ACE72046FFF79BFFA8E700BFF1260008F4
:1026F00008B50023406AC387C386FFF790FF08BD73
:102700000368DA6822F49072DA605A6922F00102F2
:102710005A61202380F83A30704700002DE9F047D5
:102720000568C2682B69016923F4405313432B6188
:102730008368EA680B43416922F4B05222F00C022C
:102740000B431343EB606B69826923F440731343BB
:102750006B61404B81469D424FF0190446D1FFF713
:10276000B7FB04FB00F3D9F804604FF06408B6002F
:10277000B3FBF6F3B3FBF8F31E01FFF7A9FB6043CD
:10278000D9F804309B00B0FBF3F7FFF7A1FB6043DF
:10279000D9F804309B00B0FBF3F3B3FBF8F308FB6C
:1027A00013731B013233B3FBF8F303F0F007FFF7A9
:1027B0008FFB6043D9F804209200B0FBF2FAFFF7D8
:1027C00087FB6043D9F804309B00B0FBF3F3B3FB05
:1027D000F8F308FB13A31B013233B3FBF8F303F048
:1027E0000F033B433344AB60BDE8F087FFF760FB6A
:1027F00004FB00F3D9F804604FF06408B600B3FBA3
:10280000F6F3B3FBF8F31E01FFF752FB6043D9F870
:1028100004309B00B0FBF3F7FFF74AFB6043D9F8A5
:1028200004309B00B0FBF3F3B3FBF8F308FB137326
:102830001B013233B3FBF8F303F0F007FFF738FB6B
:102840006043D9F804209200B0FBF2FAFFF730FBA6
:10285000B7E700BF00380140F8B504460E461746FA
:102860001D4621680B6836EA030301D10020F8BD3C
:102870006B1CF7D095B923680320DA6822F4D07274
:10288000DA605A6922F001025A61202384F8393053
:1028900084F83A30002384F83830F8BDFEF794F914
:1028A000C01B8542DDD2E6E710B5044640B390F880
:1028B000393003F0FF021BB980F8382003F086F9A5
:1028C0002423226884F83930D368204623F4005347
:1028D000D360FFF723FF236800201A6922F4904297
:1028E0001A615A6922F02A025A61DA6842F40052E7
:1028F000DA602023E06384F8393084F83A3010BD80
:10290000012010BD2DE9F0411F4690F839300446F2
:10291000202B0D4690464ED1002949D0002A47D0A1
:1029200090F83830012B46D0012380F8383000234E
:10293000C363212380F83930FEF746F90646A4F830
:102940002480A4F82680E38C9BB26BB93B463246C8
:1029500040212046FFF780FFA8B9202384F83800E3
:1029600084F83930BDE8F081E38C3246013B9BB2FC
:10297000E384A3688021B3F5805F20463B460ED1F7
:10298000FFF76AFF10B10320BDE8F0812B882268B1
:10299000C3F308035360236943B90235D3E7FFF754
:1029A0005BFF0028EFD123682A785A600135CAE717
:1029B0000120BDE8F0810220BDE8F0812DE9F04161
:1029C0001F4690F83A300446202B0D46904651D1D0
:1029D00000294CD0002A4AD090F83830012B49D039
:1029E000012380F838300023C363222380F83A3073
:1029F000FEF7EAF80646A4F82C80A4F82E80E08DB5
:102A000080B230B9202384F8380084F83A30BDE829
:102A1000F081E38D3246013B9BB2E385A368202120
:102A2000B3F5805F20463B4612D1FFF715FF10B18A
:102A30000320BDE8F081236822695B6822B9C3F3F3
:102A4000080325F8023BDAE7DBB225F8013BD6E7BD
:102A5000FFF702FF0028EBD1236821696A1C5B683D
:102A600011B92B701546CAE703F07F03F9E701207F
:102A7000BDE8F0810220BDE8F08190F83A30202BCB
:102A800020D1E9B1E2B190F83830012B1AD0C285DB
:102A9000828500232222C36380F83A200268816283
:102AA000D16880F8383041F48071D160516918469E
:102AB00041F001015161D16841F02001D1607047BE
:102AC000012070470220704738B50446134694F839
:102AD0003920202A2AD139B333B394F83820012A77
:102AE00024D00122002584F838202122E384206BA1
:102AF000E56384F839200E4AA384216282620D4A7C
:102B00004563C2620C4A026322680432FEF758FC35
:102B10006FF04002236828461A605A6984F83850DA
:102B200042F080025A6138BD012038BD022038BD14
:102B30003F2B00086D2B0008F52B0008704708B5E7
:102B40000368426A1B6813F020030AD1D384136818
:102B50005A6922F080025A61DA6842F04002DA6073
:102B600008BD1046FFF7EAFF08BD704708B5406A88
:102B7000FFF7FBFF08BD90F83A3010B5222B36D195
:102B800083680169B3F5805F0268836A23D1526864
:102B9000E9B9C2F3080223F8022B8362C48D013C19
:102BA000A4B2C4858CB90368DA6822F02002DA6026
:102BB000DA6822F48072DA605A6922F001025A61FE
:102BC000202380F83A3002F0DBFB002010BDD2B2A7
:102BD00023F8012BE1E721B9591C526881621A7070
:102BE000DCE75268591C816202F07F02F7E702209D
:102BF00010BD7047416A08B50B685A6991F83900F1
:102C000021280AD1120608D50022CA84DA6822F0E7
:102C1000C002DA60202281F839205B6991F83A20FD
:102C2000222A06D15B0604D500230846CB85FFF790
:102C300067FDCB6B084643F01003CB63FFF7D9FF6A
:102C400008BD0000036870B51A6804461607D96805
:102C50005D6907D196065AD58D0658D5BDE87040F6
:102C6000FFF789BF15F0010502D111F4907F4ED016
:102C7000D30705D5CE0542BFE36B43F00103E36301
:102C8000500704D51DB1E36B43F00203E3639307E0
:102C900004D51DB1E36B43F00403E363160704D5C9
:102CA0001DB1E36B43F00803E363E36B002B66D0D5
:102CB000950604D5880602D52046FFF75CFF2368F9
:102CC00020465D69E26B110702D415F040051AD069
:102CD000FFF716FD23685A69520610D55A69606BD2
:102CE00022F040025A6150B1254B4363FEF7A6FB28
:102CF000002844D0606BBDE87040436B1847204605
:102D0000FFF777FF70BDFFF774FFE56370BD160630
:102D100027D50D0625D594F83920212A2FD1A26870
:102D2000B2F5805F226A17D11188C1F3080159609A
:102D3000216979B902322262E28C013A92B2E284CC
:102D4000EAB9DA6822F08002DA60DA6842F040021A
:102D5000DA6070BD0132EEE7511C216212785A60D0
:102D6000EAE750060BD54A0609D5DA68204622F074
:102D70004002DA60202384F83930FFF7DFFE70BDAF
:102D8000852D000808B50023406AC385C384FFF77A
:102D900030FF08BD08B500F02BFF002008BD00F192
:102DA000080343604FF0FF32C36003610023826079
:102DB0000360704700230361704743689A684B6063
:102DC0008A609A6851609960036808610133036002
:102DD00070470A6830B5531C0AD103695A684A60C3
:102DE00091608B605960036808610133036030BDF6
:102DF00000F108035C682568AA42EFD32346F9E78F
:102E00004168826803698A608268516059688842B3
:102E100008BF5A60002202611868013818607047C4
:102E20000A4B1B68013308D04FF0500383F311881D
:102E3000BFF36F8FBFF34F8FFEE74FF0500383F365
:102E40001188BFF36F8FBFF34F8FFEE7080000209C
:102E500006480068006880F3088862B661B6BFF370
:102E60004F8FBFF36F8F00DF00BF000008ED00E061
:102E70004FF0807340F8043C054B21F0010140F80D
:102E8000081C40F80C3C40F8202C4038704700BF2C
:102E9000212E0008000000000000000000000000DB
:102EA000074B19680868B0E8F00F80F30988BFF392
:102EB0006F8F4FF0000080F311884EF00D0E7047B9
:102EC0007C5000204FF0500383F31188BFF36F8FC5
:102ED000BFF34F8F0A4A13680133012B13600DD1E2
:102EE000084B1B6813F0FF0F08D04FF0500383F31B
:102EF0001188BFF36F8FBFF34F8FFEE7704700BF9E
:102F00000800002004ED00E0084A136843B94FF0C0
:102F1000500383F31188BFF36F8FBFF34F8FFEE72A
:102F2000013B13600BB983F3118870470800002040
:102F3000EFF30980BFF36F8F0D4B1A6820E9F00F94
:102F400010602DE908404FF0500080F3118800F028
:102F5000F9FF4FF0000080F31188BDE808401968C0
:102F60000868B0E8F00F80F30988BFF36F8F7047EF
:102F70007C50002008B54FF0500383F31188BFF355
:102F80006F8FBFF34F8F00F077FE18B14FF0805274
:102F9000024B1A60002383F3118808BD04ED00E0A2
:102FA0004FF47A72054B1B68B3FBF2F3044A013B02
:102FB00013600722034B1A60704700BF4C000020CB
:102FC00014E000E010E000E013B51F4B00211A7878
:102FD000D2B20192FF221A701B781C4ADBB28DF824
:102FE00003309DF8033003F0500313700722184B91
:102FF0001A609DF80300541E00061CD401B11A602B
:103000001A68120202F4E0621A60019B0E4ADBB2F7
:103010001370104B1A6842F470021A601A6842F07A
:1030200070421A60FFF7BCFF00220B4B1A60FFF7DB
:103030000FFFFFF7F5FE9DF8032001215200D2B2E9
:103040008DF803202246D4E700E400E03C02002093
:103050004002002020ED00E008000020EFF305838F
:103060000F2B0ED9104A9B5C104A12789A4208D94D
:103070004FF0500383F31188BFF36F8FBFF34F8F6F
:10308000FEE70B4B0B4A1B68126803F4E0639342A4
:1030900008D94FF0500383F31188BFF36F8FBFF34C
:1030A0004F8FFEE7704700BFF0E300E03C020020D6
:1030B0000CED00E04002002010B50F4B1A68824270
:1030C00018D35C681919884201BF4168184609196C
:1030D0005960446801198A4207D1084909688A423F
:1030E0001FBF51681268091941609842026018BFF9
:1030F000186010BD1346E1E7745000204402002020
:103100002DE9F041044600F0A9FD3D493D4D0B6815
:10311000FBB93D4A002056070FBF44F62063073233
:103120003A4B22F0070218BF9B1A1344384E083B53
:1031300023F0070370603260586018600B60981AC3
:103140001360344B50601860334B18604FF00043ED
:103150002B602F68274216D1002C40D004F10803C1
:1031600058071CBF23F00703083363B12A4A1668C7
:103170009046B34207D8264A15686868834204D847
:1031800009688D4207D1002429E02C68002CF7D073
:103190002A462546F1E7296814681160C21A102AE8
:1031A0000FD9E818410708D04FF0500383F3118876
:1031B000BFF36F8FBFF34F8FFEE742606B60FFF787
:1031C0007BFF6B681349F61A1F4300230868C8F891
:1031D0000060864238BF0E6008346F602B6000F0DC
:1031E000DDFD630708D04FF0500383F31188BFF370
:1031F0006F8FBFF34F8FFEE72046BDE8F08100BF21
:10320000440200206850002048020020685000203E
:1032100074500020705000206C50002010B50446FF
:1032200070B3184A50F8043C1268134208D14FF0AA
:10323000500383F31188BFF36F8FBFF34F8FFEE707
:1032400050F8081C41B14FF0500383F31188BFF3CD
:103250006F8FBFF34F8FFEE723EA020340F8043C71
:1032600000F0FCFC084A54F8043C1168A4F1080082
:103270000B441360FFF720FFBDE8104000F08EBD47
:1032800010BD00BF685000206C50002070B515467E
:10329000026C0446866B42B905689DB9406800F02F
:1032A0008FFF65600136A66370BD6DB9806802F05E
:1032B00083FDA368226C13446268A360934201D328
:1032C0002368A3600020EDE7C06802F075FD236C61
:1032D000E2685B4221681A448A42E2603EBF62684B
:1032E0009B18E360022DEDD10EB1013EEAE73046B6
:1032F000D8E703461A6C10B4084662B1D9685C6816
:103300001144A142D96028BF196810BC28BFD960F8
:10331000D96802F051BD10BC704770B50446FFF784
:10332000D1FD94F8455004F124066DB2002D14DC53
:10333000FF2384F84530FFF7E7FDFFF7C3FD94F85E
:10334000445004F110066DB2002D12DCFF2384F806
:103350004430BDE87040FFF7D7BD636A002BE7D06B
:10336000304600F043FE08B100F0CCFE013D6DB2E6
:10337000DCE72369002BE9D0304600F037FE08B1C6
:1033800000F0C0FE013D6DB2DEE7000038B50D462D
:10339000044640B94FF0500383F31188BFF36F8F99
:1033A000BFF34F8FFEE7FFF78DFD206CE36B2268C4
:1033B0004343D1181B1A13446160E3600021FF23CB
:1033C000A163A26084F8443084F8453095B923693C
:1033D00063B104F1100000F009FE38B14FF08052E3
:1033E000094B1A60BFF34F8FBFF36F8FFFF78CFD50
:1033F000012038BD04F11000FFF7D1FC04F12400D6
:10340000FFF7CDFCF2E700BF04ED00E070B50D461C
:10341000064640B94FF0500383F31188BFF36F8F16
:10342000BFF34F8FFEE748434830FFF769FE04467D
:1034300050B1002380F8463045B92060E66325642A
:1034400001212046FFF7A2FF204670BD00F148038E
:103450000360F3E72DE9FF47894601921F460446C2
:1034600040B94FF0500383F31188BFF36F8FBFF360
:103470004F8FFEE7002940F08880036C002B00F09E
:1034800084804FF0500383F31188BFF36F8FBFF335
:103490004F8FFEE7019E002E00F082804FF0500318
:1034A00083F31188BFF36F8FBFF34F8FFEE7019D4A
:1034B0001DB9FFF729FD002058E016B902A800F059
:1034C000D7FDFFF721FD00F0C9FBFFF7FBFC94F8E7
:1034D0004430FF2B08BF84F8448094F84530FF2B1C
:1034E00008BF84F84580FFF70FFD01A902A800F08E
:1034F000CFFD002843D1FFF7E5FCA66BE56BFFF796
:1035000003FDAE4235D1019904F1100000F054FDE5
:103510002046FFF702FF00F041FC38B94FF080531E
:10352000CAF80030BFF34F8FBFF36F8F0126FFF74C
:10353000C9FCA26BE36B9A4201D3022FB7D13A4682
:1035400049462046FFF7A2FE636A1BB104F124003E
:1035500000F04CFD38B14FF08052184B1A60BFF3A9
:103560004F8FBFF36F8FFFF7CFFC012004B0BDE892
:10357000F0872046FFF7D1FE00F010FCD6E720468A
:10358000FFF7CBFE00F00AFC95E7022F02D1E36BB8
:10359000012B0AD100F0BCFD00283FF47BAF0026D0
:1035A0004FF00008DFF814A0C1E74FF0500383F399
:1035B0001188BFF36F8FBFF34F8FFEE704ED00E07C
:1035C0002DE9F843884691461F46044640B94FF01E
:1035D000500383F31188BFF36F8FBFF34F8FFEE764
:1035E00009BB036CFBB14FF0500383F31188BFF3A9
:1035F0006F8FBFF34F8FFEE704F1240000F0F6FC5D
:10360000002834D0B9F1000F31D00120C9F80000F2
:1036100086F31188BDE8F88301356DB284F8455012
:1036200025E00020F4E7022F02D1E36B012B20D12B
:10363000FFF714FDEFF311864FF0500383F3118869
:10364000BFF36F8FBFF34F8FA26BE36B9A4201D32F
:10365000022FE6D194F845503A466DB241462046D5
:10366000FFF714FE6B1CD7D1636A002BC4D1012075
:10367000CEE74FF0500383F31188BFF36F8FBFF392
:103680004F8FFEE72DE9FF47884601929946044691
:1036900040B94FF0500383F31188BFF36F8FBFF32E
:1036A0004F8FFEE7002940F0A580036C002B00F04F
:1036B000A1804FF0500383F31188BFF36F8FBFF3E6
:1036C0004F8FFEE7019E002E00F09A804FF05003CE
:1036D00083F31188BFF36F8FBFF34F8FFEE7636AE9
:1036E000E660002B6DD004F124005FE0019D1DB960
:1036F000FFF70AFC284667E016B902A800F0B8FCFC
:10370000FFF702FC00F0AAFAFFF7DCFB94F8443064
:10371000FF2B08BF84F8447094F84530FF2B08BF96
:1037200084F84570FFF7F0FB01A902A800F0B0FC97
:10373000002852D1FFF7C6FBA56BFFF7E5FB002D74
:1037400045D1236833B9FFF7BDFB606800F0F0FC9A
:10375000FFF7DAFB019904F1240000F02DFC20466C
:10376000FFF7DBFD00F01AFB38B94FF08053CAF8C1
:103770000030BFF34F8FBFF36F8F0126FFF7A2FB1F
:10378000A56B002DB2D041462046E668FFF7B1FD9B
:10379000B9F1000FA3D12368013DA56313B900F06F
:1037A0005FFD6060236963B104F1100000F01EFC4E
:1037B00038B14FF08052144B1A60BFF34F8FBFF3F4
:1037C0006F8FFFF7A1FB012004B0BDE8F087204612
:1037D000FFF7A3FD00F0E2FACFE72046FFF79DFDDB
:1037E00000F0DCFAFFF76EFBA56BFFF78DFB002DF9
:1037F000C3D17FE700F08CFC00283FF463AF0026C4
:103800000027DFF804A0B9E704ED00E02DE9F0415E
:103810000646FFF757FB2D4B2D4C1A682D4F0132F2
:103820001A602568002D45D126601B68012B1CD12C
:1038300078191435FFF7B3FA8C2DF9D1DFF8C08071
:10384000254D4046FFF7ABFA2846FFF7A8FA234874
:10385000FFF7A5FA2248FFF7A2FA2248FFF79FFADE
:10386000214BC3F80080214B1D60214A2149136878
:103870000868013313600123F26A93400343142064
:103880000B6000FB0270311DFFF797FAFFF73CFB5E
:10389000194B1B6863B12368DA6AF36A9A4207D24C
:1038A0004FF08052154B1A60BFF34F8FBFF36F8FED
:1038B000BDE8F081104B1B68002BD6D12368DA6A73
:1038C000F36A9A4298BF2660CFE700BF14510020E8
:1038D0007C50002088500020405100205C51002086
:1038E0008851002074510020805000208450002016
:1038F00024510020285100207051002004ED00E0E8
:103900002C510020064A13681968064B19B94FF06C
:10391000FF321A6070471268D268D2685268F8E7BE
:1039200080500020545100202DE9F04781460A9C28
:1039300002F18042266B013A06EB8206DDF8248014
:103940009A4626F007064B1E04F134020F315878D0
:1039500002F8010B13F8010F08B18B42F7D1089D53
:103960000027062D28BF0625201DE562656484F822
:103970004370A764FFF71EFAC5F1070504F11800AC
:10398000FFF718FAE7642461A561646284F8507057
:10399000524649463046FFF76BFA2060B8F1000FF7
:1039A00001D0C8F80040BDE8F08710B590F851305C
:1039B00004463BB9006BFFF731FC2046BDE81040E0
:1039C000FFF72CBC012BF9D0022B08D04FF050038D
:1039D00083F31188BFF36F8FBFF34F8FFEE710BDE6
:1039E000F8B51B4B1B4E1D68044630680F4604306B
:1039F000FFF706FA334640B901203168164EC96A0E
:103A00003268884022EA00023260621C07D137B176
:103A1000196812480431BDE8F840FFF7CEB92C44CC
:103A20001A68A542546007D90D4A10681968BDE8A4
:103A3000F8400431FFF7CDB90A4A1068196804311B
:103A4000FFF7C7F9084B1A68944238BF1C60F8BDED
:103A50009C5100207C5000202851002074510020EF
:103A60008450002080500020545100204FF050031B
:103A700083F31188BFF36F8FBFF34F8FFEE730B52D
:103A800087B00B9D0C9C0DB9FFF7F0FF44B94FF0C8
:103A9000500383F31188BFF36F8FBFF34F8FFEE79F
:103AA0002563022584F8515005AD01950A9D0294C5
:103AB0000095FFF739FF2046FFF7A8FE059807B0ED
:103AC00030BD2DE9F043074685B090008846164684
:103AD0009946FFF715FB0546E8B15420FFF710FBA8
:103AE0000446A8B1002380F851300D9B0563019373
:103AF0000C9B0290009332464B4641463846FFF7F6
:103B000013FF2046FFF782FE012005B0BDE8F083D9
:103B10002846FFF783FB4FF0FF30F6E770B5044609
:103B2000294DFFF7CFF904B92C68261D3046FFF761
:103B300067F960B91421E06A244B41435B5833B9FB
:103B40000122234982400B6823EA02030B60A36A27
:103B50001BB104F11800FFF753F91E4A1368013333
:103B600013602B689C421BD131461B48FFF725F997
:103B70001A4A136801331360FFF7C6F9184B1B6824
:103B800003B32B689C421DD1164B1B6893B14FF0B9
:103B9000500383F31188BFF36F8FBFF34F8FFEE79E
:103BA000114A20461368013B1360FFF7FEFEFFF742
:103BB000A9FEE1E74FF080520C4B1A60BFF34F8F24
:103BC000BFF36F8F70BD00BF7C5000208850002075
:103BD0002851002024510020885100201851002035
:103BE00070510020205100201451002004ED00E00D
:103BF00010B5002488B007AA06A905A80594069464
:103C000001F03EFA059B00940293069B079A0193EC
:103C10000D4923460D48FFF732FF90B14FF0500396
:103C200083F31188BFF36F8FBFF34F8F4FF0FF32D5
:103C3000074B1A600122074B1A60074B1C60FFF705
:103C4000C3F908B010BD00BF78700008D53E000869
:103C500054510020705100209C510020024A1368EA
:103C600001331360704700BF20510020014B1868DA
:103C7000704700BF9C5100202DE9F84F3C4B1B685A
:103C8000002B53D13B4B1C6801341C60BCB93A4B30
:103C90001A68126842B14FF0500383F31188BFF3E2
:103CA0006F8FBFF34F8FFEE7344A196810681860B2
:103CB0001160334A136801331360FFF723FE314D5F
:103CC0004FF0000B2B68304F9C423ED3DFF8A880AA
:103CD000DFF8C490D8F80020126872BB4FF0FF32B2
:103CE0002A6032E006F1040A5046FFF789F8B16A0B
:103CF00019B106F11800FFF783F801224FF0140EF6
:103D0000F06AD9F8003002FA00F119431F4BC9F8E4
:103D100000100EFB00305146FFF74FF83868F16A8B
:103D2000C26A914228BF4FF0010BD3E7184A4FF007
:103D3000000B13680133136011E0D8F80020D2683B
:103D4000D66871688C42CDD229603A680F4BD16A2F
:103D500014224A439A58022A28BF4FF0010B0D4AF9
:103D60001268002A18BF4FF0010B5846BDE8F88FC3
:103D7000205100209C5100208050002084500020C1
:103D800058510020545100207C50002088500020C1
:103D90001C510020A0510020285100202DE9F8439B
:103DA000314C236843B94FF0500383F31188BFF3BC
:103DB0006F8FBFF34F8FFEE7FFF784F82368013B57
:103DC000236024682CB10024FFF79EF82046BDE84C
:103DD000F883264B1B68002BF5D0DFF8A890244F02
:103DE000DFF8A480D9F80030E3B90CB1FFF78AFD01
:103DF000204D2C6844B101271F4EFFF73DFF00B155
:103E00003760013CF9D12C601B4B1B68002BDAD0CA
:103E10004FF08052194B1A60BFF34F8FBFF36F8F73
:103E20000124D1E7D9F80C300125DC68261D04F106
:103E30001800FEF7E5FF3046FEF7E2FF1420E26AC5
:103E4000396805FA02F30B4300FB028031463B6000
:103E5000FEF7B3FF0A4BE26A1B68DB6A9A4224BF93
:103E6000054B1D60BEE700BF20510020145100200B
:103E7000285100201C510020A051002004ED00E03A
:103E80007C5000205C5100208850002008B540B9CB
:103E90004FF080520D4B1A60BFF34F8FBFF36F8FFF
:103EA00008BD0B4B196841B14FF0500383F31188E3
:103EB000BFF36F8FBFF34F8FFEE7FFF7CFFEFFF724
:103EC0008FFDFFF76BFF0028E2D008BD04ED00E096
:103ED0002051002008B5164D164C236863B9164BC7
:103EE0001B68012BF8D94FF08052144B1A60BFF3B6
:103EF0004F8FBFF36F8FEFE7FFF7B0FE2E68FFF72E
:103F00004DFF002EE9D0FEF7DDFFEB68DE68301DC7
:103F1000FEF776FF0A4A1368013B13602368013BF2
:103F20002360FEF7F1FF3046FFF73FFDD5E700BF06
:103F300088510020185100208850002004ED00E036
:103F400014510020174B10B51A68174B12B10122FB
:103F50001A6010BD1A60154B1B68B3FA83F3142264
:103F6000DBB2C3F11F035A4311498C58881844B976
:103F70004FF0500383F31188BFF36F8FBFF34F8F60
:103F8000FEE74468083264680A44944208BF6268E5
:103F9000446008BF4260142202FB03135B68DA68C6
:103FA000044BD5E720510020A051002028510020CB
:103FB000885000207C50002010B50C4640B94FF0CE
:103FC000500383F31188BFF36F8FBFF34F8FFEE76A
:103FD000054B19681831FEF7FCFE2046BDE810407D
:103FE0000121FFF7FDBC00BF7C50002038B5C3683D
:103FF000DC6844B94FF0500383F31188BFF36F8F2F
:10400000BFF34F8FFEE704F118052846FEF7F8FED0
:10401000114B1B68E3B9251D2846FEF7F1FE01236D
:104020000E49E26A08689340034314200B60294656
:104030000B4B00FB0230FEF7C0FE0A4BE26A1B6826
:10404000DB6A9A4285BF0120074B0020186038BD0B
:1040500029460648EFE700BF2051002028510020E4
:10406000885000207C500020A05100205C5100208E
:1040700008B508B9FFF7FAFC034B1B680360034B54
:104080001B68436008BD00BF585100209C510020B0
:1040900038B50D46044640B94FF0500383F31188FC
:1040A000BFF36F8FBFF34F8FFEE741B94FF050035F
:1040B00083F31188BFF36F8FBFF34F8FFEE7FEF7D7
:1040C00001FF0E4B19682B685A1C10D00C4A20684F
:1040D00012689042626801D091420DD2881A8342E0
:1040E0000AD95B1A13442B602046FFF7C1FF002456
:1040F000FEF70AFF204638BD0124F9E79C51002055
:10410000585100200122014B1A607047A051002035
:10411000054B1B6833B1054B1B68002B0CBF0220FD
:10412000002070470120704770510020205100206E
:104130002DE9F0410446002839D01E4DC36A2A6893
:10414000D26A934233D2142782691B4E002AA8BF39
:104150002A6807FB0363A2BFD26AC2F10702826129
:1041600042699A4220D100F104084046FEF748FE19
:10417000124A48B9E06A4743F3592BB90121136841
:10418000814023EA010313602B681168D86A012378
:1041900083400B4313601423E062414603FB00603D
:1041A000BDE8F041FEF709BE2B68DB6AC362BDE8DB
:1041B000F08100BF7C500020885000202851002052
:1041C000F8B5044608B90020F8BD224B1B68984298
:1041D00008D04FF0500383F31188BFF36F8FBFF304
:1041E0004F8FFEE7836C43B94FF0500383F3118880
:1041F000BFF36F8FBFF34F8FFEE7C16A426C013B85
:1042000091428364DFD0002BDDD1051D2846FEF7E7
:10421000F7FD114E114A50B91421E76A79437358DA
:104220002BB901201368B84023EA00031360636CC4
:10423000C3F10701E362A1610124116804FA03F0EC
:10424000084310601420294600FB0360FEF7B5FD0B
:104250002046F8BD7C5000208850002028510020C6
:10426000044B1A681AB119688A6C01328A6418689A
:10427000704700BF7C500020F0B58BB06C460646FE
:104280000F4D0F460FCD0FC40FCD0FC495E803009F
:1042900084E8030006F1120333F8022D9E425A808F
:1042A000FAD100231846378036F813205DF8231022
:1042B00001330A2B01FB0200F6D1000C0BB0F0BD5C
:1042C0003470000880B594B014220021684601F0D3
:1042D0007EFD1422012300210DEB0200ADF8003019
:1042E00001F075FD0223142200210AA8ADF8143054
:1042F00001F06DFD0323142200210FA8694EADF8D3
:10430000283001F064FD04233446674FADF83C309B
:10431000F38B322B40F28D8075786DBB2A464FF4BB
:1043200080516248FDF7BAFA2A464FF400515F48BF
:10433000FDF7B4FA2A464FF480415C48FDF7AEFA27
:104340002A464FF400415948FDF7A8FA2A46402171
:104350005748FDF7A3FA2A4680215548FDF79EFAF3
:104360002A464FF480715248FDF798FA2A464FF4D6
:1043700000714F48FDF792FAE578012D32D0002305
:10438000E370E3834B4B4C4D1A884C482A805A8883
:104390006A809A88DB88AA80EB80FCF713FE298864
:1043A0006846FFF769FF6988E08105A8FFF764FFA9
:1043B000A98820820AA8FFF75FFFE98860820FA81A
:1043C000FFF75AFF6378A082012B35D100233C48C8
:1043D0001A4619460068A370FFF73CF83220FFF731
:1043E00055FD95E7E38B01339BB2B3F5167FE3836D
:1043F000C8D900224FF400613846FDF74FFA322049
:10440000FFF744FD2F4B30491A78304801F0E8FCA3
:104410002F4BC2B22D492F481A70FEF755FB3220A0
:10442000FFF734FD2A464FF400613846FDF736FAAF
:10443000A5E70133F383A5E7A378012BCED10025AF
:104440004FF480512A4619486577FDF727FA2A4626
:104450004FF400511548FDF721FA2A464FF48041E8
:104460001248FDF71BFA2A464FF400410F48FDF7AA
:1044700015FA2A4640210E48FDF710FA2A468021F7
:104480000B48FDF70BFA2A464FF480710848FDF7F8
:1044900005FA2A464FF400710548FDF7FFF9A570AB
:1044A0009CE700BFBC54002000080140000C014004
:1044B00000100140F8550020BE5600204C56002048
:1044C000045600207C5400207D700008F853002022
:1044D000785400207C5600202DE9F04FB94B93B062
:1044E0000EAC0FCB84E80F000024B74D23464FF0ED
:1044F000FF32214628688DF828408DF829400B941A
:10450000FFF7C0F805940995002309984FF0FF3292
:1045100019460068FFF7B6F80128F5D1AB4D6B7F5F
:104520002C70062B23D9AA4E04223146B3680820EA
:10453000013341F8083F6C776C7000F035FD0520C1
:10454000FFF7A4FC3146F3680422013341F80C3F25
:104550000C2000F029FD0520FFF798FCAB7E013B05
:10456000052B6AD8DFE803F0060D4F575E6501336F
:104570006B77F3E701238DF829408DF828309B46AF
:1045800006E002234FF0010B8DF828308DF829400A
:1045900000214FF0FF090E464FF0010A9DF82870E8
:1045A0009DF8293095F81B80FB1895F800C0029300
:1045B000029ACBB2934242DB0EB185F800C02E784E
:1045C000002E40F02B82824904228B6808200133A0
:1045D00041F8083F6E700E960F96109611966E7702
:1045E00000F0E2FC0520FFF751FC7A4A7A49D36AD1
:1045F0007A480133D362012301960093C8223346DF
:10460000FFF75FFA80E701234FF0020B8DF82830A7
:104610008DF82930BCE701238DF8283002238DF86E
:104620002930ACE7022301228DF828308DF82920AB
:10463000A5E702238DF82830F1E76C7064E7634A40
:1046400012AF02EB4302D0895A0007EB020E5F4F14
:104650002EF8180C3A44B2F806E0AEEB000212B2A3
:10466000002AB8BF524212B2424512AA134409DDD1
:10467000012670452CBF22465246B44603F81C2C36
:10468000013195E703F81C9CFAE7079B12A91E4429
:10469000F6B205EB4603DA89730019442B44B3F8EC
:1046A00006C012AB334413F91C7CACEB0200002FA4
:1046B00021F8182C00B24FEA86070DDB80EAE07E75
:1046C0000899AEEBE07E8E4523DD624536BF0122C0
:1046D00003F81C4C03F81C2C12AB334413F91C3C9C
:1046E000012B40F09E803B4B3B445E68FBF762FE33
:1046F0003146FBF7B3FEFCF777F812AB1F44069B7D
:1047000047F8100C012B7ED1002871DA47F8109C75
:1047100007E04FF0FF3203F81C2C12AB1F4447F8A0
:10472000104C0AF1010A029B5FFA8AF6B342ACD838
:104730006E78002E00F09B804FF00009284E294F24
:10474000DFF8A880029B5FFA89F29A42C0F0CC8021
:104750002A7972B99DF82810049B5943C9B202986E
:10476000D3B2984200F2E5802A6A1F4B9A4200F2C7
:10477000F480FFF77BFA81461420FFF787FBFFF7F1
:1047800075FA6B78A0EB090A5BB14FF00008474659
:10479000144B02995FFA88F28A42C0F003818F427B
:1047A000EAD36E78002E00F0228140F6B830FFF791
:1047B0006DFB2B79002B40F0D6802B6A059A1344B1
:1047C0002B62D0E05C70000804560020BC5400202E
:1047D000AC5400207C54002087700008194F00085A
:1047E0000C0000201C000020E09304002C0000209E
:1047F00004D14FF47A7347F8103C92E7404590DDBE
:1048000047F8108C8DE7069B002B8AD10028F0DB3F
:1048100002D141F28833EEE744F62063984280DD0E
:10482000E9E7F3B9B94A331D02EB83035F68FBF78D
:10483000C1FD3946FBF712FEFBF7D6FF00284FEA11
:10484000860604DA12AB1E4446F8109C69E7F9D0DC
:1048500012AB1E444045D4BF46F8100C46F8108CED
:104860005FE712AB03EB860646F8104C59E7DFF81A
:10487000B082A74F38F8261057F826000022FDF71F
:104880000DF8A44B002233F82610A34B53F8260052
:104890000136FDF703F8042EECD10E940F9410941A
:1048A00011946C779D4E7378002B40F0BB801D46B1
:1048B000DFF86C82964F38F8251057F82500002253
:1048C000FCF7ECFF934B002233F82510924B53F882
:1048D00025000135FCF7E2FF042DECD10E940F9476
:1048E0001094119474770FE69DF82830049903FB17
:1048F000012312AADBB202EB830252F8102C002A29
:104900000CDD12AA1A4412F91C2C012A09D1824882
:1049100038F8231050F82300FCF7C0FF09F1010913
:1049200010E7002AFAD1012236F8231057F82300A5
:10493000F2E70B44DBB212A8184410F91C0C002853
:1049400009DD12A800EB830353F8103C0598984248
:10495000B8BF18460590013201E76C700E940F94B1
:10496000109411946C77039B013303939DF80C30E2
:104970009B4597D99DF80C30039A04930AABD35CFE
:10498000049A02939DF828304FF0000A5343DBB29B
:104990000793EB7E42F2107808932B794FF4FA7963
:1049A0000693C0E69DF82860049906FB012612AA2A
:1049B000F6B202EB860252F8102C924514D95849EF
:1049C00053F82600002231F826100693FCF766FF04
:1049D000504B514833F82610002250F82600FCF7BF
:1049E0005DFF0137069BFFB208F10108D1E6DFF851
:1049F0003081474F38F8261057F826000022FCF780
:104A00004DFF444B002233F82610434B53F8260049
:104A10000136FCF743FF042EECD19FE700233F4D06
:104A20000393A7E700234FF0FF0918469E464FF077
:104A3000010A7779317E74760DF1380C0DF12C086E
:104A400040F2DC5B5CF823205A4519DD05EB43029C
:104A50000DF1300BD2893BF813B0A2EB0B0212B26E
:104A6000002AB8BF524212B2092A09DC0120864648
:104A70000AFA03F2114303F8089047F00407C9B299
:104A80000133042BDCD1BEF1000F00D0777100B1EF
:104A900031764FF000091D4D0BAF0DF1300819F9BB
:104AA00007A0BAF1000F1EDB0EAB53F82900FBF78D
:104AB00081FC1A4B064603EB4903D88938F81930B4
:104AC000C01A00B2FBF776FC01463046FBF77AFDD0
:104AD000BAF1010F06460CD10021FBF771FE10B1AF
:104AE00005EB89035E6009F10109B9F1040FD6D124
:104AF0000AE5BAF1000FF6D10021FBF757FE0028B6
:104B0000F1D009F1040305EB8303EBE77C540020AB
:104B10001C0000202C0000203C000020BC54002081
:104B20000C00002008B50D4E0D4D0E4C4FF4805179
:104B30003046FCF7B8FEEA7852B1012A03D111469B
:104B40002046FCF7B0FE4FF4FA70FFF79FF9EDE74F
:104B500001212046FCF7A2FEF5E700BF0008014056
:104B6000BC5400200010014070B50024864D86B072
:104B700003940494059400F0B1F9284600F078FA03
:104B80002B78022B39D002260122294620462E708E
:104B900000F00AFA0520FCF71DF82946042241F826
:104BA000084F082000F000FA0520FCF713F829460A
:104BB000324621F8024F304600F0F6F90520FCF7A6
:104BC00009F82946042241F80C4F0C2000F0ECF9BA
:104BD0000520FBF7FFFF294601222023104601F89C
:104BE000013F00F0E1F90520FBF7F4FF294604221C
:104BF00041F8044F104600F0D7F9644C0520FBF74C
:104C0000E9FF2146687800F038FA2378782B02D83B
:104C10002378002B32D101230022237048F2352360
:104C2000E262638000236361A361E36123626360E6
:104C3000A360E3602361A284E28422856285E36A43
:104C40001022013351496878E36200F0ADF9082081
:104C5000FBF7C0FF6878102210304D49C0B200F059
:104C6000A3F90820FBF7B6FF6878102220304949E5
:104C7000C0B200F099F90820FBF7ACFF0520FBF764
:104C8000A9FF237803A8782B84BF01232370FBF7A7
:104C9000B3FF049A039B40481344059A13443F4AC8
:104CA000D38201221146FCF7F9FD6420FBF792FF45
:104CB000002201213848FCF7F1FD207800F092F83D
:104CC000032200210120FEF7A1FB354A106020B12C
:104CD00000231A461946FEF7BDFB032200210120DE
:104CE000FEF794FB2F4A106020B100231A461946A4
:104CF000FEF7B0FB00240126234601940096C8224B
:104D000029492A48FEF7DDFE234601940096C82271
:104D100027492848FEF7D5FE2346019400964FF414
:104D2000007225492548FEF7CCFE03230194009329
:104D30004FF42F72234622492248FEF7C2FE234633
:104D4000019400964FF448721F492048FEF7B9FEBF
:104D5000224680210220FEF759FB1D4B18606B682C
:104D600033446B6000F002F904221A49104600F047
:104D70001BF9324618491948FDF77FFE1848FCF721
:104D800021F906B070BD00BFAC5400207C54002057
:104D90008C5400209C54002000100140BC54002082
:104DA00004560020005600208E700008254B000895
:104DB00094700008015A000899700008C542000864
:104DC000A270000875540008AA700008D9440008B1
:104DD00020570020B0540020245700207C5600208B
:104DE0004C5600207FB500224FF4006104AD354CD5
:104DF0000646354805F80D2D01920292ADF80C20BB
:104E0000FCF74CFD3220FBF7E5FE4FF40053072280
:104E10002E492046FDF776FD6423012229462046CF
:104E2000FDF7CCFDC820FBF7D5FE9DF803304F2BD6
:104E30000FD04FF4964320466360FDF735FD4FF4E5
:104E40000053072221492046FDF75CFDC820FBF7EF
:104E5000C1FE4FF4005306221D491A48FDF752FDCA
:104E6000C820FBF7B7FE0A224FF400531949154832
:104E7000FDF748FDC820FBF7ADFE73B2002BCCBF99
:104E800032460122144901A800F0AAFF4FF4005352
:104E9000C2B201A90B48FDF735FDC820FBF79AFE09
:104EA00001224FF400610848FCF7F8FC3220FBF7C0
:104EB00091FE4FF4964303486360FDF7F5FC04B0A0
:104EC00070BD00BF7C56002000080140B070000893
:104ED000B8700008BF7000087D70000801210D4BFC
:104EE000002219710621997628211A705A70DA70F9
:104EF0005A71DA801A815A819A81DA811A825A8229
:104F00009A82DA821A765A76D9761A775A77DA83BB
:104F10001A627047BC54002008B5104C102210498A
:104F2000607800F041F80820FEF7B0FF60781022AA
:104F300010300C49C0B200F037F80820FEF7A6FF89
:104F40006078102220300849C0B200F02DF8082007
:104F5000FEF79CFF0020FEF7E1FDDFE7AC540020E8
:104F60007C5400208C5400209C540020062337B52C
:104F70000B4D02AC04F8013D284600220121FCF74C
:104F80008DFC4FF40053214601220648FDF702F93B
:104F9000012228461146FCF781FC03B030BD00BF5A
:104FA000000C0140C856002070B5144686B0064675
:104FB0000D46FFF7DBFF102C27D81222002101A895
:104FC00000F005FF02238DF8043000238DF8056002
:104FD000DAB2944213D8002201210D48FCF75EFC9E
:104FE0004FF40053A21C01A90A48FDF7D3F801228F
:104FF00007481146FCF752FC002006B070BDE95C82
:1050000001AA1A4491700133E2E70120F5E700BFDD
:10501000000C0140C85600202DE9F3410024032371
:105020000F469046104D114E8DF805002246284639
:1050300001218DF80430FCF731FC01A94FF4005335
:1050400002223046FDF7A6F84FF400534246394697
:105050003046FDF745FA012228461146FCF71EFCB2
:10506000204602B0BDE8F081000C0140C856002087
:10507000014610220020FFF7CFBF3022FFF7CCBF40
:10508000034B0360034B0B6080231360704700BF2A
:10509000A4530020A4510020382230B59DB00DEB60
:1050A0000200002100F093FE1422002101A800F06C
:1050B0008EFE2022002106A800F089FE4FF48033E6
:1050C00002240125109317934FF4E0130EA81893B0
:1050D0000E9513951694FCF7EBFB0F234FF48062AB
:1050E00001930023214601A803930492059302949F
:1050F000FCF72CFE4FF4004306A808930694FCF737
:10510000F7FE024B1D601DB030BD00BF7000424273
:1051100080B5914D90B0FBF739FDFFF7BDFF102230
:10512000002108A800F053FEAB69002243F02003E1
:10513000AB61AB6940F2C13103F020030193019BE5
:10514000AB69864843F01003AB61AB69002403F000
:1051500010030293029BAB69012643F00403AB6189
:10516000AB69022703F004030393039BAB694FF081
:10517000030843F00803AB61AB694FF0200903F06B
:1051800008030493049BFCF789FB01223021734838
:10519000FCF784FB012203217148FCF77FFB00220E
:1051A0004FF470416E48FCF779FB01224FF4006127
:1051B0006C48FCF773FB00224FF480516948FCF700
:1051C0006DFB40F2C13308A96448089309960A941C
:1051D0000B96FCF77DFA302308A9604808930996DE
:1051E0000A940B97FCF774FA08A95D48CDF8208063
:1051F00009960A940B97FCF76BFA4FF4406308A9E1
:105200005748089309940A94FCF762FA4FF47043E4
:1052100008A95348089309960A940B96FCF758FA84
:105220004FF4006308A94F48089309960A940B9617
:10523000FCF74EFA4FF4805308A94A4808930996A0
:105240000A940B97FCF744FA6B69224633436B616F
:105250006B690521334000930E20009BFCF71AF880
:105260000E20FCF74BF84A4621460DEB09003E4D57
:1052700005940694079400F0AAFD3C4B28462B6049
:105280004FF48073AB604FF46023EC60EB616C61B2
:105290006C602E61FBF716FE05A92846059406965C
:1052A0000794FBF731FD06234FF0040A0A934FF4ED
:1052B000E0430DEB090128460F9308940996CDF8B9
:1052C00030A00E940D940B94FBF7E6FE0DEB090154
:1052D000284608960997FBF7DFFE0DEB09012846E3
:1052E0000897CDF82480FBF7D7FE0DEB090128467F
:1052F000CDF82080CDF824A0FBF7CEFE4FF4165356
:105300001B481C4A846080E80C000C23C460436185
:1053100004618461C461FDF7C7FA4FF482731648D3
:105320001649846080E80A004FF4007383610A2301
:10533000C460C36204614461C0F81C9004624462AA
:105340008462FCF7EAFE4FF4FA60FBF743FCFFF7D8
:105350000BFCFDF71FFDFEE70010024000100140AE
:10536000000C0140000801404C5600200024014080
:105370007C56002000380140C85600200030014013
:105380000268144B13B59A4222D1134B1A780D2A96
:1053900019D0124C12492378CA540133DBB2802B46
:1053A00008BF00230A2A23700DD122780C490D482A
:1053B00000F002FD0C48002301AA0A490068FEF72C
:1053C000FFF800232370012203490848FDF755FB2D
:1053D00002B010BD0038014024570020795400204D
:1053E000F454002074550020205700207C560020E3
:1053F00038B502680C4B05469A4213D10121FBF7E0
:105400003BFE0A4C022120802846FBF735FE032193
:1054100060802846FBF730FE0421A0802846FBF779
:105420002BFEE08038BD00BF00240140F85500206D
:1054300070470022134610B5D4B2A14204D80A2BFB
:1054400014BF1846092010BD012C18BF845C02F15E
:1054500001021CBF6340DBB2EEE7431E002013F8DD
:10546000012F01308A42C0B201D10C2801D8802816
:10547000F5D170472DE9F047B84F00253C46AAB05A
:10548000802200210AA8B64E00F0A1FCADF82450FD
:105490008DF81E508DF81F50ADF826508DF8205015
:1054A0008DF82350DFF8FC8200234FF0FF320AA969
:1054B000D8F80000FEF7E6F80128F5D10023FB83B9
:1054C0009DF828306D3B0B2BECD801A252F823F04D
:1054D0009D550008A5540008015500086B550008AB
:1054E000A5540008A554000839570008A554000821
:1054F000A5540008A5540008A5540008BF5800088A
:1055000009AA98490AA800F08FFCE28ABDF8243065
:105510009A42C7D10023237763786279012B08BFB1
:105520002377910742BF237F43F00203237753077A
:1055300042BF237F43F003032377217F8A4B5A889E
:10554000E3890391A18A92B20291618A0191218A31
:1055500000918649864800F043FC864BC2B28449DC
:1055600085481A70FDF7B0FA9CE709AA83490AA892
:1055700000F05AFCE28ABDF824309A4292D1804968
:10558000794BC8685A880B780390886892B2029069
:1055900048680190498800917A49DBE70DF11F03C3
:1055A00001930DF11E030DF123020093764909AB1F
:1055B0000AA800F039FC0A210AA8FFF74EFF0146AD
:1055C0000AA8FFF736FF9DF8233083427FF46AAFC5
:1055D0009DF83330E28A8DF81F30BDF824309A42AE
:1055E0007FF460AF0023237763785F4A012B08BF05
:1055F00023776379DFF87C9113F0020A52880ED08A
:1056000092B262495A4800F0EBFB5949C2B25A487B
:1056100089F80020FDF758FA0023637142E713F080
:1056200004080ED092B25A49514800F0D9FB5049B3
:10563000C2B2514889F80020FDF746FA84F805A067
:1056400030E7617EE3890591217E92B20491217F4A
:1056500047480391A18A0291618A0191218A0091B0
:105660004C4900F0BDFB4249C2B2434889F80020D2
:10567000FDF72AFA9DF81F2095423FF413AF637996
:10568000012B3FF40FAF12F0010218BF01224FF4BB
:105690008051414884F80180FCF700F99DF81F20F3
:1056A0004FF4005112F0020218BF01223A48FCF7F1
:1056B000F5F89DF81F204FF4804112F0040218BF46
:1056C00001223548FCF7EAF89DF81F204FF400410D
:1056D00012F0080218BF01222F48FCF7DFF89DF8EE
:1056E0001F20402112F0100218BF01222B48FCF7A6
:1056F000D5F89DF81F20802112F0200218BF01224A
:105700002648FCF7CBF89DF81F204FF4807112F06B
:10571000400218BF01222148FCF7C0F89DF91F3054
:105720004FF40071002BB4BF012200221B48FCF78C
:10573000B5F89DF81F50B5E69DF82930782B33D188
:1057400009AA17490AA800F06FFBE28ABDF82430C5
:105750009A427FF4A7AE00236370A3E6BC540020F6
:1057600000080140CA7000087C540020D270000874
:10577000F8530020785400207C560020ED7000087B
:10578000AC540020F5700008117100082171000868
:105790002971000833710008000C0140001001401D
:1057A00054710008205700202C2B7FF47BAE0DF1A4
:1057B000220305930DF12103049308AB0393804B5F
:1057C00080499A1E01921A1F02930092063B09AA71
:1057D0000AA800F029FBE28ABDF824309A427FF43F
:1057E00061AE6379002B7FF45DAE9DF82020312AF5
:1057F0001CBF01222271744A04BF2371236202F18B
:10580000080110880232B0F57A6F84BFD08822F880
:10581000020C8A42F5D19DF821209DF82210A2F1B8
:105820003000C0B23129A0761BD11E21E176A2F151
:105830003201C9B204293FF635AE06281AD1604AB2
:1058400002F1080132F8020F20B132F8080C08B159
:105850000133DBB29142F5D1042B7FF423AE012357
:105860007AE7322901D13C21E0E733290CBF5A21E4
:105870001921DBE7343A012A0DD8514A911D32F83B
:10588000020F20B132F8080C08B10133DBB28A42B2
:10589000F5D1032BE1E70129E1D8E3891BB1E388C6
:1058A000003318BF0123228A002A3FF4FBAD22896E
:1058B000002A3FF4F7AD002B3FF4F4ADCFE794F8A6
:1058C00003A0BAF1010F7FF4EDAD9DF829303F2B15
:1058D0000DD13E4A3E490AA800F0A6FA3D4B3E498A
:1058E0005A883E48E38A92B200F07AFA35E6632B92
:1058F0007FF4D8AD0DF1260309AA39490AA800F0B2
:1059000093FAE28ABDF824309A427FF4CBAD0222AA
:105910004FF00008DFF8BC909DF82630314989F837
:105920000030D9F82C3010460133C9F82C304B88A0
:10593000013321F8023FFFF737FB0520FEF7A6FAF7
:105940004346C8222849CDF80480CDF800A0274856
:10595000FEF7B7F8B9F80220254992B21F4800F0C7
:105960003FFADFF89890C2B21C49224889F800201B
:10597000FDF7AAF8C820FEF789FA42464FF4006105
:105980003046FBF78BFF3220FEF780FABDF8262069
:105990001949124800F024FA1049C2B2154889F892
:1059A0000020FDF791F83220FEF770FA52464FF4CE
:1059B00000613046FBF772FF84F8038072E500BF98
:1059C000C85400205D710008C25400207E5400209D
:1059D0007E7100087C54002086710008F853002076
:1059E00094710008AC54002087700008194F00081B
:1059F000A17100087C5600207D70000878540020BA
:105A00002DE9F04101251C4FDFF87C801B4E4FF43F
:105A100080611948FBF73CFF8542044627D00120EE
:105A2000FEF734FA4FF480613846FBF731FF8542C8
:105A300004461CD0D8B9012502464FF40061304617
:105A400088F80350FBF72AFF3220FEF71FFA0822DE
:105A50000B494FF400530B48FCF754FF3220FEF77C
:105A600015FA2A464FF400613046FBF717FF052070
:105A7000FEF70CFA2546CAE7000C01400008014079
:105A8000AE7100087C560020BC540020114B07B5B5
:105A90009A690F2142F001029A619A696FF0010040
:105AA00002F001020092009ADA6942F08052DA6153
:105AB000DB69002203F080530193019BFBF7EAFBB3
:105AC000054A536823F0E06343F00073536003B06A
:105AD0005DF804FB001002400000014010B50446D0
