:020000040800F2
:10000000000001206958000885570008875700083C
:10001000895700088B5700088D5700080000000022
:10002000000000000000000000000000E1290008BE
:100030008F57000800000000712A0008915700083F
:10004000AD580008AD580008AD580008AD5800087C
:10005000AD580008AD580008AD580008AD5800086C
:10006000AD580008AD580008AD580008AD5800085C
:10007000AD580008AD580008A1570008AD58000859
:10008000AD580008AD580008AD570008AD5800083D
:10009000AD580008AD580008AD580008AD5800082C
:1000A000AD580008AD580008AD580008AD5800081C
:1000B000AD580008AD580008AD580008AD5800080C
:1000C000AD580008AD580008AD580008AD580008FC
:1000D000AD580008C9570008AD580008AD580008D1
:1000E000D5570008AD580008AD58000800000000C2
:1000F0000000000000000000000000000000000000
:100100000000000000000000AD580008AD580008D5
:10011000AD580008AD580008AD580008AD580008AB
:10012000AD580008AD580008AD580008AD5800089B
:10013000AD5800080000000000000000AD580008A5
:10014000AD580008AD580008AD580008AD5800087B
:10015000000000000000000000000000000000009F
:10016000000000000000000000000000000000008F
:10017000000000000000000000000000000000007F
:10018000000000000000000000000000000000006F
:10019000000000000000000000000000000000005F
:1001A000000000000000000000000000000000004F
:1001B000000000000000000000000000000000003F
:1001C000000000000000000000000000000000002F
:1001D000000000000000000000000000000000001F
:0401E0005FF8E0F1F3
:1001F00010B5054C237833B9044B13B10448AFF361
:1002000000800123237010BD2002002000000000A8
:10021000106B000808B5034B1BB103490348AFF34B
:10022000008008BD0000000024020020106B0008C0
:10023000034613F8012B002AFBD1181A0138704726
:10024000D0400B1CD1409C46203AD3401843524228
:10025000634693401843704780F0004002E000BFBF
:1002600081F0004142001FBF5FEA410392EA030FA1
:100270007FEA226C7FEA236C6AD04FEA1262D2EBEB
:100280001363C1BFD218414048404140B8BF5B42F0
:10029000192B88BF704710F0004F40F4000020F089
:1002A0007F4018BF404211F0004F41F4000121F09F
:1002B0007F4118BF494292EA030F3FD0A2F10102E9
:1002C00041FA03FC10EB0C00C3F1200301FA03F127
:1002D00000F0004302D5494260EB4000B0F5000F4A
:1002E00013D3B0F1807F06D340084FEA310102F109
:1002F0000102FE2A51D2B1F1004F40EBC25008BFBB
:1003000020F0010040EA03007047490040EB000084
:1003100010F4000FA2F10102EDD1B0FA80FCACF1B3
:10032000080CB2EB0C0200FA0CF0AABF00EBC250B2
:1003300052421843BCBFD0401843704792F0000FA0
:1003400081F4000106BF80F400000132013BB5E7F3
:100350004FEA41037FEA226C18BF7FEA236C21D069
:1003600092EA030F04D092F0000F08BF08467047CE
:1003700090EA010F1CBF0020704712F07F4F04D19C
:10038000400028BF40F00040704712F100723CBFAF
:1003900000F50000704700F0004343F0FE4040F4D9
:1003A000000070477FEA226216BF08467FEA236397
:1003B0000146420206BF5FEA412390EA010F40F482
:1003C000800070474FF0000304E000BF10F00043CE
:1003D00048BF40425FEA000C08BF704743F09643B5
:1003E00001464FF000001CE050EA010208BF7047D0
:1003F0004FF000030AE000BF50EA010208BF704757
:1004000011F0004302D5404261EB41015FEA010C6B
:1004100002BF84460146002043F0B64308BFA3F163
:100420008053A3F50003BCFA8CF2083AA3EBC25345
:1004300010DB01FA02FC634400FA02FCC2F1200264
:10044000BCF1004F20FA02F243EB020008BF20F09B
:100450000100704702F1200201FA02FCC2F1200201
:1004600050EA4C0021FA02F243EB020008BF20EAF6
:10047000DC7070474FF0FF0C1CEAD0521EBF1CEA24
:10048000D15392EA0C0F93EA0C0F6FD01A4480EA12
:10049000010C400218BF5FEA41211ED04FF00063FB
:1004A00043EA501043EA5111A0FB01310CF0004027
:1004B000B1F5000F3EBF490041EAD3715B0040EA4D
:1004C000010062F17F02FD2A1DD8B3F1004F40EB1D
:1004D000C25008BF20F00100704790F0000F0CF0F0
:1004E000004C08BF49024CEA502040EA51207F3AB4
:1004F000C2BFD2F1FF0340EAC250704740F400008F
:100500004FF00003013A5DDC12F1190FDCBF00F07F
:1005100000407047C2F10002410021FA02F1C2F12D
:10052000200200FA02FC5FEA310040F1000053EAC9
:100530004C0308BF20EADC70704792F0000F00F017
:10054000004C02BF400010F4000F013AF9D040EA1D
:100550000C0093F0000F01F0004C02BF490011F4B1
:10056000000F013BF9D041EA0C018FE70CEAD153AF
:1005700092EA0C0F18BF93EA0C0F0AD030F0004C2F
:1005800018BF31F0004CD8D180EA010000F00040E3
:10059000704790F0000F17BF90F0004F084691F0A1
:1005A000000F91F0004F14D092EA0C0F01D14202DB
:1005B0000FD193EA0C0F03D14B0218BF084608D1A4
:1005C00080EA010000F0004040F0FE4040F40000EE
:1005D000704740F0FE4040F4400070474FF0FF0C81
:1005E0001CEAD0521EBF1CEAD15392EA0C0F93EAC8
:1005F0000C0F69D0A2EB030280EA010C49024FEA1A
:10060000402037D04FF0805343EA111143EA1013D2
:100610000CF000408B4238BF5B0042F17D024FF48A
:10062000000C8B4224BF5B1A40EA0C00B3EB510F65
:1006300024BFA3EB510340EA5C00B3EB910F24BF4E
:10064000A3EB910340EA9C00B3EBD10F24BFA3EBD3
:10065000D10340EADC001B0118BF5FEA1C1CE0D19B
:10066000FD2A3FF650AF8B4240EBC25008BF20F04E
:10067000010070470CF0004C4CEA50207F32C2BFA2
:10068000D2F1FF0340EAC250704740F400004FF03F
:100690000003013A37E792F0000F00F0004C02BF70
:1006A000400010F4000F013AF9D040EA0C0093F03A
:1006B000000F01F0004C02BF490011F4000F013B94
:1006C000F9D041EA0C0195E70CEAD15392EA0C0FFC
:1006D00008D142027FF47DAF93EA0C0F7FF470AF34
:1006E000084676E793EA0C0F04D14B023FF44CAF77
:1006F00008466EE730F0004C18BF31F0004CCAD10C
:1007000030F000427FF45CAF31F000437FF43CAF47
:100710005FE700BF4FF0FF3C06E000BF4FF0010C69
:1007200002E000BF4FF0010C4DF804CD4FEA40024B
:100730004FEA41037FEA226C18BF7FEA236C11D095
:1007400001B052EA530C18BF90EA010F58BFB2EB48
:10075000030088BFC81738BF6FEAE17018BF40F0C8
:10076000010070477FEA226C02D15FEA402C05D17C
:100770007FEA236CE4D15FEA412CE1D05DF8040B01
:10078000704700BF844608466146FFE70FB5FFF794
:10079000C9FF002848BF10F1000F0FBD4DF808ED4C
:1007A000FFF7F4FF0CBF012000205DF808FB00BF3D
:1007B0004DF808EDFFF7EAFF34BF012000205DF897
:1007C00008FB00BF4DF808EDFFF7E0FF94BF0120E4
:1007D00000205DF808FB00BF4DF808EDFFF7D2FFE1
:1007E00094BF012000205DF808FB00BF4DF808ED24
:1007F000FFF7C8FF34BF012000205DF808FB00BFF1
:100800004FEA4002B2F1FE4F0FD34FF09E03B3EB1D
:1008100012620DD94FEA002343F0004310F0004F5D
:1008200023FA02F018BF404270474FF000007047B3
:1008300012F1610F01D1420205D110F0004008BF52
:100840006FF0004070474FF00000704753B94AB94D
:10085000002908BF00281CBF4FF0FF314FF0FF30C8
:1008600000F07AB9ADF1080C6DE904CE00F006F89D
:10087000DDF804E0DDE9022304B070472DE9F0471C
:100880008C460E460446089D002B50D18A421746DE
:100890006CD9B2FA82FEBEF1000F0BD0CEF1200C63
:1008A00001FA0EF620FA0CFC02FA0EF74CEA060CDE
:1008B00000FA0EF43A0CBCFBF2F9BBB202FB19CC05
:1008C00009FB03FA4FEA144848EA0C46B2450AD934
:1008D000F61909F1FF3180F02581B24540F22281FD
:1008E000A9F102093E44A6EB0A06B6FBF2F002FBB0
:1008F000106600FB03F3A4B244EA0644A34209D9FC
:10090000E41900F1FF3280F00B81A34240F208812C
:1009100002383C440021E41A40EA0940002D62D02C
:10092000002324FA0EF42C606B60BDE8F0878B4244
:1009300007D9002D55D0002185E841000846BDE8C3
:10094000F087B3FA83F1002940F08F80B34202D3DD
:10095000824200F2FC80841A66EB03060120B44652
:10096000002D40D085E81010BDE8F08712B90127AE
:10097000B7FBF2F7B7FA87FEBEF1000F35D10121C0
:10098000F61B4FEA174C1FFA87F8B6FBFCF20CFB7C
:10099000126608FB02F0230C43EA0646B04207D970
:1009A000F61902F1FF3302D2B04200F2D2801A46A9
:1009B000361AB6FBFCF00CFB106608FB00F8A3B27D
:1009C00043EA0644A04507D9E41900F1FF3302D2F7
:1009D000A04500F2B9801846A4EB080440EA0240A2
:1009E0009CE729462846BDE8F08707FA0EF7CEF1C6
:1009F000200326FA03F24FEA174CB2FBFCF11FFA70
:100A000087F80CFB112206FA0EF620FA03F301FB1D
:100A100008F933431E0C46EA0246B14500FA0EF4CB
:100A200009D9F61901F1FF3280F08C80B14540F20E
:100A3000898002393E44A6EB0906B6FBFCF00CFBAC
:100A4000106200FB08F99EB246EA0246B14507D99A
:100A5000F61900F1FF3371D2B1456FD902383E4427
:100A6000A6EB090640EA01418FE7C1F1200722FA0F
:100A700007F88B4048EA030326FA07F44FEA134EBF
:100A8000B4FBFEF91FFA83FC0EFB19448E4020FADA
:100A900007F809FB0CFA48EA06084FEA184646EA46
:100AA0000444A24502FA01F200FA01F608D9E4185A
:100AB00009F1FF3044D2A24542D9A9F102091C44F0
:100AC000A4EB0A04B4FBFEF00EFB104400FB0CFC8C
:100AD0001FFA88F848EA0444A44507D9E41800F14D
:100AE000FF3E29D2A44527D902381C4440EA0940D8
:100AF000A0FB0289A4EB0C0CCC45C246CE4615D314
:100B000012D055B1B6EB0A036CEB0E0606FA07F7E6
:100B1000CB401F43CE402F606E600021BDE8F087C0
:100B20001046F7E68946DEE64645EAD2B8EB020A09
:100B300069EB030E0138E4E77046D7E718468FE704
:100B40008146BDE7114676E702383C4444E7084653
:100B500006E7023A3E442BE7704700BF38B50E4B1C
:100B6000054618784FF47A73B3FBF0F30B4A10681C
:100B7000B0FBF3F000F0DAFB044658B90F2D09D8AA
:100B8000024629464FF0FF3000F090FB044B204610
:100B90001D6038BD012038BD000000204C00002041
:100BA00004000020074A08B51368032043F010032F
:100BB000136000F069FB0F20FFF7D0FF04F006FD83
:100BC000002008BD00200240034A044B11681B7836
:100BD0000B441360704700BF9C52002000000020AF
:100BE000014B1868704700BF9C52002038B504467E
:100BF000FFF7F6FF0546631C1EBF044B1B78E41885
:100C0000FFF7EEFF401B8442FAD838BD00000020F9
:100C1000044B1B680360044B1B684360034B1B6859
:100C200083607047E8F7FF1FECF7FF1FF0F7FF1F27
:100C300070477047036810B55A680446900627D578
:100C40001A68910724D5A26AD2065EBFA26A42F44E
:100C50000072A2629A6802F46022B2F5602F10D18D
:100C6000E26872B95A6822F020025A60A36A23F43B
:100C70008073A362A36ADB045EBFA36A43F001032F
:100C8000A3622046FFF7D4FF6FF0120223681A60B8
:100C900023685A68100630D51A6851072DD5A26A04
:100CA000D2065EBFA26A42F40052A2629A6802F4BF
:100CB000E042B2F5E04F0AD05A68500516D49A685F
:100CC00002F46022B2F5602F10D1E26872B95A685E
:100CD00022F080025A60A36A23F48053A362A36ABD
:100CE000D9055EBFA36A43F00103A362204604F066
:100CF00095F86FF00C0223681A6023685A68520650
:100D00000DD51B68DB070AD5A36A204643F4803360
:100D1000A362FFF78EFF6FF0010223681A6010BD17
:100D2000002373B5019390F82430012B74D0012374
:100D30004D6880F82430062D02684FEA85030C6860
:100D400025D82B441F25566B053B9D4026EA0505FB
:100D500004FA03F32B435363092C4FEA44038D68D1
:100D60002FD907262344D1681E3B9E4021EA060165
:100D700005FA03F30B43D360A4F11003012B2BD925
:100D80000023002280F82420184602B070BD0C2DEC
:100D90000BD82B441F25166B233B9D4026EA0505E7
:100DA00004FA03F32B431363D6E72B441F25D66ABB
:100DB000413B9D4026EA050504FA03F32B43D36229
:100DC000CAE70726116923449E4021EA060105FA75
:100DD00003F30B431361CFE7104B9A4216D193688C
:100DE0001B02CDD49368102C43F400039360C7D149
:100DF0000B4B0C4A1B68B3FBF2F20A2353430193DB
:100E0000019B002BBCD0019B013BF8E7836A43F0B8
:100E1000200383620123B4E70223B5E700240140E5
:100E20004C00002040420F00002373B5019303687B
:100E300004469A68D20702D5002002B070BD9A68B5
:100E400042F001029A60124B124A1B68B3FBF2F3A4
:100E50000193019BC3B9FFF7C3FE064623689D6853
:100E600015F00105E8D1FFF7BBFE801B0228F5D97C
:100E7000A36A84F8245043F01003A362E36A0120BC
:100E800043F00103E362D8E7019B013BE0E700BFC9
:100E90004C00002040420F0038B5036804469A68B1
:100EA000D20701D4002038BD9A6822F001029A606E
:100EB000FFF796FE054623689B68DB07F2D5FFF730
:100EC0008FFE401B0228F6D9A36A012043F01003CD
:100ED000A362E36A43F00103E36238BD70B50446E0
:100EE000002871D0836A23B9C36280F8243004F0EB
:100EF00095FB2046FFF7D0FFA36A13F0100FA36AFB
:100F000064D1002862D1E16923F48853626823F038
:100F1000020343F002030A43A168A362E368B1F548
:100F2000807F42EA430238D0012914BF06464FF4BD
:100F300080766569012D07D1002B30D1A369013B73
:100F400046EA433545F400662368B1F5807F5D6865
:100F500025F4694545EA06055D609E681D4D05EA74
:100F6000060545EA02059D6001D0012920D12169CD
:100F700001390905DD6A25F470052943D9629968AC
:100F8000154B0B409A4215D10023E362A36A23F06C
:100F9000030343F00103A36270BD0E46C9E7A36AD1
:100FA00043F02003A362E36A43F00103E362CBE76B
:100FB0000021DFE7A36A23F0120343F01003A362CA
:100FC000E36A43F00103E362012070BD43F01003C4
:100FD000A362F9E7FDF7E1FFFE0E1FFF90F8243052
:100FE00010B5012B04464ED0012380F82430FFF7C2
:100FF0001BFF002843D1A36A244A23F4405323F063
:10100000010343F48053A3622368934205D1A2F500
:101010008062526812F4702F29D1A26A22F48012E1
:10102000A262A26A12F4807208BFE262002284F80F
:1010300024206FF004021A605A6842F080025A605D
:101040005A68520520D49A6802F4E042B2F5E04FA3
:1010500011D10E4A934205D1A2F58062526812F472
:10106000702F08D19A6842F402129A6010BDA26AE9
:1010700042F48012D4E79A6842F40042F5E7002374
:1010800084F8243010BD022010BD00BF00280140AC
:101090000329036807D0042903D0022905D1186C5D
:1010A0007047986C7047586C7047D86B7047000059
:1010B000F7B50246002092F824300190012B00F091
:1010C000D8800127D2F808E082F824704E681368AF
:1010D0000D68BEF1000F7BD1BE4273D170469C6B90
:1010E000A40DA40544EAC5349C639C68E40707D4B6
:1010F0009C68CF6924F4E04424F001043C439C60E4
:101100008C69012C0DD1CF69B7F5E04F17BF906AFC
:101110005F6840F02000906212BF204647F480676D
:101120005F604F69012F05D1002C74D15C6844F4D5
:1011300080545C60092D4FEA4504D1F808E070D96D
:101140004FF0070C2C44DF681E3C0CFA04FC27EA25
:101150000C070EFA04F43C43DC60A5F11004012CEA
:1011600098BF9F68DFF81CE19CBF47F400079F60B1
:10117000022ECF6862D0032E66D0012E6AD1596943
:1011800001EA0E0139435961012C16D83A498B42C4
:1011900069D19968090210D49968102D41F40001B1
:1011A00099600AD1354B36491B68B3FBF1F10A232C
:1011B0004B430193019B002B52D1002382F8243032
:1011C00003B0F0BD946A384644F0200494628CE782
:1011D0000F69D3F838E0F41B04EB8404BE4204F139
:1011E0000F0410D807F1FF3C05FA04F747EA0C5743
:1011F0004FF01F0C0CFA04F444F440142EEA0404DB
:101200003C439C6371E71F2707FA04F444F440143D
:101210002EEA0404F5E7906A40F020009062384618
:1012200088E74FF0070C1F692C440CFA04FC27EAEE
:101230000C070EFA04F43C431C618EE7996901EA3D
:101240000E01394399619FE7D96901EA0E013943DB
:10125000D96199E7196A01EA0E013943196293E7E6
:10126000019B013BA5E7936A012043F020039362B1
:10127000A3E70220A4E700BF002401404C000020A7
:1012800040420F0000F0FFFF074A0002D36800F45D
:10129000E06023F4E0631B041B0C43F0BF6343F4E2
:1012A00000330343D360704700ED00E0174B30B5C7
:1012B000DC68C4F30224C4F10703251D042B28BFF6
:1012C0000423062D4FF0010598BF002405FA03F30F
:1012D00003F1FF3388BF033C1940A14005FA04F431
:1012E000013C2240002842EA01024FEA0212AFBF4D
:1012F00000F16040064B00F00F00D2B2A5BFD2B2A1
:1013000000F561401A5480F8002330BD00ED00E084
:1013100014ED00E00123420900F01F0003FA00F081
:10132000014B43F82200704700E100E00138B0F1C2
:10133000807F0AD2F021064B064A586082F82310BB
:101340000020072298601A6070470120704700BF94
:1013500010E000E000ED00E010B5002832D0016898
:10136000194B1424994225D8184AA3F207430A447A
:10137000B2FBF4F2920002648468C36343680A68B3
:101380002343C46822F47F522343046922F03002CD
:1013900023434469234384692343C4692343134398
:1013A0000B600122002380F82120836380F8203025
:1013B000184610BD064B0B44B3FBF4F39B000364CB
:1013C000044BD9E7012010BD07040240F8FFFDBF20
:1013D000F8FBFDBF00040240F0B590F82040012C5E
:1013E00035D0012490F8215080F82040A5424FF0DC
:1013F00000064FF0020428D180F82140046886637B
:101400002668076C26F001062660C66BBD40756035
:10141000636043680568102BC36A0BBFA260A160BC
:10142000E160E2604BB1236843F00E0323602B6858
:10143000002043F001032B60F0BD236823F0040378
:101440002360236843F00A03F0E780F8206002205D
:10145000F0BD000090F8213010B5022B03D004231A
:101460008363012010BD03681A6822F00E021A601F
:101470001A6822F001021A60294A934224D902F51F
:101480006272934219D01432934218D014329342AC
:1014900017D0143293420CBF4FF480534FF4803373
:1014A000204A53600123002480F82130436B80F8E8
:1014B00020409BB39847204610BD0123F0E710233E
:1014C000EEE74FF48073EBE717498B4216D01431E7
:1014D0008B4215D014318B4214D014318B4214D06E
:1014E00014318B4214D014318B4214D0934214BF68
:1014F0004FF480334FF080730C4AD2E70123FBE7AF
:101500001023F9E74FF48073F6E74FF48053F3E7C5
:101510004FF48033F0E74FF48013EDE7184610BD29
:101520008000024000040240080002400000024027
:1015300070B40425C66B026C34680368954025427C
:10154000196855D04D0753D51A6896065EBF1A68BC
:1015500022F004021A60604A93421FD902F56272B7
:10156000934214D01432934213D01432934212D0C7
:10157000143293420CBF4FF480434FF48023574AF8
:101580005360C36A002B00F0A58070BC1847042389
:10159000F5E74023F3E74FF48063F0E750498B42CF
:1015A00016D014318B4215D014318B4214D0143123
:1015B0008B4214D014318B4214D014318B4214D08E
:1015C000934214BF4FF480234FF08063454AD7E71E
:1015D0000423FBE74023F9E74FF48063F6E74FF479
:1015E0008043F3E74FF48023F0E74FF48003EDE707
:1015F00002259540254257D08D0755D51A68940687
:1016000006D41A6822F00A021A60012280F821200A
:10161000314A93421ED902F56272934213D01432BA
:10162000934212D01432934211D0143293420CBF21
:101630004FF400534FF40033284A5360002380F8DE
:101640002030836A9EE70223F6E72023F4E74FF475
:101650000073F1E722498B4216D014318B4215D02A
:1016600014318B4214D014318B4214D014318B427C
:1016700014D014318B4214D0934214BF4FF4003372
:101680004FF00073174AD8E70223FBE72023F9E75E
:101690004FF40073F6E74FF40053F3E74FF40033D1
:1016A000F0E74FF40013EDE708259540254211D0EF
:1016B00009070FD5196821F00E011960012303FAFB
:1016C00002F27260836380F82130002380F82030BA
:1016D000036B57E770BC7047800002400004024073
:1016E0000800024000000240114AD36813F01003C2
:1016F00005D01049CB6943F00203CB611023D268B7
:10170000500706D50B4943F00403CA6942F00102B1
:10171000CA61074AD169C90708D50648C16941F0BD
:101720000401C161D16921F00101D161D360704729
:1017300000200240A0520020064B186910F08000E3
:1017400007D0054A5A6002F188325A601869C0F31E
:10175000C01070470020024023016745034A002063
:10176000136943F080031361704700BF00200240FB
:10177000F8B50646FFF734FA114C07462546E368EC
:10178000D80712D4E368990644BF2023E360EB68CE
:10179000DA0606D4EB69DB0703D4E86810F004002E
:1017A00002D0FFF7A1FF0120F8BD731CE7D00EB9EE
:1017B0000320F8BDFFF714FAC01B8642DFD2F7E71B
:1017C000002002402DE9F84F1F4C9946237E054624
:1017D000012B0F46904633D001234CF25030237634
:1017E000FFF7C6FF40BB012D03D0022D0CBF022521
:1017F00004250026B246DFF854B03201404649467F
:10180000FEF71EFDC4F81CA0DBF8103080B243F0D8
:101810000103CBF8103027F816004CF25030FFF7D8
:10182000A7FFDBF8103023F00103CBF8103018B914
:101830000136F3B29D42E0D800232376BDE8F88F4D
:101840000220BDE8F88F00BFA05200200020024017
:101850000022064BDA61064B1A6942F004021A6153
:101860001A6942F040021A61704700BFA05200207E
:10187000002002400022064BDA61064B1A6942F052
:1018800002021A6158611A6942F040021A617047F7
:10189000A0520020002002402DE9F041234D0746D0
:1018A0002B7E8846012B3DD0012403682C76022B29
:1018B0004CF2503013D1FFF75BFF20B10120002321
:1018C0002B76BDE8F081FFF7C3FF4CF25030FFF7F5
:1018D0004FFF174A136923F004031361EFE7FFF783
:1018E00047FF0028EAD14FF0FF33C8F80030204608
:1018F000BE680F4CFA68BB6803EBC2239E42DED27F
:101900003046FFF7B7FF4CF25030FFF731FF236945
:1019100023F00203236110B1C8F80060CFE706F599
:101920000066E7E70220BDE8F08100BFA05200207A
:10193000002002402DE9F74F00221646654BDFF8E4
:10194000A4E1DFF8A4C14FF001080C6808FA06F81A
:1019500008EA0404A0457FD14D68122D00F0AF8045
:1019600000F28880022D00F0A7807CD8002D00F0C6
:101970008E80012D00F09E804FF00F09FF2C93BF49
:10198000824606F18045083DD0F800B092BFB50010
:10199000D0F804B0AD0009FA05F82BEA080802FAFD
:1019A00005F588BF00F1040A48EA0505CAF80050A9
:1019B000D1F804A01AF0805F4ED0474D464FAD6974
:1019C00026F0030845F00105BD61BD6908F18048B6
:1019D00005F00105019508F5803806F0030B019D1F
:1019E0004FEA8B0BD8F8085009FA0BF925EA0909D8
:1019F0003A4DA84268D005F58065A84266D005F545
:101A00008065A84264D005F58065A8420CBF032517
:101A1000042505FA0BF545EA0905C8F808501D68C4
:101A20001AF4803F14BF2543A5431D605D681AF476
:101A3000003F14BF2543A5435D609D681AF4801FD5
:101A400014BF2543A5439D60DD681AF4001F14BF31
:101A50002C4325EA0404DC600136102E7FF473AFBA
:101A600003B0BDE8F08F032D22D0112D84D1CA68B8
:101A7000043281E71A4FBD4209D012D8DFF86C90CA
:101A80004D4504D009F580394D457FF475AF8A681E
:101A9000C2B1012A0CBFC0F81080C0F8148008221F
:101AA0006AE77545F3D06545F1D0DFF84490EBE780
:101AB000002261E7CA685FE7CA6808325CE7CA6863
:101AC0000C3259E7042257E70025A2E70125A0E7D9
:101AD00002259EE70004014000100240000801407A
:101AE0000000211000003110000032100000111021
:101AF000000022108368194214BF012000207047A3
:101B00000AB1016170470904FBE7C3685940C1602D
:101B10007047704708B5044B5969014202D05861BB
:101B2000FFF7F7FF08BD00BF0004014003682DE97F
:101B3000F341DB07054614D42B689F0762D42B685A
:101B4000190700F199802B685A0700F1C380EA6AEF
:101B5000002A40F031812A6A002A40F08481002066
:101B600014E0904C636803F00C03042B07D0636807
:101B700003F00C03082B0CD16368DE0309D523683E
:101B80009C03D9D5AB68002BD6D1012002B0BDE8AB
:101B9000F081AB68B3F5803F10D1236843F4803304
:101BA0002360FFF71DF8064623689803C4D4FFF7A7
:101BB00017F8801B6428F7D90320E7E79BB923684F
:101BC00023F480332360236823F480232360FFF70A
:101BD00007F8064623689903AED5FFF701F8801B86
:101BE0006428F7D9E8E7B3F5A02F236803D143F4BD
:101BF00080232360D1E723F480332360236823F418
:101C00008023CDE7674C636813F00C0F07D063683F
:101C100003F00C03082B10D16368DA030DD423689A
:101C20009B0702D56B69012BAFD12368AA6923F00A
:101C3000F80343EAC203236081E76A695A4B6AB139
:101C400001221A60FEF7CCFF064623689F07ECD4FA
:101C5000FEF7C6FF801B0228F7D9ADE71A60FEF732
:101C6000BFFF0646236898077FF569AFFEF7B8FF08
:101C7000801B0228F6D99FE7EA694A4C4B4BDAB140
:101C800001221A60FEF7ACFF0646636A9B070DD57A
:101C90004FF4FA52464B1B68B3FBF2F3019300BFBB
:101CA000019B5A1E0192002BF9D14CE7FEF798FFD9
:101CB000801B0228E9D97FE71A60FEF791FF0646EC
:101CC000636A9F077FF53FAFFEF78AFF801B0228FC
:101CD000F6D971E7334CE369DE0024D40127E369C8
:101CE00043F08053E361E36903F080530093009B6A
:101CF000304E3368D80518D52B69012B26D1236ABD
:101D000043F001032362FEF76BFF41F28836804601
:101D1000236A9A073FD5002F3FF419AFE36923F0F8
:101D20008053E36113E70027E2E7336843F48073ED
:101D30003360FEF755FF80463368D905DCD4FEF7E3
:101D40004FFFA0EB08006428F6D935E7ABB9236A4A
:101D500041F2883823F001032362236A23F004034D
:101D60002362FEF73DFF0646236A9B07D3D5FEF7A5
:101D700037FF801B4045F7D91EE7052B236A03D1A7
:101D800043F004032362BAE723F001032362236ACA
:101D900023F00403B6E7FEF723FFA0EB0800B042F0
:101DA000B6D909E7001002400000424280044242D6
:101DB0004C000020007000404F4C6368D80308D5E9
:101DC000636803F00C03082B03D1E36AD9033FF5E2
:101DD000DCAE022A33D12368DA0006D5E36A6A6BE7
:101DE00003F0F00393427FF4D0AE0023434E336000
:101DF000FEF7F6FE074623681B011AD4E36A6A6BF6
:101E000023F0F0031343E362E36A2A6B23F4706365
:101E10001343E36201233360FEF7E2FE06462368C4
:101E20001F013FF598AEFEF7DBFE801B6428F6D954
:101E3000C2E6FEF7D5FEC01B6428DCD9BCE6002252
:101E4000E36A23F48033E3622C4B1A60FEF7C8FE8A
:101E50000646236818017FF57EAEFEF7C1FE801BA3
:101E60006428F6D9A8E6244C636803F00C03082B19
:101E70003FF48BAE0023224E022A33602FD1FEF7AF
:101E8000AFFE07462368990123D46B6AB3F5803F00
:101E900009D1E26A69680A43E262E26AE96822F00B
:101EA0000F020A43E262A96A62680B4322F47412C9
:101EB0001343636001233360FEF792FE05462368F7
:101EC0009A013FF54CAEFEF78BFE401B0228F6D977
:101ED00072E6FEF785FEC01B0228D3D96CE6FEF73A
:101EE0007FFE054623689B017FF539AEFEF778FE3D
:101EF000401B0228F6D95FE600100240680042420B
:101F000060004242F0B589B06A462A4B03F10805E9
:101F1000144618685968083303C4AB422246F7D107
:101F200018689B882060A380234B04AC03F1100544
:101F3000224618685968083303C2AB421446F7D1E9
:101F40001E494B6803F00C02082A31D1C3F38342C7
:101F500008A80244DB0312F8206C26D5CB6A03F0F4
:101F60000F03034413F8102CCB6A13F4803F144B77
:101F700016D0CF6ACC6AC4F303240234A4FB06450E
:101F8000A4FB030103FB0511C7F303130133A3FBF8
:101F90000223FEF75BFC0D2E00D1400809B0F0BD16
:101FA00003FB06F0B0FBF2F0F5E706487043F5E7F7
:101FB0000348F3E7286B0008366B00080010024066
:101FC00000127A0000093D00544A2DE9F0411368DF
:101FD000054603F007038B420E462AD329688C0777
:101FE00034D4CA0747D44D4A136803F007039E420E
:101FF000C0F082802A684A4C12F0040F40F08780BB
:10200000130706D563682A6923F4605343EAC203C1
:102010006360FFF777FF6368424AC3F30313D35C3F
:10202000D840414B18600F20FEF798FD0020BDE816
:10203000F081136823F007030B431360136803F068
:1020400007039942CAD00120BDE8F081344B11F05A
:10205000040F1EBF5A6842F4E0625A60080742BF8C
:102060005A6842F460525A605A68A86822F0F00236
:1020700002435A60B5E76A68294C012A23681CD1DB
:1020800013F4003FDFD0636841F2883823F0030384
:1020900013436360FEF7A4FD6B680746012B14D160
:1020A000636803F00C03042B9DD0FEF799FDC01B61
:1020B0004045F5D90320BDE8F081022A02D113F092
:1020C000007FDFE713F0020FDCE7022B0FD163681C
:1020D00003F00C03082B86D0FEF782FDC01B4045A1
:1020E000F5D9E7E7FEF77CFDC01B4045E2D8636801
:1020F00013F00C0FF6D176E7136823F00703334390
:102100001360136803F007039E429CD172E7636873
:10211000E96823F4E0630B43636071E70020024049
:1021200000100240BC6E00084C000020044B054A21
:102130005B68C3F30223D35C034A1068D84070473E
:1021400000100240CC6E00084C000020044B054AF1
:102150005B68C3F3C223D35C034A1068D84070475E
:1021600000100240CC6E00084C00002003682DE9EE
:10217000F34113F0010F0546574C1FD0E369DA0015
:1021800047D40127E36943F08053E361E36903F037
:1021900080530193019B514E3368DB053BD5236A85
:1021A00013F440734BD1236A6A6823F440731343DA
:1021B00023621FB1E36923F08053E3612A68930728
:1021C00005D56368A96823F440430B436360570750
:1021D00005D5E36AE96823F400330B43E36216078D
:1021E00005D5E36A2A6923F480231343E362E36A93
:1021F000980366D4E36A590363D4286810F010008A
:102200001AD06368EA6923F48003134363600020F3
:1022100012E00027BFE7336843F480733360FEF7B2
:10222000DFFC80463368D805B9D4FEF7D9FCA0EBB3
:1022300008006428F6D9032002B0BDE8F0816A687E
:1022400002F440729342AED00120254A236A106006
:10225000002023F4407110602162D907A3D5FEF756
:10226000BFFC41F288380646236A9A079BD4FEF7E2
:10227000B7FC801B4045F7D9DDE72368A96913F057
:10228000806F04D0E26A02F0F0028A4222D1E36A4F
:1022900023F0F0030B43E362E36A6A6923F47043BB
:1022A00013430122E3620F4B1A60FEF799FC0646C6
:1022B00023689A00A1D4FEF793FC801B6428F7D909
:1022C000B9E72368DB00D8D5E36A6A6903F4704391
:1022D000934292D00120AFE700100240007000400E
:1022E00040044242700042420368DA6822F490726D
:1022F000DA605A6922F001025A61202380F83A30EC
:10230000704700002DE9F0470568C2682B69016934
:1023100023F4405313432B618368EA680B434169FC
:1023200022F4B05222F00C020B431343EB606B69B2
:10233000826923F4407313436B61404B81469D4295
:102340004FF0190446D1FFF701FF04FB00F3D9F861
:1023500004604FF06408B600B3FBF6F3B3FBF8F388
:102360001E01FFF7F3FE6043D9F804309B00B0FB79
:10237000F3F7FFF7EBFE6043D9F804309B00B0FBA6
:10238000F3F3B3FBF8F308FB13731B013233B3FB16
:10239000F8F303F0F007FFF7D9FE6043D9F8042003
:1023A0009200B0FBF2FAFFF7D1FE6043D9F8043097
:1023B0009B00B0FBF3F3B3FBF8F308FB13A31B0183
:1023C0003233B3FBF8F303F00F033B433344AB600A
:1023D000BDE8F087FFF7AAFE04FB00F3D9F804601C
:1023E0004FF06408B600B3FBF6F3B3FBF8F31E013D
:1023F000FFF79CFE6043D9F804309B00B0FBF3F775
:10240000FFF794FE6043D9F804309B00B0FBF3F370
:10241000B3FBF8F308FB13731B013233B3FBF8F380
:1024200003F0F007FFF782FE6043D9F80420920022
:10243000B0FBF2FAFFF77AFEB7E700BF00380140C1
:10244000F8B504460E4617461D4621680B6836EA65
:10245000030301D10020F8BD6B1CF7D095B92368A8
:102460000320DA6822F4D072DA605A6922F001029D
:102470005A61202384F8393084F83A30002384F8F4
:102480003830F8BDFEF7ACFBC01B8542DDD2E6E775
:1024900010B5044640B390F8393003F0FF021BB981
:1024A00080F8382003F012F92423226884F83930A8
:1024B000D368204623F40053D360FFF723FF23683B
:1024C00000201A6922F490421A615A6922F02A0205
:1024D0005A61DA6842F40052DA602023E06384F83B
:1024E000393084F83A3010BD012010BD2DE9F0419B
:1024F0001F4690F839300446202B0D4690464ED1A9
:10250000002949D0002A47D090F83830012B46D016
:10251000012380F838300023C363212380F8393049
:10252000FEF75EFB0646A4F82480A4F82680E38C20
:102530009BB26BB93B46324640212046FFF780FFF5
:10254000A8B9202384F8380084F83930BDE8F08138
:10255000E38C3246013B9BB2E384A3688021B3F550
:10256000805F20463B460ED1FFF76AFF10B1032083
:10257000BDE8F0812B882268C3F308035360236908
:1025800043B90235D3E7FFF75BFF0028EFD123689B
:102590002A785A600135CAE70120BDE8F08102209F
:1025A000BDE8F08190F83A30202B20D1E9B1E2B1BA
:1025B00090F83830012B1AD0C28582850023222260
:1025C000C36380F83A2002688162D16880F83830AD
:1025D00041F48071D1605169184641F001015161A7
:1025E000D16841F02001D16070470120704702207E
:1025F0007047000038B50446134694F83920202A65
:102600002AD139B333B394F83820012A24D00122D7
:10261000002584F838202122E384206BE56384F8C8
:1026200039200E4AA384216282620D4A4563C26248
:102630000C4A026322680432FEF7CEFE6FF04002BD
:10264000236828461A605A6984F8385042F080029C
:102650005A6138BD012038BD022038BD6B26000804
:102660009926000821270008704708B50368426AC8
:102670001B6813F020030AD1D38413685A6922F02F
:1026800080025A61DA6842F04002DA6008BD104602
:10269000FFF7EAFF08BD704708B5406AFFF7FBFF88
:1026A00008BD90F83A3010B5222B36D18368016905
:1026B000B3F5805F0268836A23D15268E9B9C2F337
:1026C000080223F8022B8362C48D013CA4B2C485A6
:1026D0008CB90368DA6822F02002DA60DA6822F442
:1026E0008072DA605A6922F001025A61202380F870
:1026F0003A3002F05BFB002010BDD2B223F8012B70
:10270000E1E721B9591C526881621A70DCE752680E
:10271000591C816202F07F02F7E7022010BD70476A
:10272000416A08B50B685A6991F8390021280AD125
:10273000120608D50022CA84DA6822F0C002DA60E4
:10274000202281F839205B6991F83A20222A06D1AB
:102750005B0604D500230846CB85FFF7C5FDCB6B90
:10276000084643F01003CB63FFF7D9FF08BD000014
:10277000036870B51A6804461607D9685D6907D101
:1027800096065AD58D0658D5BDE87040FFF789BF2B
:1027900015F0010502D111F4907F4ED0D30705D575
:1027A000CE0542BFE36B43F00103E363500704D55A
:1027B0001DB1E36B43F00203E363930704D51DB13E
:1027C000E36B43F00403E363160704D51DB1E36B29
:1027D00043F00803E363E36B002B66D0950604D552
:1027E000880602D52046FFF75CFF236820465D6916
:1027F000E26B110702D415F040051AD0FFF774FD03
:1028000023685A69520610D55A69606B22F040025B
:102810005A6150B1254B4363FEF71CFE002844D09B
:10282000606BBDE87040436B18472046FFF777FFA9
:1028300070BDFFF774FFE56370BD160627D50D0662
:1028400025D594F83920212A2FD1A268B2F5805FCE
:10285000226A17D11188C1F308015960216979B939
:1028600002322262E28C013A92B2E284EAB9DA6878
:1028700022F08002DA60DA6842F04002DA6070BD6D
:102880000132EEE7511C216212785A60EAE75006E5
:102890000BD54A0609D5DA68204622F04002DA60F4
:1028A000202384F83930FFF7DFFE70BDB12800081F
:1028B00008B50023406AC385C384FFF730FF08BD15
:1028C00008B500F079FE002008BD08B501F00CF94C
:1028D000012803D0BDE8084000F0ECB808BD00F1C5
:1028E000080343604FF0FF32C3600361002382603E
:1028F0000360704700230361704743689A684B6028
:102900008A609A68516099600368086101330360C6
:1029100070470A6830B5531C0AD103695A684A6087
:1029200091608B605960036808610133036030BDBA
:1029300000F108035C682568AA42EFD32346F9E753
:102940004168826803698A60826851605968884278
:1029500008BF5A6000220261186801381860704789
:102960000A4B1B68013308D04FF0500383F31188E2
:10297000BFF36F8FBFF34F8FFEE74FF0500383F32A
:102980001188BFF36F8FBFF34F8FFEE70800002061
:1029900006480068006880F3088862B661B6BFF335
:1029A0004F8FBFF36F8F00DF00BF000008ED00E026
:1029B0004FF0807340F8043C054B21F0010140F8D2
:1029C000081C40F80C3C40F8202C4038704700BFF1
:1029D0006129000800000000000000000000000065
:1029E000074B19680868B0E8F00F80F30988BFF357
:1029F0006F8F4FF0000080F311884EF00D0E70477E
:102A00007C5000204FF0500383F31188BFF36F8F89
:102A1000BFF34F8F0A4A13680133012B13600DD1A6
:102A2000084B1B6813F0FF0F08D04FF0500383F3DF
:102A30001188BFF36F8FBFF34F8FFEE7704700BF62
:102A40000800002004ED00E0084A136843B94FF085
:102A5000500383F31188BFF36F8FBFF34F8FFEE7EF
:102A6000013B13600BB983F3118870470800002005
:102A7000EFF30980BFF36F8F0D4B1A6820E9F00F59
:102A800010602DE908404FF0500080F3118800F0ED
:102A900045FF4FF0000080F31188BDE80840196839
:102AA0000868B0E8F00F80F30988BFF36F8F7047B4
:102AB0007C50002008B54FF0500383F31188BFF31A
:102AC0006F8FBFF34F8F00F0C1FD18B14FF08052F0
:102AD000024B1A60002383F3118808BD04ED00E067
:102AE0004FF47A72054B1B68B3FBF2F3044A013BC7
:102AF00013600722034B1A60704700BF4C00002090
:102B000014E000E010E000E013B51F4B00211A783C
:102B1000D2B20192FF221A701B781C4ADBB28DF8E8
:102B200003309DF8033003F0500313700722184B55
:102B30001A609DF80300541E00061CD401B11A60EF
:102B40001A68120202F4E0621A60019B0E4ADBB2BC
:102B50001370104B1A6842F470021A601A6842F03F
:102B600070421A60FFF7BCFF00220B4B1A60FFF7A0
:102B70000FFFFFF7F5FE9DF8032001215200D2B2AE
:102B80008DF803202246D4E700E400E03C02002058
:102B90004002002020ED00E008000020EFF3058354
:102BA0000F2B0ED9104A9B5C104A12789A4208D912
:102BB0004FF0500383F31188BFF36F8FBFF34F8F34
:102BC000FEE70B4B0B4A1B68126803F4E063934269
:102BD00008D94FF0500383F31188BFF36F8FBFF311
:102BE0004F8FFEE7704700BFF0E300E03C0200209B
:102BF0000CED00E04002002010B50F4B1A68824235
:102C000018D35C681919884201BF41681846091930
:102C10005960446801198A4207D1084909688A4203
:102C20001FBF51681268091941609842026018BFBD
:102C3000186010BD1346E1E77450002044020020E4
:102C40002DE9F041044600F0F3FC3D493D4D0B6891
:102C5000FBB93D4A002056070FBF44F620630732F8
:102C60003A4B22F0070218BF9B1A1344384E083B18
:102C700023F0070370603260586018600B60981A88
:102C80001360344B50601860334B18604FF00043B2
:102C90002B602F68274216D1002C40D004F1080386
:102CA00058071CBF23F00703083363B12A4A16688C
:102CB0009046B34207D8264A15686868834204D80C
:102CC00009688D4207D1002429E02C68002CF7D038
:102CD0002A462546F1E7296814681160C21A102AAD
:102CE0000FD9E818410708D04FF0500383F311883B
:102CF000BFF36F8FBFF34F8FFEE742606B60FFF74C
:102D00007BFF6B681349F61A1F4300230868C8F855
:102D10000060864238BF0E6008346F602B6000F0A0
:102D200027FD630708D04FF0500383F31188BFF3EA
:102D30006F8FBFF34F8FFEE72046BDE8F08100BFE5
:102D40004402002068500020480200206850002003
:102D500074500020705000206C50002010B50446C4
:102D600070B3184A50F8043C1268134208D14FF06F
:102D7000500383F31188BFF36F8FBFF34F8FFEE7CC
:102D800050F8081C41B14FF0500383F31188BFF392
:102D90006F8FBFF34F8FFEE723EA020340F8043C36
:102DA00000F046FC084A54F8043C1168A4F10800FD
:102DB0000B441360FFF720FFBDE8104000F0D8BCC3
:102DC00010BD00BF685000206C500020014B1868F7
:102DD000704700BF6C50002070B51546026C044669
:102DE000866B42B905689DB9406800F0D5FE656004
:102DF0000136A66370BD6DB9806802F05FFDA368FF
:102E0000226C13446268A360934201D32368A360D9
:102E10000020EDE7C06802F051FD236CE2685B42E0
:102E200021681A448A42E2603EBF62689B18E360F0
:102E3000022DEDD10EB1013EEAE73046D8E7034658
:102E40001A6C10B4084662B1D9685C681144A1429A
:102E5000D96028BF196810BC28BFD960D96802F0B2
:102E60002DBD10BC704770B50446FFF7CBFD94F83C
:102E7000455004F124066DB2002D14DCFF2384F8C4
:102E80004530FFF7E1FDFFF7BDFD94F8445004F134
:102E900010066DB2002D12DCFF2384F84430BDE82B
:102EA0007040FFF7D1BD636A002BE7D0304600F0D9
:102EB00089FD08B100F012FE013D6DB2DCE7236927
:102EC000002BE9D0304600F07DFD08B100F006FE91
:102ED000013D6DB2DEE7000038B50D46044640B94D
:102EE0004FF0500383F31188BFF36F8FBFF34F8F01
:102EF000FEE7FFF787FD206CE36B22684343D118A0
:102F00001B1A13446160E3600021FF23A163A260E8
:102F100084F8443084F8453095B9236963B104F1ED
:102F2000100000F04FFD38B14FF08052094B1A608D
:102F3000BFF34F8FBFF36F8FFFF786FD012038BDC2
:102F400004F11000FFF7CBFC04F12400FFF7C7FCED
:102F5000F2E700BF04ED00E070B50D46064640B94B
:102F60004FF0500383F31188BFF36F8FBFF34F8F80
:102F7000FEE748434830FFF763FE044638B145B9E1
:102F80002060E663256401212046FFF7A5FF204667
:102F900070BD00F148030360F3E700002DE9FF472F
:102FA000894601921F46044640B94FF0500383F30F
:102FB0001188BFF36F8FBFF34F8FFEE7002940F0FA
:102FC0008880036C002B00F084804FF0500383F363
:102FD0001188BFF36F8FBFF34F8FFEE7019E002E66
:102FE00000F082804FF0500383F31188BFF36F8F9E
:102FF000BFF34F8FFEE7019D1DB9FFF725FD0020B0
:1030000058E016B902A800F01FFDFFF71DFD00F003
:103010000FFBFFF7F7FC94F84430FF2B08BF84F850
:10302000448094F84530FF2B08BF84F84580FFF7B3
:103030000BFD01A902A800F017FD002843D1FFF7FE
:10304000E1FCA66BE56BFFF7FFFCAE4235D10199C1
:1030500004F1100000F09CFC2046FFF704FF00F094
:1030600087FB38B94FF08053CAF80030BFF34F8F59
:10307000BFF36F8F0126FFF7C5FCA26BE36B9A428B
:1030800001D3022FB7D13A4649462046FFF7A4FEA6
:10309000636A1BB104F1240000F094FC38B14FF0D6
:1030A0008052184B1A60BFF34F8FBFF36F8FFFF73B
:1030B000CBFC012004B0BDE8F0872046FFF7D3FE2B
:1030C00000F056FBD6E72046FFF7CDFE00F050FBA0
:1030D00095E7022F02D1E36B012B0AD100F004FD2A
:1030E00000283FF47BAF00264FF00008DFF814A063
:1030F000C1E74FF0500383F31188BFF36F8FBFF325
:103100004F8FFEE704ED00E02DE9F8438846914635
:103110001F46044640B94FF0500383F31188BFF3B4
:103120006F8FBFF34F8FFEE709BB036CFBB14FF00E
:10313000500383F31188BFF36F8FBFF34F8FFEE708
:1031400004F1240000F03EFC002834D0B9F1000F57
:1031500031D00120C9F8000086F31188BDE8F8835A
:1031600001356DB284F8455025E00020F4E7022FC8
:1031700002D1E36B012B20D1FFF710FDEFF3118695
:103180004FF0500383F31188BFF36F8FBFF34F8F5E
:10319000A26BE36B9A4201D3022FE6D194F845501B
:1031A0003A466DB241462046FFF716FE6B1CD7D15A
:1031B000636A002BC4D10120CEE74FF0500383F3A4
:1031C0001188BFF36F8FBFF34F8FFEE72DE9FF47E5
:1031D000884601929946044640B94FF0500383F364
:1031E0001188BFF36F8FBFF34F8FFEE7002940F0C8
:1031F000A580036C002B00F0A1804FF0500383F3F7
:103200001188BFF36F8FBFF34F8FFEE7019E002E33
:1032100000F09A804FF0500383F31188BFF36F8F53
:10322000BFF34F8FFEE7636AE660002B6DD004F1B9
:1032300024005FE0019D1DB9FFF706FC284667E00A
:1032400016B902A800F000FCFFF7FEFB00F0F0F951
:10325000FFF7D8FB94F84430FF2B08BF84F8447084
:1032600094F84530FF2B08BF84F84570FFF7ECFB5E
:1032700001A902A800F0F8FB002852D1FFF7C2FB19
:10328000A56BFFF7E1FB002D45D1236833B9FFF7AC
:10329000B9FB606800F038FCFFF7D6FB019904F138
:1032A000240000F075FB2046FFF7DDFD00F060FA1A
:1032B00038B94FF08053CAF80030BFF34F8FBFF3D7
:1032C0006F8F0126FFF79EFBA56B002DB2D0414604
:1032D0002046E668FFF7B3FDB9F1000FA3D12368DC
:1032E000013DA56313B900F0A7FC6060236963B1D9
:1032F00004F1100000F066FB38B14FF08052144B1F
:103300001A60BFF34F8FBFF36F8FFFF79DFB012054
:1033100004B0BDE8F0872046FFF7A5FD00F028FACD
:10332000CFE72046FFF79FFD00F022FAFFF76AFB88
:10333000A56BFFF789FB002DC3D17FE700F0D4FB1D
:1033400000283FF463AF00260027DFF804A0B9E7A8
:1033500004ED00E0064A13681968064B19B94FF0EE
:10336000FF321A6070471268D268D2685268F8E774
:103370008050002058510020F8B51B4B1B4E1D6893
:10338000044630680F460430FFF7DAFA334640B996
:1033900001203168164EC96A3268884022EA00026C
:1033A0003260621C07D137B1196812480431BDE898
:1033B000F840FFF7A2BA2C441A68A542546007D916
:1033C0000D4A10681968BDE8F8400431FFF7A1BA4A
:1033D0000A4A106819680431FFF79BFA084B1A680B
:1033E000944238BF1C60F8BDA05100207C500020E2
:1033F0002851002078510020845000208050002067
:10340000585100204FF0500383F31188BFF36F8FA2
:10341000BFF34F8FFEE700002DE9F84F4FEA820A15
:10342000804650460F4699460B9EFFF709FC05461D
:10343000002800F096805420FFF702FC0446002884
:1034400000F08C80AAF1040A056355447B1E25F028
:10345000070A00F134020F37597802F8011B13F8FC
:10346000011F09B1BB42F7D10A9D4FF0000B062D99
:1034700028BF0625271DE5626564384684F843B0F9
:10348000C4F848B0FFF736FAC5F1070504F1180093
:10349000FFF730FAC4F84CB02461A561646284F887
:1034A00050B04A4641465046FFF782FA206006B1C6
:1034B0003460FFF7A7FA324B324E1A68DFF8F0801B
:1034C00001321A603568002D4ED134601B68012B23
:1034D0001DD108EB05001435FFF701FA8C2DF8D14A
:1034E000DFF8D090284D4846FFF7F9F92846FFF756
:1034F000F6F92648FFF7F3F92548FFF7F0F92548D4
:10350000FFF7EDF9244BC3F80090244B1D60012513
:10351000234A24491368086801331360E26A05FAF4
:1035200002F3034314200B6000FB02803946FFF7CF
:10353000E4F9FFF789FA1C4B1B6863B13368DA6A58
:10354000E36A9A4207D24FF08052184B1A60BFF3D9
:103550004F8FBFF36F8F2846BDE8F88F2846FFF7DF
:10356000FDFB4FF0FF35F6E70F4B1B68002BCED16C
:103570003368DA6AE36A9A4298BF3460C7E700BFEB
:10358000145100207C500020405100206051002048
:103590008C51002078510020805000208450002061
:1035A00024510020285100207451002004ED00E037
:1035B000885000202C51002013B50024164B009495
:1035C00001938022234615491548FFF725FF01285E
:1035D00014D14FF0500383F31188BFF36F8FBFF303
:1035E0004F8F4FF0FF320F4B1A600F4B18600F4B8D
:1035F0001C6002B0BDE81040FFF786BA013008D168
:103600004FF0500383F31188BFF36F8FBFF34F8FD9
:10361000FEE702B010BD00BF545100208C6B0008C3
:10362000A93800085851002074510020A0510020F2
:10363000024A136801331360704700BF2051002015
:10364000014B1868704700BFA05100202DE9F84FCA
:103650003C4B1B68002B53D13B4B1C6801341C6056
:10366000BCB93A4B1A68126842B14FF0500383F369
:103670001188BFF36F8FBFF34F8FFEE7344A19688D
:10368000106818601160334A136801331360FFF744
:1036900061FE314D4FF0000B2B68304F9C423ED302
:1036A000DFF8A880DFF8C490D8F80020126872BB59
:1036B0004FF0FF322A6032E006F1040A5046FFF76D
:1036C0003FF9B16A19B106F11800FFF739F9012283
:1036D0004FF0140EF06AD9F8003002FA00F11943E5
:1036E0001F4BC9F800100EFB00305146FFF705F9DB
:1036F0003868F16AC26A914228BF4FF0010BD3E7E4
:10370000184A4FF0000B13680133136011E0D8F82A
:103710000020D268D66871688C42CDD229603A68A0
:103720000F4BD16A14224A439A58022A28BF4FF0FD
:10373000010B0D4A1268002A18BF4FF0010B5846C2
:10374000BDE8F88F20510020A051002080500020BB
:10375000845000205C510020585100207C500020F3
:10376000885000201C510020A45100202851002026
:103770002DE9F843314C236843B94FF0500383F3EC
:103780001188BFF36F8FBFF34F8FFEE7FFF73AF952
:103790002368013B236024682CB10024FFF754F90F
:1037A0002046BDE8F883264B1B68002BF5D0DFF8D8
:1037B000A890244FDFF8A480D9F80030E3B90CB109
:1037C000FFF7C8FD204D2C6844B101271F4EFFF7BD
:1037D0003DFF00B13760013CF9D12C601B4B1B68E9
:1037E000002BDAD04FF08052194B1A60BFF34F8F85
:1037F000BFF36F8F0124D1E7D9F80C300125DC68C5
:10380000261D04F11800FFF79BF83046FFF798F8E3
:103810001420E26A396805FA02F30B4300FB0280C8
:1038200031463B60FFF769F80A4BE26A1B68DB6AC6
:103830009A4224BF054B1D60BEE700BF2051002007
:1038400014510020285100201C510020A4510020B8
:1038500004ED00E07C5000206051002088500020E2
:1038600008B540B94FF080520D4B1A60BFF34F8F2F
:10387000BFF36F8F08BD0B4B196841B14FF0500378
:1038800083F31188BFF36F8FBFF34F8FFEE7FFF70E
:10389000CFFEFFF771FDFFF76BFF0028E2D008BDF8
:1038A00004ED00E02051002008B5174E174C2368A6
:1038B00063B9174B1B68012BF8D94FF08052154B99
:1038C0001A60BFF34F8FBFF36F8FEFE7FFF7B0FEC4
:1038D0003568FFF74DFF002DE9D0FFF793F8F36847
:1038E000DD68281DFFF72CF80B4A1368013B1360B5
:1038F0002368013B2360FFF7A7F8286BFFF72EFA38
:103900002846FFF72BFAD2E78C51002018510020EF
:103910008850002004ED00E014510020174B10B532
:103920001A68174B12B101221A6010BD1A60154BAC
:103930001B68B3FA83F31422DBB2C3F11F035A43AB
:1039400011498C58881844B94FF0500383F31188FB
:10395000BFF36F8FBFF34F8FFEE744680832646890
:103960000A44944208BF6268446008BF426014225F
:1039700002FB03135B68DA68044BD5E72051002093
:10398000A451002028510020885000207C500020A5
:1039900010B50C4640B94FF0500383F31188BFF3C4
:1039A0006F8FBFF34F8FFEE7054B19681831FEF795
:1039B000B0FF2046BDE810400121FFF7DDBC00BF8D
:1039C0007C50002038B5C368DC6844B94FF0500320
:1039D00083F31188BFF36F8FBFF34F8FFEE704F1BE
:1039E00018052846FEF7ACFF114B1B68E3B9251DEF
:1039F0002846FEF7A5FF01230E49E26A08689340B6
:103A0000034314200B6029460B4B00FB0230FEF7EA
:103A100074FF0A4BE26A1B68DB6A9A4285BF012089
:103A2000074B0020186038BD29460648EFE700BF65
:103A30002051002028510020885000207C50002078
:103A4000A45100206051002008B508B9FFF7DAFC46
:103A5000034B1B680360034B1B68436008BD00BF3A
:103A60005C510020A051002038B50D46044640B9F5
:103A70004FF0500383F31188BFF36F8FBFF34F8F65
:103A8000FEE741B94FF0500383F31188BFF36F8F06
:103A9000BFF34F8FFEE7FEF7B5FF0E4B19682B689B
:103AA0005A1C10D00C4A206812689042626801D0FB
:103AB00091420DD2881A83420AD95B1A13442B60B3
:103AC0002046FFF7C1FF0024FEF7BEFF204638BDA9
:103AD0000124F9E7A05100205C5100200122014B94
:103AE0001A607047A4510020054B1B6833B1054B89
:103AF0001B68002B0CBF022000207047012070477C
:103B000074510020205100202DE9F0410446002886
:103B100039D01E4DC36A2A68D26A934233D2142721
:103B200082691B4E002AA8BF2A6807FB0363A2BF55
:103B3000D26AC2F10702826142699A4220D100F141
:103B400004084046FEF7FCFE124A48B9E06A4743C3
:103B5000F3592BB901211368814023EA0103136053
:103B60002B681168D86A012383400B431360142328
:103B7000E062414603FB0060BDE8F041FEF7BDBED8
:103B80002B68DB6AC362BDE8F08100BF7C50002077
:103B90008850002028510020F8B5044608B90020BC
:103BA000F8BD224B1B68984208D04FF0500383F3B6
:103BB0001188BFF36F8FBFF34F8FFEE7836C43B95C
:103BC0004FF0500383F31188BFF36F8FBFF34F8F14
:103BD000FEE7C16A426C013B91428364DFD0002B57
:103BE000DDD1051D2846FEF7ABFE114E114A50B936
:103BF0001421E76A794373582BB901201368B84040
:103C000023EA00031360636CC3F10701E362A1615F
:103C10000124116804FA03F00843106014202946B7
:103C200000FB0360FEF769FE2046F8BD7C500020D3
:103C30008850002028510020044B1A681AB11968D6
:103C40008A6C01328A641868704700BF7C5000207B
:103C5000F0B58BB06C4606460F4D0F460FCD0FC426
:103C60000FCD0FC495E8030084E8030006F11203AA
:103C700033F8022D9E425A80FAD10023184637802D
:103C800036F813205DF8231001330A2B01FB0200E4
:103C9000F6D1000C0BB0F0BD486B000880B594B0B5
:103CA00014220021684601F014FE14220123002191
:103CB0000DEB0200ADF8003001F00BFE02231422E0
:103CC00000210AA8ADF8143001F003FE03231422EA
:103CD00000210FA8694EADF8283001F0FAFD042349
:103CE0003446674FADF83C30F38B322B40F28D8079
:103CF00075786DBB2A464FF480516248FDF700FF8E
:103D00002A464FF400515F48FDF7FAFE2A464FF469
:103D100080415C48FDF7F4FE2A464FF400415948C3
:103D2000FDF7EEFE2A4640215748FDF7E9FE2A46F8
:103D300080215548FDF7E4FE2A464FF48071524831
:103D4000FDF7DEFE2A464FF400714F48FDF7D8FE1E
:103D5000E578012D32D00023E370E3834B4B4C4DCB
:103D60001A884C482A805A886A809A88DB88AA80F8
:103D7000EB80FDF733F929886846FFF769FF69880A
:103D8000E08105A8FFF764FFA98820820AA8FFF751
:103D90005FFFE98860820FA8FFF75AFF6378A0826F
:103DA000012B35D100233C481A4619460068A37000
:103DB000FFF7F4F83220FFF753FD95E7E38B01336B
:103DC0009BB2B3F5167FE383C8D900224FF400619C
:103DD0003846FDF795FE3220FFF742FD2F4B304964
:103DE0001A78304801F07EFD2F4BC2B22D492F4882
:103DF0001A70FEF7FFFB3220FFF732FD2A464FF420
:103E000000613846FDF77CFEA5E70133F383A5E7A3
:103E1000A378012BCED100254FF480512A461948B2
:103E20006577FDF76DFE2A464FF400511548FDF702
:103E300067FE2A464FF480411248FDF761FE2A468C
:103E40004FF400410F48FDF75BFE2A4640210E4823
:103E5000FDF756FE2A4680210B48FDF751FE2A4603
:103E60004FF480710848FDF74BFE2A464FF400716D
:103E70000548FDF745FEA5709CE700BF685200208D
:103E800000080140000C0140001001404453002094
:103E900036540020C45300207C5300203C520020A4
:103EA000916B0008B951002039520020F4530020D2
:103EB0002DE9F04FC04B93B00EAC0FCB84E80F0050
:103EC0000023BE4C4FF0FF32194620688DF8283091
:103ED0008DF829300B93FFF779F9079400230798A1
:103EE0004FF0FF3219460068FFF770F90128F5D14D
:103EF000B34D2B792C46012B40F0B28200226B7F10
:103F00002A70062B19D9AF49AF486A776A7001F059
:103F100039FD1522AD4BAC491A70AD484FF6FF7311
:103F2000FEF7E4FAAB7E0022013B052B00F2BB82D8
:103F3000DFE803F0060C353C434801336B77F1E7CB
:103F400001238DF828308DF8292005E002238DF813
:103F5000283001238DF8292000214FF0FF090E465B
:103F60004FF0010A8B4606939DF828709DF8293082
:103F700095F81B8095F800C01F44CBB2BB4225DBEF
:103F80000EB185F800C02B78002B43D16B700E93D7
:103F90000F93109311936B7700F036FD9EE701238A
:103FA0008DF828308DF829300223D5E701238DF8CC
:103FB000283002238DF82930CEE7022301228DF824
:103FC0002830C0E702238DF82830F3E704EB4302E2
:103FD000D0890DF1480E5A00964422442EF8180C50
:103FE000B2F806E0AEEB000212B2002AB8BF5242AD
:103FF00012B2424512AA134409DD012670452CBFB6
:104000005A465246B44603F81C2C0131B5E703F872
:104010001C9CFAE76F496C4801F0B4FC16226B4B0C
:1040200069491A706A484FF6FF73FEF75FFA002677
:104030005FFA86F94FF0000A634F6DE09DF8282083
:1040400002FB0932D2B202F1040804EB420104EB94
:104050004803DB88C8889500C01A12AB134413F9D3
:104060001CBC00B2BBF1010F2BD15B4B089203EBE0
:104070000508FCF7ABF9D8F80410FCF7FBF9FCF7DE
:10408000BFFB12AB1D448046034645F8100C089A4E
:104090005249384601F026FC4C4BC2B21A703946E0
:1040A0004FF6FF734A48FEF721FAB8F1000F01DA24
:1040B000002303E040F0A0804FF47A7345F8103CF1
:1040C00028E0BBF1000F40F09C80434B089203EBCB
:1040D0008808FCF77BF9D8F80410FCF7CBF9FCF75B
:1040E0008FFB12AB1D448046034645F8100C089A1E
:1040F0003B49384601F0F6FB344BC2B21A703946E0
:104100004FF6FF733248FEF7F1F9B8F1000F6FDA9E
:1041100045F810BC0AF1010A0AAA16F802805FFAF3
:104120008AF343458AD3264D6B78002B6CD04FF031
:10413000000B2C4FDFF8B4A05FFA8BF343459DF8DA
:104140002850C0F0A0809DF82930324600932649BF
:104150002B461D4801F0C6FB1C4BC2B21A701A490F
:104160004FF6FF731A48FEF7C1F9FFF769FA824666
:1041700009FB05F95FFA89FB1420FFF771FBFFF7D4
:104180005FFA0F4AA0EB0A0352784AB14FF00009D8
:104190004F465FFA89F54545C0F098804745EBD317
:1041A00040F6B830FFF75CFB0136069AF3B2934253
:1041B000FFF43EAF44E000BF706B00087C5300206A
:1041C000685200209B6B0008B95100203952002032
:1041D000F4530020B16B00083C520020C86B00086B
:1041E000DB6B00081C000020F06B00082C00002096
:1041F00002D14FF4FA7361E742F21073984589DDFA
:104200005CE712AB1D4453E71C46AA4EAA4B56F876
:10421000240033F824100022FDF772FCA74B002283
:1042200033F82410A64B53F824000134FDF768FC42
:10423000042CEBD100230E930F93109311936B7703
:10424000A04E002473783546002B61D11C46994D51
:10425000994B55F8240033F824100022FDF750FC48
:10426000964B002233F82410954B53F82400013468
:10427000FDF746FC042CEBD100230E930F93109313
:10428000119373772AE605FB093512ABEDB203EB08
:10429000850353F8103C002B0CDD12AB2B4413F9B3
:1042A0001C2C012A09D1864B3AF8251053F8250019
:1042B000FDF726FC0BF1010B3EE7002AFAD17E4BFD
:1042C000012233F8251057F82500F1E75D44EDB2DF
:1042D00012AA02EB850252F8102C934215D90893CA
:1042E000754B002233F82510724B013753F8250027
:1042F000FDF706FC714B724833F82510002250F888
:104300002500FDF7FDFB089BFFB209F1010940E71D
:10431000747606363746DFF8CC91DFF8B481DFF8E3
:10432000B4A10EAB53F82400B0F5FA7F2CDD0CAB32
:10433000398933F814208B1A1BB2002BB8BF5B42AB
:104340001BB2092B20DC4FF0FF0E0BAB04F803E08F
:104350003B8802900191009249462246404601F076
:10436000C1FA4FF6FF73C2B2414657488AF800209F
:10437000FEF7BCF86B7943F004036B71012303FA79
:1043800004F22B7E13432B760134042C07F1020731
:10439000C7D14E494E4801F0F5FA0F224D4F4FF666
:1043A000FF734B4948483A700024FEF79FF808977E
:1043B0000027494DDFF818A10BABE356002B0993FA
:1043C0003CDB0EAB53F824300CAA184632F81480AC
:1043D0000693FBF7FBFFB6F808908346A9EB0800AD
:1043E00000B2FBF7F3FF01465846FCF7F7F8099BCC
:1043F0008346012B2AD13946FCF7EEF908B1C5F8FE
:1044000000B02869FCF7FCF9B6F800B00490286801
:10441000FCF7F6F9069B0390029322465B462F4970
:104420008DE80003504601F05DFA089BC2B21A7095
:1044300051464FF6FF732448FEF758F80134042C18
:1044400006F1020605F10405B6D147E5002BD8D1E7
:104450003946FCF7B7F90028D3D0C5F810B0D0E73B
:10446000AB7E0022013B052B1DD8DFE803F01E03C5
:104470000320201A02266B7F2A70062B34D9184994
:1044800013486277627001F07DFA1522114B1049D2
:104490001A704FF6FF730C4813B0BDE8F04FFEF7EB
:1044A00025B80426E7E76A7018E50126E3E7032646
:1044B000E1E700BF1C0000200C0000202C000020C1
:1044C0003C00002068520020F45300202D6C0008AE
:1044D000B951002039520020405200203D6C0008A4
:1044E0009B6B00080E6C00080133DFF860916B775E
:1044F00077B24FF0000BDFF858A1DFF858813AF897
:10450000021F0CAA3AF8080C22F81B10421A12B229
:10451000002AB8BF524294F81BE012B272450DF166
:104520002C0E6FDD814261D20122414B0EF80B202F
:1045300033F82B1059F82B00FDF7E2FA00223D4822
:1045400038F82B1050F82B00FDF7DAFA0122227010
:104550000BF1010B5FFA8BF29642D0D83A463649FE
:10456000364801F0BFF9DFF8F0A0C2B24FF6FF7392
:10457000324933488AF80020FDF7B8FFE7B14FF41D
:10458000FA60FFF76DF9236A2E4A03F57A739342B6
:104590002362AED900232C4928482B706B706B77AF
:1045A0002B6201F0EFF920224FF6FF7323492448D4
:1045B0008AF80020FDF79AFF00241E4D1C4B59F885
:1045C000240033F824100022FDF79AFA38F824105A
:1045D00055F8240000220134FDF792FAE3B29E421E
:1045E000ECD84FF4FA60FFF73BF977E40022104B68
:1045F0000EF80B2033F82B1059F82B00FDF780FA3A
:1046000001229CE7FF220A4B0EF80B2033F82B10F7
:1046100059F82B000022FDF773FA0648013F0022EB
:1046200038F82B1050F82B007FB2FDF769FA8FE7AE
:104630000C0000203C000020566C0008B9510020FE
:10464000F4530020C02709006C6C00081C000020F7
:10465000745200202C0000203952002008B50A4D69
:104660000A4CEA7852B1012A03D111462046FDF7DF
:104670004CFA4FF4FA70FFF7F3F8F2E70121204605
:10468000FDF73EFAF5E700BF685200200010014038
:10469000002330B57C4C87B003930493059300F05E
:1046A00095F900F0EBF9237803A8782B84BF012358
:1046B0002370FCF7ADFA049A039B744D1344059ADA
:1046C0007348134401221146EB82FDF719FA642066
:1046D000FCF78CFA002201216D48FDF711FA2078D1
:1046E00000F022F9032200210120FEF735FC694A7F
:1046F000106020B100231A461946FEF74FFCEA8AE3
:104700006549664801F0EEF86448FBF791FD4FF605
:10471000FF7382B261496248FDF7E8FEFEF756FB7F
:10472000604902465D4801F0DDF85C48FBF780FD1A
:104730000024012582B24FF6FF7358495848FDF70F
:10474000D5FE2346C8225849019400955748FEF7E4
:1047500063FEFEF73BFB56490246504801F0C2F8A3
:104760004E48FBF765FD4FF6FF7382B24B494C484C
:10477000FDF7BCFE2346C8224E49019400954E48E1
:10478000FEF74AFEFEF722FB4C490246434801F081
:10479000A9F84248FBF74CFD4FF6FF7382B23F4940
:1047A0003F48FDF7A3FE23464FF4007244490194AD
:1047B00000954448FEF730FEFEF708FB42490246EA
:1047C000364801F08FF83548FBF732FD4FF6FF739E
:1047D00082B232493248FDF789FE03234FF400725A
:1047E00000933A49234601943948FEF715FEFEF737
:1047F000EDFA38490246294801F074F82748FBF7DA
:1048000017FD4FF6FF7382B224492548FDF76EFE6F
:1048100023464FF448723049019400952F48FEF723
:10482000FBFDFEF7D3FA2E4902461C4801F05AF868
:104830001A48FBF7FDFC4FF6FF7382B21749184880
:10484000FDF754FE224640210220FEF785FB254B52
:104850001860FEF7BBFA24490246104801F042F8FE
:104860000E48FBF7E5FC4FF6FF7382B20B490C488C
:10487000FDF73CFE2A461D490948FDF793FE1C48FA
:10488000FCF7ACFB07B030BD3C5200206852002062
:10489000001001407C5300208D6C0008B9510020AD
:1048A000F4530020A06C0008B16C00085D460008BD
:1048B000B76C0008CF6C000869530008D46C00087E
:1048C000EB6C00089D3C0008F46C00080F6D0008BC
:1048D000614E0008176D0008316D0008B13E0008F8
:1048E000376D000840540020506D000844540020EB
:1048F000C453002010B5084C02460849204600F079
:10490000F1FF074BC2B21A702146BDE810404FF4C8
:1049100000530448FDF7EABDA85100207B6D000854
:10492000B8510020F4530020F8B50746204D214C23
:1049300000224FF400612846FDF7E2F83220FCF730
:1049400055F94FF4005307221B492046FDF7CEFDD1
:10495000C820FCF74BF9194E4FF4005307221849B1
:104960002046FDF7C3FDC820FCF740F93A4615493B
:10497000304600F0B7FF144BC2B21A7031464FF404
:1049800000532046FDF7B2FDC820FCF72FF928465A
:1049900001224FF40061FDF7B3F83220FCF726F94D
:1049A0004FF4964320466360BDE8F840FDF770BDC4
:1049B00000080140F4530020686D0008A851002051
:1049C000706D0008916B0008B851002001210D4B5B
:1049D000002219710621997628211A705A70DA700E
:1049E0005A71DA801A815A819A81DA811A825A823E
:1049F0009A82DA821A765A76D9761A775A77DA83D1
:104A00001A62704768520020F0B587B0FCF794FE38
:104A100000230293134B01A90493012302A80593D9
:104A2000FCF73AFF10B11048FFF764FF0D4C0F4E32
:104A30000F4F104D04F17843A3F5FC339A592146EA
:104A400000230220FCF7BEFE10B13846FFF752FFEC
:104A50000434AC42EED1FCF781FE0748FFF74AFF71
:104A600007B0F0BD00F80108996D00083C52002025
:104A7000AC6D00082CF80108BF6D00080A4810B59D
:104A8000FFF738FF094B0A480A491C6803F17842CE
:104A90000433A2F5FC328B421450F6D10648BDE82F
:104AA0001040FFF727BF00BF7E6D000800F8010827
:104AB0003C5200202CF801088D6D0008382230B5DA
:104AC0009DB00DEB0200002100F003FF1422002135
:104AD00001A800F0FEFE2022002106A800F0F9FE49
:104AE0004FF4803302240125109317934FF4E01301
:104AF0000EA818930E9513951694FDF717F80F232B
:104B00004FF4806201930023214601A8039304928D
:104B100005930294FDF758FA4FF4004306A8089352
:104B20000694FDF723FB024B1D601DB030BD00BF96
:104B3000700042422DE98048914D91B0FCF732F867
:104B4000FFF7BCFF1022002108A800F0C2FEAB69ED
:104B5000002243F02003AB61AB6940F2C13103F0A6
:104B600020030193019BAB69864843F01003AB61BE
:104B7000AB69002403F010030293029BAB6901268A
:104B800043F00403AB61AB694FF0020803F0040388
:104B90000393039BAB694FF4006743F00803AB61D9
:104BA000AB694FF4602B03F008030493049BFCF7FC
:104BB000A7FF00224FF470417348FCF7A1FF0122C8
:104BC0004FF400617148FCF79BFF40F2C13308A924
:104BD0006C48089309960A940B96FCF7ABFE4FF4C9
:104BE000806308A96848089309940A94FCF7A2FE18
:104BF000674B08A9644808970993CDF82880FCF70B
:104C000099FE4FF4704308A95F48089309960A94E7
:104C10000B96FCF78FFE08A95C48089709960A9442
:104C20000B96FCF787FE4FF4805308A9574808936A
:104C300009940A94FCF77EFE224621462820FCF7C0
:104C400035FB2820FCF766FB6B69224633436B611A
:104C50006B690521334000930E20009BFCF726FB77
:104C60000E20FCF757FB202221460DEB0200494D98
:104C700005940694079400F02CFE474B04272B6004
:104C80004FF480734FF0070A4FF4E0492846AB60B9
:104C9000EC606C61C5F81CB06C602E61FCF71EF90D
:104CA00005A92846059406960794FCF739F808A943
:104CB0002846089409960C97CDF828A0CDF83C908A
:104CC0000E940D940B94FCF7F3F908A92846CDF83F
:104CD00024800896FCF7ECF9CDF820804FF003080B
:104CE00008A92846CDF82480FCF7E2F908A928464F
:104CF000CDF820800997FCF7DBF92022274D0DEB3A
:104D00000200214605940694079400F0E2FD244B2E
:104D100028462B60AC60EC606C61C5F81CB06C6020
:104D20002E61FCF7DBF805A928460597069607943F
:104D3000FBF7F6FF08A92846089709960C96CDF8C8
:104D400028A0CDF83C900E940D940B94FCF7B0F98C
:104D50004FF416531348144A846080E80C000C2367
:104D6000C460436104618461C461FDF791FB4FF449
:104D7000FA60FBF73BFFFFF78BFCFDF7A1FDFEE7B9
:104D80000010024000100140000C014000080140EA
:104D900000001110C4530020002401404C53002097
:104DA00000280140F4530020003801400268144BF1
:104DB00013B59A4222D1134B1A780D2A19D0124CEE
:104DC00012492378CA540133DBB2402B08BF0023B9
:104DD0000A2A23700DD122780C490D4800F06EFD8F
:104DE0000C48002301AA0A490068FEF78DF9002348
:104DF0002370012203490848FDF7D4FB02B010BD1F
:104E000000380140445400203A520020C052002093
:104E10000053002040540020F453002038B50268AD
:104E20000C4B05469A4213D10121FCF731F90A4C8B
:104E3000022120802846FCF72BF9032160802846B8
:104E4000FCF726F90421A0802846FCF721F9E08030
:104E500038BD00BF002401404453002070470000CB
:104E60002DE9F047A24F00253C469AB04022002190
:104E70000AA8A04E00F02DFDADF824508DF81F506B
:104E80008DF82050ADF826508DF82150DFF89C8227
:104E900000234FF0FF320AA9D8F80000FEF796F978
:104EA0000128F5D10023FB839DF828306D3B0B2BA7
:104EB000ECD801A252F823F0554F00088D4E00089F
:104EC000E94E00088D4E00088D4E00088D4E0008FA
:104ED000CB5000088D4E00088D4E00088D4E000806
:104EE0008D4E00086552000809AA83490AA800F0FF
:104EF0001DFDE28ABDF824309A42C7D100232377F2
:104F000063786279012B08BF2377910748BF237F1D
:104F10007A4844BF43F002032377530748BF237FF7
:104F2000774A44BF43F003032377217FE389528804
:104F30000391A18A0291618A0191218A00917149AC
:104F400000F0D0FC704BC2B26C4970481A70FDF78B
:104F500051FB9BE708AB009309AA0DF11F036C49B5
:104F60000AA800F0E3FC9DF83230E28A8DF8203088
:104F7000BDF824309A4289D1002323776378604AB0
:104F8000012B08BF23776379DFF87C9113F0020AC5
:104F90000ED052885F49594800F0A4FC5749C2B26C
:104FA0005A4889F80020FDF725FB002363716DE75F
:104FB00013F004080ED052885749504800F092FC74
:104FC0004E49C2B2514889F80020FDF713FB84F81E
:104FD00005A05BE7617EE38952880591217E474801
:104FE0000491217F0391A18A0291618A0191218A12
:104FF00000914A4900F076FC4049C2B2434889F822
:105000000020FDF7F7FA9DF8202095423FF43EAFCF
:105010006379012B3FF43AAF12F0010218BF01226D
:105020004FF480513E4884F80180FCF769FD9DF8FB
:1050300020204FF4005112F0020218BF012238481C
:10504000FCF75EFD9DF820204FF4804112F0040231
:1050500018BF01223248FCF753FD9DF820204FF481
:10506000004112F0080218BF01222D48FCF748FD4C
:105070009DF82020402112F0100218BF012229487B
:10508000FCF73EFD9DF82020802112F0200218BF81
:1050900001222448FCF734FD9DF820204FF4807154
:1050A00012F0400218BF01221E48FCF729FD9DF9AD
:1050B00020304FF40071002BB4BF012200221948A8
:1050C000FCF71EFD9DF82050E0E69DF82930782B76
:1050D0002ED109AA14490AA800F028FCE28ABDF8DA
:1050E00024309A427FF4D2AE00236370CEE600BF34
:1050F0006852002000080140C96D0008B951002025
:105100003C520020D16D000839520020F453002099
:10511000EC6D0008FA6D0008026E00080C6E0008C5
:10512000000C0140001001402D6E0008405400208A
:105130002C2B7FF4ABAE0DF1230305930DF122036D
:1051400004930DF121030393784B79499A1E019240
:105150001A1F02930092063B09AA0AA800F0E6FB78
:10516000E28ABDF824309A427FF490AE6379002B36
:105170007FF48CAE9DF82120312A1CBF01222271C0
:105180006C4A04BF2371236202F1080110880232C5
:10519000B0F57A6F84BFD08822F8020C8A42F5D12C
:1051A0009DF822209DF82310A2F13000C0B23129D1
:1051B000A07614D11E21E176A2F13201C9B20429F0
:1051C00016D95D495D4800F0DDFB17225C4B5B4959
:1051D0001A705C484FF6FF73FDF788F956E63229DE
:1051E00001D13C21E7E733290CBF5A212821E2E70E
:1051F000062814D14D4A02F1080132F8020F20B1FD
:1052000032F8080C08B10133DBB29142F5D1042B1E
:1052100026D04D49494800F0B5FB1322D6E7343A71
:10522000012A0DD8414A911D32F8020F20B132F8FF
:10523000080C08B10133DBB28A42F5D1032BE7E752
:1052400001290DD8E3891BB1E388003318BF01237E
:10525000228A002ADDD02289002ADAD0002BD8D079
:10526000012342E794F80380B8F1010F7FF40EAEFA
:105270009DF829303F2B0CD1344A35490AA800F05B
:1052800055FB344AE38A528833492C4800F02AFB04
:1052900058E6632B7FF4FAAD0DF1260309AA2F49D6
:1052A0000AA800F043FBE28ABDF824309A427FF45A
:1052B000EDADBDF82630DFF89C9089F80030FFF79F
:1052C000A3FBB9F8022026491C4800F00BFBDFF8CD
:1052D0007090C2B219491B4889F80020FDF78AF97D
:1052E000C820FEF7BDFA00224FF400613046FCF7FB
:1052F00007FC3220FEF7B4FABDF8262019490F4802
:1053000000F0F0FA0D49C2B20E4889F80020FDF70E
:1053100071F93220FEF7A4FA42464FF4006130469C
:10532000FCF7EEFB0023E370B0E500BF74520020F1
:10533000366E00086E520020576E0008B9510020EA
:1053400039520020F45300206F6E00083E520020B6
:10535000836E00083C5200208B6E0008996E000896
:10536000A66E0008916B00082DE9F84F01254FF05B
:10537000000BA946DFF850A28D4E8E4C4FF48051A1
:105380005046FCF7B7FB4FF4806180463046FCF78F
:10539000B1FBC145074601D1854240D00120FEF74F
:1053A0005FFA4FF480515046FCF7A4FB4FF4806144
:1053B00080463046FCF79EFBC145074601D1854239
:1053C0002DD0B8F1000F00D047BB4FF001097A4D46
:1053D0007A4BEA899A842A8ADA846A8A1A85AA8A9E
:1053E0005A85FFF711FB00224FF40061504685F803
:1053F0000390FCF785FB3220FEF732FA0822704951
:105400004FF400536F48FDF771F83220FEF728FA89
:105410004A464FF400615046FCF772FBC1464FF418
:1054200000613046FCF766FB8345804600F0BA8099
:105430000120FEF715FA4FF400613046FCF75AFBE5
:105440008345804600F0AE80002800F0AB8000224B
:105450004FF480513046FCF753FB00224FF40051CB
:105460003046FCF74DFB00224FF480413046FCF7FC
:1054700047FB00224FF400413046FCF741FB00227D
:1054800040212046FCF73CFB002280212046FCF70F
:1054900037FB00224FF480712046FCF731FB0022DD
:1054A0004FF400712046FCF72BFB434B00255A7943
:1054B000204642F002025A71012211465D70FCF74B
:1054C0001FFB6420FEF7CCF901212046FCF71DFBF1
:1054D000C820FEF7C5F901212046FCF716FB642021
:1054E000FEF7BEF92A4601212046FCF709FBC82039
:1054F000FEF7B6F901212046FCF707FB6420FEF712
:10550000AFF92A4601212046FCF7FAFAC820FEF737
:10551000A7F901212046FCF7F8FA6420FEF7A0F96C
:105520002A4601212046FCF7EBFAC820FEF798F93D
:1055300001212046FCF7E9FA6420FEF791F92A469A
:1055400001212046FCF7DCFA2A464FF48051304610
:10555000FCF7D6FA2A464FF400513046FCF7D0FA51
:105560002A464FF480413046FCF7CAFA2A464FF4E7
:1055700000413046FCF7C4FA2A4640212046FCF799
:10558000BFFA2A4680212046FCF7BAFA2A464FF491
:1055900080712046FCF7B4FA2A464FF40071204689
:1055A000FCF7AEFA0520FEF75BF9C3463D46E5E69B
:1055B000000C014000100140685200203C520020C5
:1055C000B36E0008F453002000080140114B07B5EA
:1055D0009A690F2142F001029A619A696FF0010005
:1055E00002F001020092009ADA6942F08052DA6118
:1055F000DB69002203F080530193019BFBF756FE09
:10560000054A536823F0E06343F00073536003B02E
:105610005DF804FB001002400000014030B510248A
:10562000054689B0224600210DEB040000F051F937
:105630002B68224A934225D1214B0DEB04019A6934
:1056400042F400729A619A6902F400720092009A20
:105650009A6942F004029A619B6903F00403019382
:10566000019B0F230493032305931648FCF762F96B
:10567000122000220521FBF719FE1220FBF74AFE3B
:1056800009B030BD104A9342FAD10D4B04A99A6972
:1056900042F480629A619A6902F480620292029AEC
:1056A0009A6942F004029A619B69049403F004032E
:1056B0000393039B03230593D7E700BF0024014016
:1056C000001002400008014000280140F0B51027FA
:1056D000064687B03A46002102A800F0FAF8326880
:1056E000244B9A4243D103F558439A6902A942F4E4
:1056F00080429A619A69204802F480420092009A9E
:105700009A69002542F004029A619B691B4C03F0E0
:1057100004030193019B4FF400730293022303934C
:1057200003230593FCF706F94FF48063124802A99E
:10573000029303950495FCF7FDF8114B204684E88D
:1057400088008023A560E36025616561A561E5614E
:10575000FBF702FE08B1FFF781FB2520346300222E
:1057600005216662FBF7A2FD2520FBF7D3FD07B0FC
:10577000F0BD00BF00380140000801408053002008
:10578000440002407047FEE7FEE7FEE7FEE7704791
:1057900008B5FBF719FABDE80840FDF796B8000018
:1057A0000148FBF7C5BE00BF8053002008B5044880
:1057B000FBF740FABDE808400248FBF73BBA00BFE0
:1057C000C45300204C5300200148FCF7D1BF00BF58
:1057D000F45300204FF40060FCF79CB908B50A4B65
:1057E0000246196809B909491960694618680244EE
:1057F0008A4206D900F05CF80C2303604FF0FF30BA
:1058000008BD1A6008BD00BF905200204C54002013
:10581000124B1A6842F001021A605968104A0A4095
:105820005A601A6822F0847222F480321A601A6870
:1058300022F480221A605A6822F4FE025A601A6822
:1058400022F0A0521A604FF47F029A600022DA62BE
:105850004FF00062034B9A60704700BF0010024097
:105860000000FFF000ED00E0002103E00A4B5B5870
:105870004350043109480A4B42189A42F6D3094A68
:1058800002E0002342F8043B074B9A42F9D3FFF7AA
:10589000BFFFFFF74FF97047A0700008000000201D
:1058A00020020020200200204C540020FEE70000CF
:1058B000014B1868704700BF5000002010B5431E10
:1058C0000A44914200D110BD11F8014B03F8014F79
:1058D000F7E703460244934200D1704703F8011BE7
:1058E000F9E700000EB44FF4027100B59CB0ADF8BA
:1058F00014106FF00041049107914FF6FF711DAB3A
:1059000002900690084853F8042BADF81610006872
:1059100002A9019300F09AF80022029B1A701CB0B1
:105920005DF804EB03B07047500000200EB44FF454
:10593000017230B59CB01FAC54F8045BADF8142074
:1059400002900690FAF774FC0B4B03900B93002324
:105950000F9314934FF6FF7307900848ADF8163075
:105960002A46234602A90068019400F0BDF91CB044
:10597000BDE8304003B07047815900085000002056
:1059800000207047034611F8012B03F8012B002A71
:10599000F9D170472DE9F0478E6882469E420C4649
:1059A0009146984635D88A8912F4906F31D00223F7
:1059B000256809696F1A656905EB450595FBF3F5DF
:1059C00008F101033B449D4238BF1D46530531D5C4
:1059D000294600F0F1FF064650B90C23CAF8003002
:1059E000A3894FF0FF3043F04003A381BDE8F08767
:1059F0003A462169FFF762FFA38923F4906343F0DD
:105A00008003A38126613E44266046466561ED1B06
:105A1000A560464528BF464649463246206800F004
:105A200065FFA36800209B1BA36023681E442660BB
:105A3000BDE8F0872A4601F01DF806460028E1D1AE
:105A40002169504600F06CFFC7E700002DE9F04FD8
:105A50009DB003938B8980461C060D4616460FD5D4
:105A60000B696BB9402100F0A7FF2860286128B9B5
:105A70000C23C8F800304FF0FF30C4E040236B61C6
:105A80000023099320238DF8293030234FF0010B98
:105A90008DF82A3037463C4614F8013B002B3CD1A8
:105AA000B7EB060A0BD05346324629464046FFF76D
:105AB00071FF013000F0A280099B534409933B78A9
:105AC000002B00F09B8000234FF0FF3204930793DC
:105AD000059206938DF853301A9305222178504889
