:020000040800F2
:1000000000000120E95300080553000807530008C9
:10001000095300080B5300080D53000800000000AE
:10002000000000000000000000000000E1290008BE
:100030000F53000800000000712A00081153000847
:100040002D5400082D5400082D5400082D5400088C
:100050002D5400082D5400082D5400082D5400087C
:100060002D5400082D5400082D5400082D5400086C
:100070002D5400082D540008215300082D54000869
:100080002D5400082D5400082D5300082D5400084D
:100090002D5400082D5400082D5400082D5400083C
:1000A0002D5400082D5400082D5400082D5400082C
:1000B0002D5400082D5400082D5400082D5400081C
:1000C0002D5400082D5400082D5400082D5400080C
:1000D0002D540008495300082D5400082D540008E1
:1000E000555300082D5400082D540008000000004E
:1000F0000000000000000000000000000000000000
:1001000000000000000000002D5400082D540008DD
:100110002D5400082D5400082D5400082D540008BB
:100120002D5400082D5400082D5400082D540008AB
:100130002D54000800000000000000002D540008AD
:100140002D5400082D5400082D5400082D5400088B
:10015000000000000000000000000000000000009F
:10016000000000000000000000000000000000008F
:10017000000000000000000000000000000000007F
:10018000000000000000000000000000000000006F
:10019000000000000000000000000000000000005F
:1001A000000000000000000000000000000000004F
:1001B000000000000000000000000000000000003F
:1001C000000000000000000000000000000000002F
:1001D000000000000000000000000000000000001F
:0401E0005FF8E0F1F3
:1001F00010B5054C237833B9044B13B10448AFF361
:1002000000800123237010BD2002002000000000A8
:100210009066000808B5034B1BB103490348AFF3D0
:10022000008008BD00000000240200209066000845
:10023000034613F8012B002AFBD1181A0138704726
:10024000D0400B1CD1409C46203AD3401843524228
:10025000634693401843704780F0004002E000BFBF
:1002600081F0004142001FBF5FEA410392EA030FA1
:100270007FEA226C7FEA236C6AD04FEA1262D2EBEB
:100280001363C1BFD218414048404140B8BF5B42F0
:10029000192B88BF704710F0004F40F4000020F089
:1002A0007F4018BF404211F0004F41F4000121F09F
:1002B0007F4118BF494292EA030F3FD0A2F10102E9
:1002C00041FA03FC10EB0C00C3F1200301FA03F127
:1002D00000F0004302D5494260EB4000B0F5000F4A
:1002E00013D3B0F1807F06D340084FEA310102F109
:1002F0000102FE2A51D2B1F1004F40EBC25008BFBB
:1003000020F0010040EA03007047490040EB000084
:1003100010F4000FA2F10102EDD1B0FA80FCACF1B3
:10032000080CB2EB0C0200FA0CF0AABF00EBC250B2
:1003300052421843BCBFD0401843704792F0000FA0
:1003400081F4000106BF80F400000132013BB5E7F3
:100350004FEA41037FEA226C18BF7FEA236C21D069
:1003600092EA030F04D092F0000F08BF08467047CE
:1003700090EA010F1CBF0020704712F07F4F04D19C
:10038000400028BF40F00040704712F100723CBFAF
:1003900000F50000704700F0004343F0FE4040F4D9
:1003A000000070477FEA226216BF08467FEA236397
:1003B0000146420206BF5FEA412390EA010F40F482
:1003C000800070474FF0000304E000BF10F00043CE
:1003D00048BF40425FEA000C08BF704743F09643B5
:1003E00001464FF000001CE050EA010208BF7047D0
:1003F0004FF000030AE000BF50EA010208BF704757
:1004000011F0004302D5404261EB41015FEA010C6B
:1004100002BF84460146002043F0B64308BFA3F163
:100420008053A3F50003BCFA8CF2083AA3EBC25345
:1004300010DB01FA02FC634400FA02FCC2F1200264
:10044000BCF1004F20FA02F243EB020008BF20F09B
:100450000100704702F1200201FA02FCC2F1200201
:1004600050EA4C0021FA02F243EB020008BF20EAF6
:10047000DC7070474FF0FF0C1CEAD0521EBF1CEA24
:10048000D15392EA0C0F93EA0C0F6FD01A4480EA12
:10049000010C400218BF5FEA41211ED04FF00063FB
:1004A00043EA501043EA5111A0FB01310CF0004027
:1004B000B1F5000F3EBF490041EAD3715B0040EA4D
:1004C000010062F17F02FD2A1DD8B3F1004F40EB1D
:1004D000C25008BF20F00100704790F0000F0CF0F0
:1004E000004C08BF49024CEA502040EA51207F3AB4
:1004F000C2BFD2F1FF0340EAC250704740F400008F
:100500004FF00003013A5DDC12F1190FDCBF00F07F
:1005100000407047C2F10002410021FA02F1C2F12D
:10052000200200FA02FC5FEA310040F1000053EAC9
:100530004C0308BF20EADC70704792F0000F00F017
:10054000004C02BF400010F4000F013AF9D040EA1D
:100550000C0093F0000F01F0004C02BF490011F4B1
:10056000000F013BF9D041EA0C018FE70CEAD153AF
:1005700092EA0C0F18BF93EA0C0F0AD030F0004C2F
:1005800018BF31F0004CD8D180EA010000F00040E3
:10059000704790F0000F17BF90F0004F084691F0A1
:1005A000000F91F0004F14D092EA0C0F01D14202DB
:1005B0000FD193EA0C0F03D14B0218BF084608D1A4
:1005C00080EA010000F0004040F0FE4040F40000EE
:1005D000704740F0FE4040F4400070474FF0FF0C81
:1005E0001CEAD0521EBF1CEAD15392EA0C0F93EAC8
:1005F0000C0F69D0A2EB030280EA010C49024FEA1A
:10060000402037D04FF0805343EA111143EA1013D2
:100610000CF000408B4238BF5B0042F17D024FF48A
:10062000000C8B4224BF5B1A40EA0C00B3EB510F65
:1006300024BFA3EB510340EA5C00B3EB910F24BF4E
:10064000A3EB910340EA9C00B3EBD10F24BFA3EBD3
:10065000D10340EADC001B0118BF5FEA1C1CE0D19B
:10066000FD2A3FF650AF8B4240EBC25008BF20F04E
:10067000010070470CF0004C4CEA50207F32C2BFA2
:10068000D2F1FF0340EAC250704740F400004FF03F
:100690000003013A37E792F0000F00F0004C02BF70
:1006A000400010F4000F013AF9D040EA0C0093F03A
:1006B000000F01F0004C02BF490011F4000F013B94
:1006C000F9D041EA0C0195E70CEAD15392EA0C0FFC
:1006D00008D142027FF47DAF93EA0C0F7FF470AF34
:1006E000084676E793EA0C0F04D14B023FF44CAF77
:1006F00008466EE730F0004C18BF31F0004CCAD10C
:1007000030F000427FF45CAF31F000437FF43CAF47
:100710005FE700BF4FF0FF3C06E000BF4FF0010C69
:1007200002E000BF4FF0010C4DF804CD4FEA40024B
:100730004FEA41037FEA226C18BF7FEA236C11D095
:1007400001B052EA530C18BF90EA010F58BFB2EB48
:10075000030088BFC81738BF6FEAE17018BF40F0C8
:10076000010070477FEA226C02D15FEA402C05D17C
:100770007FEA236CE4D15FEA412CE1D05DF8040B01
:10078000704700BF844608466146FFE70FB5FFF794
:10079000C9FF002848BF10F1000F0FBD4DF808ED4C
:1007A000FFF7F4FF0CBF012000205DF808FB00BF3D
:1007B0004DF808EDFFF7EAFF34BF012000205DF897
:1007C00008FB00BF4DF808EDFFF7E0FF94BF0120E4
:1007D00000205DF808FB00BF4DF808EDFFF7D2FFE1
:1007E00094BF012000205DF808FB00BF4DF808ED24
:1007F000FFF7C8FF34BF012000205DF808FB00BFF1
:100800004FEA4002B2F1FE4F0FD34FF09E03B3EB1D
:1008100012620DD94FEA002343F0004310F0004F5D
:1008200023FA02F018BF404270474FF000007047B3
:1008300012F1610F01D1420205D110F0004008BF52
:100840006FF0004070474FF00000704753B94AB94D
:10085000002908BF00281CBF4FF0FF314FF0FF30C8
:1008600000F07AB9ADF1080C6DE904CE00F006F89D
:10087000DDF804E0DDE9022304B070472DE9F0471C
:100880008C460E460446089D002B50D18A421746DE
:100890006CD9B2FA82FEBEF1000F0BD0CEF1200C63
:1008A00001FA0EF620FA0CFC02FA0EF74CEA060CDE
:1008B00000FA0EF43A0CBCFBF2F9BBB202FB19CC05
:1008C00009FB03FA4FEA144848EA0C46B2450AD934
:1008D000F61909F1FF3180F02581B24540F22281FD
:1008E000A9F102093E44A6EB0A06B6FBF2F002FBB0
:1008F000106600FB03F3A4B244EA0644A34209D9FC
:10090000E41900F1FF3280F00B81A34240F208812C
:1009100002383C440021E41A40EA0940002D62D02C
:10092000002324FA0EF42C606B60BDE8F0878B4244
:1009300007D9002D55D0002185E841000846BDE8C3
:10094000F087B3FA83F1002940F08F80B34202D3DD
:10095000824200F2FC80841A66EB03060120B44652
:10096000002D40D085E81010BDE8F08712B90127AE
:10097000B7FBF2F7B7FA87FEBEF1000F35D10121C0
:10098000F61B4FEA174C1FFA87F8B6FBFCF20CFB7C
:10099000126608FB02F0230C43EA0646B04207D970
:1009A000F61902F1FF3302D2B04200F2D2801A46A9
:1009B000361AB6FBFCF00CFB106608FB00F8A3B27D
:1009C00043EA0644A04507D9E41900F1FF3302D2F7
:1009D000A04500F2B9801846A4EB080440EA0240A2
:1009E0009CE729462846BDE8F08707FA0EF7CEF1C6
:1009F000200326FA03F24FEA174CB2FBFCF11FFA70
:100A000087F80CFB112206FA0EF620FA03F301FB1D
:100A100008F933431E0C46EA0246B14500FA0EF4CB
:100A200009D9F61901F1FF3280F08C80B14540F20E
:100A3000898002393E44A6EB0906B6FBFCF00CFBAC
:100A4000106200FB08F99EB246EA0246B14507D99A
:100A5000F61900F1FF3371D2B1456FD902383E4427
:100A6000A6EB090640EA01418FE7C1F1200722FA0F
:100A700007F88B4048EA030326FA07F44FEA134EBF
:100A8000B4FBFEF91FFA83FC0EFB19448E4020FADA
:100A900007F809FB0CFA48EA06084FEA184646EA46
:100AA0000444A24502FA01F200FA01F608D9E4185A
:100AB00009F1FF3044D2A24542D9A9F102091C44F0
:100AC000A4EB0A04B4FBFEF00EFB104400FB0CFC8C
:100AD0001FFA88F848EA0444A44507D9E41800F14D
:100AE000FF3E29D2A44527D902381C4440EA0940D8
:100AF000A0FB0289A4EB0C0CCC45C246CE4615D314
:100B000012D055B1B6EB0A036CEB0E0606FA07F7E6
:100B1000CB401F43CE402F606E600021BDE8F087C0
:100B20001046F7E68946DEE64645EAD2B8EB020A09
:100B300069EB030E0138E4E77046D7E718468FE704
:100B40008146BDE7114676E702383C4444E7084653
:100B500006E7023A3E442BE7704700BF38B50E4B1C
:100B6000054618784FF47A73B3FBF0F30B4A10681C
:100B7000B0FBF3F000F0DAFB044658B90F2D09D8AA
:100B8000024629464FF0FF3000F090FB044B204610
:100B90001D6038BD012038BD000000204C00002041
:100BA00004000020074A08B51368032043F010032F
:100BB000136000F069FB0F20FFF7D0FF04F0C6FAC6
:100BC000002008BD00200240034A044B11681B7836
:100BD0000B441360704700BF8C52002000000020BF
:100BE000014B1868704700BF8C52002038B504468E
:100BF000FFF7F6FF0546631C1EBF044B1B78E41885
:100C0000FFF7EEFF401B8442FAD838BD00000020F9
:100C1000044B1B680360044B1B684360034B1B6859
:100C200083607047E8F7FF1FECF7FF1FF0F7FF1F27
:100C300070477047036810B55A680446900627D578
:100C40001A68910724D5A26AD2065EBFA26A42F44E
:100C50000072A2629A6802F46022B2F5602F10D18D
:100C6000E26872B95A6822F020025A60A36A23F43B
:100C70008073A362A36ADB045EBFA36A43F001032F
:100C8000A3622046FFF7D4FF6FF0120223681A60B8
:100C900023685A68100630D51A6851072DD5A26A04
:100CA000D2065EBFA26A42F40052A2629A6802F4BF
:100CB000E042B2F5E04F0AD05A68500516D49A685F
:100CC00002F46022B2F5602F10D1E26872B95A685E
:100CD00022F080025A60A36A23F48053A362A36ABD
:100CE000D9055EBFA36A43F00103A362204603F067
:100CF0007DFF6FF00C0223681A6023685A68520661
:100D00000DD51B68DB070AD5A36A204643F4803360
:100D1000A362FFF78EFF6FF0010223681A6010BD17
:100D2000002373B5019390F82430012B74D0012374
:100D30004D6880F82430062D02684FEA85030C6860
:100D400025D82B441F25566B053B9D4026EA0505FB
:100D500004FA03F32B435363092C4FEA44038D68D1
:100D60002FD907262344D1681E3B9E4021EA060165
:100D700005FA03F30B43D360A4F11003012B2BD925
:100D80000023002280F82420184602B070BD0C2DEC
:100D90000BD82B441F25166B233B9D4026EA0505E7
:100DA00004FA03F32B431363D6E72B441F25D66ABB
:100DB000413B9D4026EA050504FA03F32B43D36229
:100DC000CAE70726116923449E4021EA060105FA75
:100DD00003F30B431361CFE7104B9A4216D193688C
:100DE0001B02CDD49368102C43F400039360C7D149
:100DF0000B4B0C4A1B68B3FBF2F20A2353430193DB
:100E0000019B002BBCD0019B013BF8E7836A43F0B8
:100E1000200383620123B4E70223B5E700240140E5
:100E20004C00002040420F00002373B5019303687B
:100E300004469A68D20702D5002002B070BD9A68B5
:100E400042F001029A60124B124A1B68B3FBF2F3A4
:100E50000193019BC3B9FFF7C3FE064623689D6853
:100E600015F00105E8D1FFF7BBFE801B0228F5D97C
:100E7000A36A84F8245043F01003A362E36A0120BC
:100E800043F00103E362D8E7019B013BE0E700BFC9
:100E90004C00002040420F0038B5036804469A68B1
:100EA000D20701D4002038BD9A6822F001029A606E
:100EB000FFF796FE054623689B68DB07F2D5FFF730
:100EC0008FFE401B0228F6D9A36A012043F01003CD
:100ED000A362E36A43F00103E36238BD70B50446E0
:100EE000002871D0836A23B9C36280F8243004F0EB
:100EF00055F92046FFF7D0FFA36A13F0100FA36A3D
:100F000064D1002862D1E16923F48853626823F038
:100F1000020343F002030A43A168A362E368B1F548
:100F2000807F42EA430238D0012914BF06464FF4BD
:100F300080766569012D07D1002B30D1A369013B73
:100F400046EA433545F400662368B1F5807F5D6865
:100F500025F4694545EA06055D609E681D4D05EA74
:100F6000060545EA02059D6001D0012920D12169CD
:100F700001390905DD6A25F470052943D9629968AC
:100F8000154B0B409A4215D10023E362A36A23F06C
:100F9000030343F00103A36270BD0E46C9E7A36AD1
:100FA00043F02003A362E36A43F00103E362CBE76B
:100FB0000021DFE7A36A23F0120343F01003A362CA
:100FC000E36A43F00103E362012070BD43F01003C4
:100FD000A362F9E7FDF7E1FFFE0E1FFF90F8243052
:100FE00010B5012B04464ED0012380F82430FFF7C2
:100FF0001BFF002843D1A36A244A23F4405323F063
:10100000010343F48053A3622368934205D1A2F500
:101010008062526812F4702F29D1A26A22F48012E1
:10102000A262A26A12F4807208BFE262002284F80F
:1010300024206FF004021A605A6842F080025A605D
:101040005A68520520D49A6802F4E042B2F5E04FA3
:1010500011D10E4A934205D1A2F58062526812F472
:10106000702F08D19A6842F402129A6010BDA26AE9
:1010700042F48012D4E79A6842F40042F5E7002374
:1010800084F8243010BD022010BD00BF00280140AC
:101090000329036807D0042903D0022905D1186C5D
:1010A0007047986C7047586C7047D86B7047000059
:1010B000F7B50246002092F824300190012B00F091
:1010C000D8800127D2F808E082F824704E681368AF
:1010D0000D68BEF1000F7BD1BE4273D170469C6B90
:1010E000A40DA40544EAC5349C639C68E40707D4B6
:1010F0009C68CF6924F4E04424F001043C439C60E4
:101100008C69012C0DD1CF69B7F5E04F17BF906AFC
:101110005F6840F02000906212BF204647F480676D
:101120005F604F69012F05D1002C74D15C6844F4D5
:1011300080545C60092D4FEA4504D1F808E070D96D
:101140004FF0070C2C44DF681E3C0CFA04FC27EA25
:101150000C070EFA04F43C43DC60A5F11004012CEA
:1011600098BF9F68DFF81CE19CBF47F400079F60B1
:10117000022ECF6862D0032E66D0012E6AD1596943
:1011800001EA0E0139435961012C16D83A498B42C4
:1011900069D19968090210D49968102D41F40001B1
:1011A00099600AD1354B36491B68B3FBF1F10A232C
:1011B0004B430193019B002B52D1002382F8243032
:1011C00003B0F0BD946A384644F0200494628CE782
:1011D0000F69D3F838E0F41B04EB8404BE4204F139
:1011E0000F0410D807F1FF3C05FA04F747EA0C5743
:1011F0004FF01F0C0CFA04F444F440142EEA0404DB
:101200003C439C6371E71F2707FA04F444F440143D
:101210002EEA0404F5E7906A40F020009062384618
:1012200088E74FF0070C1F692C440CFA04FC27EAEE
:101230000C070EFA04F43C431C618EE7996901EA3D
:101240000E01394399619FE7D96901EA0E013943DB
:10125000D96199E7196A01EA0E013943196293E7E6
:10126000019B013BA5E7936A012043F020039362B1
:10127000A3E70220A4E700BF002401404C000020A7
:1012800040420F0000F0FFFF074A0002D36800F45D
:10129000E06023F4E0631B041B0C43F0BF6343F4E2
:1012A00000330343D360704700ED00E0174B30B5C7
:1012B000DC68C4F30224C4F10703251D042B28BFF6
:1012C0000423062D4FF0010598BF002405FA03F30F
:1012D00003F1FF3388BF033C1940A14005FA04F431
:1012E000013C2240002842EA01024FEA0212AFBF4D
:1012F00000F16040064B00F00F00D2B2A5BFD2B2A1
:1013000000F561401A5480F8002330BD00ED00E084
:1013100014ED00E00123420900F01F0003FA00F081
:10132000014B43F82200704700E100E00138B0F1C2
:10133000807F0AD2F021064B064A586082F82310BB
:101340000020072298601A6070470120704700BF94
:1013500010E000E000ED00E010B5002832D0016898
:10136000194B1424994225D8184AA3F207430A447A
:10137000B2FBF4F2920002648468C36343680A68B3
:101380002343C46822F47F522343046922F03002CD
:1013900023434469234384692343C4692343134398
:1013A0000B600122002380F82120836380F8203025
:1013B000184610BD064B0B44B3FBF4F39B000364CB
:1013C000044BD9E7012010BD07040240F8FFFDBF20
:1013D000F8FBFDBF00040240F0B590F82040012C5E
:1013E00035D0012490F8215080F82040A5424FF0DC
:1013F00000064FF0020428D180F82140046886637B
:101400002668076C26F001062660C66BBD40756035
:10141000636043680568102BC36A0BBFA260A160BC
:10142000E160E2604BB1236843F00E0323602B6858
:10143000002043F001032B60F0BD236823F0040378
:101440002360236843F00A03F0E780F8206002205D
:10145000F0BD000090F8213010B5022B03D004231A
:101460008363012010BD03681A6822F00E021A601F
:101470001A6822F001021A60294A934224D902F51F
:101480006272934219D01432934218D014329342AC
:1014900017D0143293420CBF4FF480534FF4803373
:1014A000204A53600123002480F82130436B80F8E8
:1014B00020409BB39847204610BD0123F0E710233E
:1014C000EEE74FF48073EBE717498B4216D01431E7
:1014D0008B4215D014318B4214D014318B4214D06E
:1014E00014318B4214D014318B4214D0934214BF68
:1014F0004FF480334FF080730C4AD2E70123FBE7AF
:101500001023F9E74FF48073F6E74FF48053F3E7C5
:101510004FF48033F0E74FF48013EDE7184610BD29
:101520008000024000040240080002400000024027
:1015300070B40425C66B026C34680368954025427C
:10154000196855D04D0753D51A6896065EBF1A68BC
:1015500022F004021A60604A93421FD902F56272B7
:10156000934214D01432934213D01432934212D0C7
:10157000143293420CBF4FF480434FF48023574AF8
:101580005360C36A002B00F0A58070BC1847042389
:10159000F5E74023F3E74FF48063F0E750498B42CF
:1015A00016D014318B4215D014318B4214D0143123
:1015B0008B4214D014318B4214D014318B4214D08E
:1015C000934214BF4FF480234FF08063454AD7E71E
:1015D0000423FBE74023F9E74FF48063F6E74FF479
:1015E0008043F3E74FF48023F0E74FF48003EDE707
:1015F00002259540254257D08D0755D51A68940687
:1016000006D41A6822F00A021A60012280F821200A
:10161000314A93421ED902F56272934213D01432BA
:10162000934212D01432934211D0143293420CBF21
:101630004FF400534FF40033284A5360002380F8DE
:101640002030836A9EE70223F6E72023F4E74FF475
:101650000073F1E722498B4216D014318B4215D02A
:1016600014318B4214D014318B4214D014318B427C
:1016700014D014318B4214D0934214BF4FF4003372
:101680004FF00073174AD8E70223FBE72023F9E75E
:101690004FF40073F6E74FF40053F3E74FF40033D1
:1016A000F0E74FF40013EDE708259540254211D0EF
:1016B00009070FD5196821F00E011960012303FAFB
:1016C00002F27260836380F82130002380F82030BA
:1016D000036B57E770BC7047800002400004024073
:1016E0000800024000000240114AD36813F01003C2
:1016F00005D01049CB6943F00203CB611023D268B7
:10170000500706D50B4943F00403CA6942F00102B1
:10171000CA61074AD169C90708D50648C16941F0BD
:101720000401C161D16921F00101D161D360704729
:101730000020024090520020064B186910F08000F3
:1017400007D0054A5A6002F188325A601869C0F31E
:10175000C01070470020024023016745034A002063
:10176000136943F080031361704700BF00200240FB
:10177000F8B50646FFF734FA114C07462546E368EC
:10178000D80712D4E368990644BF2023E360EB68CE
:10179000DA0606D4EB69DB0703D4E86810F004002E
:1017A00002D0FFF7A1FF0120F8BD731CE7D00EB9EE
:1017B0000320F8BDFFF714FAC01B8642DFD2F7E71B
:1017C000002002402DE9F84F1F4C9946237E054624
:1017D000012B0F46904633D001234CF25030237634
:1017E000FFF7C6FF40BB012D03D0022D0CBF022521
:1017F00004250026B246DFF854B03201404649467F
:10180000FEF71EFDC4F81CA0DBF8103080B243F0D8
:101810000103CBF8103027F816004CF25030FFF7D8
:10182000A7FFDBF8103023F00103CBF8103018B914
:101830000136F3B29D42E0D800232376BDE8F88F4D
:101840000220BDE8F88F00BF905200200020024027
:101850000022064BDA61064B1A6942F004021A6153
:101860001A6942F040021A61704700BF905200208E
:10187000002002400022064BDA61064B1A6942F052
:1018800002021A6158611A6942F040021A617047F7
:1018900090520020002002402DE9F041234D0746E0
:1018A0002B7E8846012B3DD0012403682C76022B29
:1018B0004CF2503013D1FFF75BFF20B10120002321
:1018C0002B76BDE8F081FFF7C3FF4CF25030FFF7F5
:1018D0004FFF174A136923F004031361EFE7FFF783
:1018E00047FF0028EAD14FF0FF33C8F80030204608
:1018F000BE680F4CFA68BB6803EBC2239E42DED27F
:101900003046FFF7B7FF4CF25030FFF731FF236945
:1019100023F00203236110B1C8F80060CFE706F599
:101920000066E7E70220BDE8F08100BF905200208A
:10193000002002402DE9F74F00221646654BDFF8E4
:10194000A4E1DFF8A4C14FF001080C6808FA06F81A
:1019500008EA0404A0457FD14D68122D00F0AF8045
:1019600000F28880022D00F0A7807CD8002D00F0C6
:101970008E80012D00F09E804FF00F09FF2C93BF49
:10198000824606F18045083DD0F800B092BFB50010
:10199000D0F804B0AD0009FA05F82BEA080802FAFD
:1019A00005F588BF00F1040A48EA0505CAF80050A9
:1019B000D1F804A01AF0805F4ED0474D464FAD6974
:1019C00026F0030845F00105BD61BD6908F18048B6
:1019D00005F00105019508F5803806F0030B019D1F
:1019E0004FEA8B0BD8F8085009FA0BF925EA0909D8
:1019F0003A4DA84268D005F58065A84266D005F545
:101A00008065A84264D005F58065A8420CBF032517
:101A1000042505FA0BF545EA0905C8F808501D68C4
:101A20001AF4803F14BF2543A5431D605D681AF476
:101A3000003F14BF2543A5435D609D681AF4801FD5
:101A400014BF2543A5439D60DD681AF4001F14BF31
:101A50002C4325EA0404DC600136102E7FF473AFBA
:101A600003B0BDE8F08F032D22D0112D84D1CA68B8
:101A7000043281E71A4FBD4209D012D8DFF86C90CA
:101A80004D4504D009F580394D457FF475AF8A681E
:101A9000C2B1012A0CBFC0F81080C0F8148008221F
:101AA0006AE77545F3D06545F1D0DFF84490EBE780
:101AB000002261E7CA685FE7CA6808325CE7CA6863
:101AC0000C3259E7042257E70025A2E70125A0E7D9
:101AD00002259EE70004014000100240000801407A
:101AE0000000211000003110000032100000111021
:101AF000000022108368194214BF012000207047A3
:101B00000AB1016170470904FBE7C3685940C1602D
:101B10007047704708B5044B5969014202D05861BB
:101B2000FFF7F7FF08BD00BF0004014003682DE97F
:101B3000F341DB07054614D42B689F0762D42B685A
:101B4000190700F199802B685A0700F1C380EA6AEF
:101B5000002A40F031812A6A002A40F08481002066
:101B600014E0904C636803F00C03042B07D0636807
:101B700003F00C03082B0CD16368DE0309D523683E
:101B80009C03D9D5AB68002BD6D1012002B0BDE8AB
:101B9000F081AB68B3F5803F10D1236843F4803304
:101BA0002360FFF71DF8064623689803C4D4FFF7A7
:101BB00017F8801B6428F7D90320E7E79BB923684F
:101BC00023F480332360236823F480232360FFF70A
:101BD00007F8064623689903AED5FFF701F8801B86
:101BE0006428F7D9E8E7B3F5A02F236803D143F4BD
:101BF00080232360D1E723F480332360236823F418
:101C00008023CDE7674C636813F00C0F07D063683F
:101C100003F00C03082B10D16368DA030DD423689A
:101C20009B0702D56B69012BAFD12368AA6923F00A
:101C3000F80343EAC203236081E76A695A4B6AB139
:101C400001221A60FEF7CCFF064623689F07ECD4FA
:101C5000FEF7C6FF801B0228F7D9ADE71A60FEF732
:101C6000BFFF0646236898077FF569AFFEF7B8FF08
:101C7000801B0228F6D99FE7EA694A4C4B4BDAB140
:101C800001221A60FEF7ACFF0646636A9B070DD57A
:101C90004FF4FA52464B1B68B3FBF2F3019300BFBB
:101CA000019B5A1E0192002BF9D14CE7FEF798FFD9
:101CB000801B0228E9D97FE71A60FEF791FF0646EC
:101CC000636A9F077FF53FAFFEF78AFF801B0228FC
:101CD000F6D971E7334CE369DE0024D40127E369C8
:101CE00043F08053E361E36903F080530093009B6A
:101CF000304E3368D80518D52B69012B26D1236ABD
:101D000043F001032362FEF76BFF41F28836804601
:101D1000236A9A073FD5002F3FF419AFE36923F0F8
:101D20008053E36113E70027E2E7336843F48073ED
:101D30003360FEF755FF80463368D905DCD4FEF7E3
:101D40004FFFA0EB08006428F6D935E7ABB9236A4A
:101D500041F2883823F001032362236A23F004034D
:101D60002362FEF73DFF0646236A9B07D3D5FEF7A5
:101D700037FF801B4045F7D91EE7052B236A03D1A7
:101D800043F004032362BAE723F001032362236ACA
:101D900023F00403B6E7FEF723FFA0EB0800B042F0
:101DA000B6D909E7001002400000424280044242D6
:101DB0004C000020007000404F4C6368D80308D5E9
:101DC000636803F00C03082B03D1E36AD9033FF5E2
:101DD000DCAE022A33D12368DA0006D5E36A6A6BE7
:101DE00003F0F00393427FF4D0AE0023434E336000
:101DF000FEF7F6FE074623681B011AD4E36A6A6BF6
:101E000023F0F0031343E362E36A2A6B23F4706365
:101E10001343E36201233360FEF7E2FE06462368C4
:101E20001F013FF598AEFEF7DBFE801B6428F6D954
:101E3000C2E6FEF7D5FEC01B6428DCD9BCE6002252
:101E4000E36A23F48033E3622C4B1A60FEF7C8FE8A
:101E50000646236818017FF57EAEFEF7C1FE801BA3
:101E60006428F6D9A8E6244C636803F00C03082B19
:101E70003FF48BAE0023224E022A33602FD1FEF7AF
:101E8000AFFE07462368990123D46B6AB3F5803F00
:101E900009D1E26A69680A43E262E26AE96822F00B
:101EA0000F020A43E262A96A62680B4322F47412C9
:101EB0001343636001233360FEF792FE05462368F7
:101EC0009A013FF54CAEFEF78BFE401B0228F6D977
:101ED00072E6FEF785FEC01B0228D3D96CE6FEF73A
:101EE0007FFE054623689B017FF539AEFEF778FE3D
:101EF000401B0228F6D95FE600100240680042420B
:101F000060004242F0B589B06A462A4B03F10805E9
:101F1000144618685968083303C4AB422246F7D107
:101F200018689B882060A380234B04AC03F1100544
:101F3000224618685968083303C2AB421446F7D1E9
:101F40001E494B6803F00C02082A31D1C3F38342C7
:101F500008A80244DB0312F8206C26D5CB6A03F0F4
:101F60000F03034413F8102CCB6A13F4803F144B77
:101F700016D0CF6ACC6AC4F303240234A4FB06450E
:101F8000A4FB030103FB0511C7F303130133A3FBF8
:101F90000223FEF75BFC0D2E00D1400809B0F0BD16
:101FA00003FB06F0B0FBF2F0F5E706487043F5E7F7
:101FB0000348F3E7A8660008B66600080010024070
:101FC00000127A0000093D00544A2DE9F0411368DF
:101FD000054603F007038B420E462AD329688C0777
:101FE00034D4CA0747D44D4A136803F007039E420E
:101FF000C0F082802A684A4C12F0040F40F08780BB
:10200000130706D563682A6923F4605343EAC203C1
:102010006360FFF777FF6368424AC3F30313D35C3F
:10202000D840414B18600F20FEF798FD0020BDE816
:10203000F081136823F007030B431360136803F068
:1020400007039942CAD00120BDE8F081344B11F05A
:10205000040F1EBF5A6842F4E0625A60080742BF8C
:102060005A6842F460525A605A68A86822F0F00236
:1020700002435A60B5E76A68294C012A23681CD1DB
:1020800013F4003FDFD0636841F2883823F0030384
:1020900013436360FEF7A4FD6B680746012B14D160
:1020A000636803F00C03042B9DD0FEF799FDC01B61
:1020B0004045F5D90320BDE8F081022A02D113F092
:1020C000007FDFE713F0020FDCE7022B0FD163681C
:1020D00003F00C03082B86D0FEF782FDC01B4045A1
:1020E000F5D9E7E7FEF77CFDC01B4045E2D8636801
:1020F00013F00C0FF6D176E7136823F00703334390
:102100001360136803F007039E429CD172E7636873
:10211000E96823F4E0630B43636071E70020024049
:1021200000100240D16900084C000020044B054A11
:102130005B68C3F30223D35C034A1068D84070473E
:1021400000100240E16900084C000020044B054AE1
:102150005B68C3F3C223D35C034A1068D84070475E
:1021600000100240E16900084C00002003682DE9DE
:10217000F34113F0010F0546574C1FD0E369DA0015
:1021800047D40127E36943F08053E361E36903F037
:1021900080530193019B514E3368DB053BD5236A85
:1021A00013F440734BD1236A6A6823F440731343DA
:1021B00023621FB1E36923F08053E3612A68930728
:1021C00005D56368A96823F440430B436360570750
:1021D00005D5E36AE96823F400330B43E36216078D
:1021E00005D5E36A2A6923F480231343E362E36A93
:1021F000980366D4E36A590363D4286810F010008A
:102200001AD06368EA6923F48003134363600020F3
:1022100012E00027BFE7336843F480733360FEF7B2
:10222000DFFC80463368D805B9D4FEF7D9FCA0EBB3
:1022300008006428F6D9032002B0BDE8F0816A687E
:1022400002F440729342AED00120254A236A106006
:10225000002023F4407110602162D907A3D5FEF756
:10226000BFFC41F288380646236A9A079BD4FEF7E2
:10227000B7FC801B4045F7D9DDE72368A96913F057
:10228000806F04D0E26A02F0F0028A4222D1E36A4F
:1022900023F0F0030B43E362E36A6A6923F47043BB
:1022A00013430122E3620F4B1A60FEF799FC0646C6
:1022B00023689A00A1D4FEF793FC801B6428F7D909
:1022C000B9E72368DB00D8D5E36A6A6903F4704391
:1022D000934292D00120AFE700100240007000400E
:1022E00040044242700042420368DA6822F490726D
:1022F000DA605A6922F001025A61202380F83A30EC
:10230000704700002DE9F0470568C2682B69016934
:1023100023F4405313432B618368EA680B434169FC
:1023200022F4B05222F00C020B431343EB606B69B2
:10233000826923F4407313436B61404B81469D4295
:102340004FF0190446D1FFF701FF04FB00F3D9F861
:1023500004604FF06408B600B3FBF6F3B3FBF8F388
:102360001E01FFF7F3FE6043D9F804309B00B0FB79
:10237000F3F7FFF7EBFE6043D9F804309B00B0FBA6
:10238000F3F3B3FBF8F308FB13731B013233B3FB16
:10239000F8F303F0F007FFF7D9FE6043D9F8042003
:1023A0009200B0FBF2FAFFF7D1FE6043D9F8043097
:1023B0009B00B0FBF3F3B3FBF8F308FB13A31B0183
:1023C0003233B3FBF8F303F00F033B433344AB600A
:1023D000BDE8F087FFF7AAFE04FB00F3D9F804601C
:1023E0004FF06408B600B3FBF6F3B3FBF8F31E013D
:1023F000FFF79CFE6043D9F804309B00B0FBF3F775
:10240000FFF794FE6043D9F804309B00B0FBF3F370
:10241000B3FBF8F308FB13731B013233B3FBF8F380
:1024200003F0F007FFF782FE6043D9F80420920022
:10243000B0FBF2FAFFF77AFEB7E700BF00380140C1
:10244000F8B504460E4617461D4621680B6836EA65
:10245000030301D10020F8BD6B1CF7D095B92368A8
:102460000320DA6822F4D072DA605A6922F001029D
:102470005A61202384F8393084F83A30002384F8F4
:102480003830F8BDFEF7ACFBC01B8542DDD2E6E775
:1024900010B5044640B390F8393003F0FF021BB981
:1024A00080F8382002F0D2FE2423226884F83930E4
:1024B000D368204623F40053D360FFF723FF23683B
:1024C00000201A6922F490421A615A6922F02A0205
:1024D0005A61DA6842F40052DA602023E06384F83B
:1024E000393084F83A3010BD012010BD2DE9F0419B
:1024F0001F4690F839300446202B0D4690464ED1A9
:10250000002949D0002A47D090F83830012B46D016
:10251000012380F838300023C363212380F8393049
:10252000FEF75EFB0646A4F82480A4F82680E38C20
:102530009BB26BB93B46324640212046FFF780FFF5
:10254000A8B9202384F8380084F83930BDE8F08138
:10255000E38C3246013B9BB2E384A3688021B3F550
:10256000805F20463B460ED1FFF76AFF10B1032083
:10257000BDE8F0812B882268C3F308035360236908
:1025800043B90235D3E7FFF75BFF0028EFD123689B
:102590002A785A600135CAE70120BDE8F08102209F
:1025A000BDE8F08190F83A30202B20D1E9B1E2B1BA
:1025B00090F83830012B1AD0C28582850023222260
:1025C000C36380F83A2002688162D16880F83830AD
:1025D00041F48071D1605169184641F001015161A7
:1025E000D16841F02001D16070470120704702207E
:1025F0007047000038B50446134694F83920202A65
:102600002AD139B333B394F83820012A24D00122D7
:10261000002584F838202122E384206BE56384F8C8
:1026200039200E4AA384216282620D4A4563C26248
:102630000C4A026322680432FEF7CEFE6FF04002BD
:10264000236828461A605A6984F8385042F080029C
:102650005A6138BD012038BD022038BD6B26000804
:102660009926000821270008704708B50368426AC8
:102670001B6813F020030AD1D38413685A6922F02F
:1026800080025A61DA6842F04002DA6008BD104602
:10269000FFF7EAFF08BD704708B5406AFFF7FBFF88
:1026A00008BD90F83A3010B5222B36D18368016905
:1026B000B3F5805F0268836A23D15268E9B9C2F337
:1026C000080223F8022B8362C48D013CA4B2C485A6
:1026D0008CB90368DA6822F02002DA60DA6822F442
:1026E0008072DA605A6922F001025A61202380F870
:1026F0003A3002F043FA002010BDD2B223F8012B89
:10270000E1E721B9591C526881621A70DCE752680E
:10271000591C816202F07F02F7E7022010BD70476A
:10272000416A08B50B685A6991F8390021280AD125
:10273000120608D50022CA84DA6822F0C002DA60E4
:10274000202281F839205B6991F83A20222A06D1AB
:102750005B0604D500230846CB85FFF7C5FDCB6B90
:10276000084643F01003CB63FFF7D9FF08BD000014
:10277000036870B51A6804461607D9685D6907D101
:1027800096065AD58D0658D5BDE87040FFF789BF2B
:1027900015F0010502D111F4907F4ED0D30705D575
:1027A000CE0542BFE36B43F00103E363500704D55A
:1027B0001DB1E36B43F00203E363930704D51DB13E
:1027C000E36B43F00403E363160704D51DB1E36B29
:1027D00043F00803E363E36B002B66D0950604D552
:1027E000880602D52046FFF75CFF236820465D6916
:1027F000E26B110702D415F040051AD0FFF774FD03
:1028000023685A69520610D55A69606B22F040025B
:102810005A6150B1254B4363FEF71CFE002844D09B
:10282000606BBDE87040436B18472046FFF777FFA9
:1028300070BDFFF774FFE56370BD160627D50D0662
:1028400025D594F83920212A2FD1A268B2F5805FCE
:10285000226A17D11188C1F308015960216979B939
:1028600002322262E28C013A92B2E284EAB9DA6878
:1028700022F08002DA60DA6842F04002DA6070BD6D
:102880000132EEE7511C216212785A60EAE75006E5
:102890000BD54A0609D5DA68204622F04002DA60F4
:1028A000202384F83930FFF7DFFE70BDB12800081F
:1028B00008B50023406AC385C384FFF730FF08BD15
:1028C00008B500F079FE002008BD08B501F00CF94C
:1028D000012803D0BDE8084000F0ECB808BD00F1C5
:1028E000080343604FF0FF32C3600361002382603E
:1028F0000360704700230361704743689A684B6028
:102900008A609A68516099600368086101330360C6
:1029100070470A6830B5531C0AD103695A684A6087
:1029200091608B605960036808610133036030BDBA
:1029300000F108035C682568AA42EFD32346F9E753
:102940004168826803698A60826851605968884278
:1029500008BF5A6000220261186801381860704789
:102960000A4B1B68013308D04FF0500383F31188E2
:10297000BFF36F8FBFF34F8FFEE74FF0500383F32A
:102980001188BFF36F8FBFF34F8FFEE70800002061
:1029900006480068006880F3088862B661B6BFF335
:1029A0004F8FBFF36F8F00DF00BF000008ED00E026
:1029B0004FF0807340F8043C054B21F0010140F8D2
:1029C000081C40F80C3C40F8202C4038704700BFF1
:1029D0006129000800000000000000000000000065
:1029E000074B19680868B0E8F00F80F30988BFF357
:1029F0006F8F4FF0000080F311884EF00D0E70477E
:102A00007C5000204FF0500383F31188BFF36F8F89
:102A1000BFF34F8F0A4A13680133012B13600DD1A6
:102A2000084B1B6813F0FF0F08D04FF0500383F3DF
:102A30001188BFF36F8FBFF34F8FFEE7704700BF62
:102A40000800002004ED00E0084A136843B94FF085
:102A5000500383F31188BFF36F8FBFF34F8FFEE7EF
:102A6000013B13600BB983F3118870470800002005
:102A7000EFF30980BFF36F8F0D4B1A6820E9F00F59
:102A800010602DE908404FF0500080F3118800F0ED
:102A900045FF4FF0000080F31188BDE80840196839
:102AA0000868B0E8F00F80F30988BFF36F8F7047B4
:102AB0007C50002008B54FF0500383F31188BFF31A
:102AC0006F8FBFF34F8F00F0C1FD18B14FF08052F0
:102AD000024B1A60002383F3118808BD04ED00E067
:102AE0004FF47A72054B1B68B3FBF2F3044A013BC7
:102AF00013600722034B1A60704700BF4C00002090
:102B000014E000E010E000E013B51F4B00211A783C
:102B1000D2B20192FF221A701B781C4ADBB28DF8E8
:102B200003309DF8033003F0500313700722184B55
:102B30001A609DF80300541E00061CD401B11A60EF
:102B40001A68120202F4E0621A60019B0E4ADBB2BC
:102B50001370104B1A6842F470021A601A6842F03F
:102B600070421A60FFF7BCFF00220B4B1A60FFF7A0
:102B70000FFFFFF7F5FE9DF8032001215200D2B2AE
:102B80008DF803202246D4E700E400E03C02002058
:102B90004002002020ED00E008000020EFF3058354
:102BA0000F2B0ED9104A9B5C104A12789A4208D912
:102BB0004FF0500383F31188BFF36F8FBFF34F8F34
:102BC000FEE70B4B0B4A1B68126803F4E063934269
:102BD00008D94FF0500383F31188BFF36F8FBFF311
:102BE0004F8FFEE7704700BFF0E300E03C0200209B
:102BF0000CED00E04002002010B50F4B1A68824235
:102C000018D35C681919884201BF41681846091930
:102C10005960446801198A4207D1084909688A4203
:102C20001FBF51681268091941609842026018BFBD
:102C3000186010BD1346E1E77450002044020020E4
:102C40002DE9F041044600F0F3FC3D493D4D0B6891
:102C5000FBB93D4A002056070FBF44F620630732F8
:102C60003A4B22F0070218BF9B1A1344384E083B18
:102C700023F0070370603260586018600B60981A88
:102C80001360344B50601860334B18604FF00043B2
:102C90002B602F68274216D1002C40D004F1080386
:102CA00058071CBF23F00703083363B12A4A16688C
:102CB0009046B34207D8264A15686868834204D80C
:102CC00009688D4207D1002429E02C68002CF7D038
:102CD0002A462546F1E7296814681160C21A102AAD
:102CE0000FD9E818410708D04FF0500383F311883B
:102CF000BFF36F8FBFF34F8FFEE742606B60FFF74C
:102D00007BFF6B681349F61A1F4300230868C8F855
:102D10000060864238BF0E6008346F602B6000F0A0
:102D200027FD630708D04FF0500383F31188BFF3EA
:102D30006F8FBFF34F8FFEE72046BDE8F08100BFE5
:102D40004402002068500020480200206850002003
:102D500074500020705000206C50002010B50446C4
:102D600070B3184A50F8043C1268134208D14FF06F
:102D7000500383F31188BFF36F8FBFF34F8FFEE7CC
:102D800050F8081C41B14FF0500383F31188BFF392
:102D90006F8FBFF34F8FFEE723EA020340F8043C36
:102DA00000F046FC084A54F8043C1168A4F10800FD
:102DB0000B441360FFF720FFBDE8104000F0D8BCC3
:102DC00010BD00BF685000206C500020014B1868F7
:102DD000704700BF6C50002070B51546026C044669
:102DE000866B42B905689DB9406800F0D5FE656004
:102DF0000136A66370BD6DB9806802F01FFBA36841
:102E0000226C13446268A360934201D32368A360D9
:102E10000020EDE7C06802F011FB236CE2685B4222
:102E200021681A448A42E2603EBF62689B18E360F0
:102E3000022DEDD10EB1013EEAE73046D8E7034658
:102E40001A6C10B4084662B1D9685C681144A1429A
:102E5000D96028BF196810BC28BFD960D96802F0B2
:102E6000EDBA10BC704770B50446FFF7CBFD94F87F
:102E7000455004F124066DB2002D14DCFF2384F8C4
:102E80004530FFF7E1FDFFF7BDFD94F8445004F134
:102E900010066DB2002D12DCFF2384F84430BDE82B
:102EA0007040FFF7D1BD636A002BE7D0304600F0D9
:102EB00089FD08B100F012FE013D6DB2DCE7236927
:102EC000002BE9D0304600F07DFD08B100F006FE91
:102ED000013D6DB2DEE7000038B50D46044640B94D
:102EE0004FF0500383F31188BFF36F8FBFF34F8F01
:102EF000FEE7FFF787FD206CE36B22684343D118A0
:102F00001B1A13446160E3600021FF23A163A260E8
:102F100084F8443084F8453095B9236963B104F1ED
:102F2000100000F04FFD38B14FF08052094B1A608D
:102F3000BFF34F8FBFF36F8FFFF786FD012038BDC2
:102F400004F11000FFF7CBFC04F12400FFF7C7FCED
:102F5000F2E700BF04ED00E070B50D46064640B94B
:102F60004FF0500383F31188BFF36F8FBFF34F8F80
:102F7000FEE748434830FFF763FE044638B145B9E1
:102F80002060E663256401212046FFF7A5FF204667
:102F900070BD00F148030360F3E700002DE9FF472F
:102FA000894601921F46044640B94FF0500383F30F
:102FB0001188BFF36F8FBFF34F8FFEE7002940F0FA
:102FC0008880036C002B00F084804FF0500383F363
:102FD0001188BFF36F8FBFF34F8FFEE7019E002E66
:102FE00000F082804FF0500383F31188BFF36F8F9E
:102FF000BFF34F8FFEE7019D1DB9FFF725FD0020B0
:1030000058E016B902A800F01FFDFFF71DFD00F003
:103010000FFBFFF7F7FC94F84430FF2B08BF84F850
:10302000448094F84530FF2B08BF84F84580FFF7B3
:103030000BFD01A902A800F017FD002843D1FFF7FE
:10304000E1FCA66BE56BFFF7FFFCAE4235D10199C1
:1030500004F1100000F09CFC2046FFF704FF00F094
:1030600087FB38B94FF08053CAF80030BFF34F8F59
:10307000BFF36F8F0126FFF7C5FCA26BE36B9A428B
:1030800001D3022FB7D13A4649462046FFF7A4FEA6
:10309000636A1BB104F1240000F094FC38B14FF0D6
:1030A0008052184B1A60BFF34F8FBFF36F8FFFF73B
:1030B000CBFC012004B0BDE8F0872046FFF7D3FE2B
:1030C00000F056FBD6E72046FFF7CDFE00F050FBA0
:1030D00095E7022F02D1E36B012B0AD100F004FD2A
:1030E00000283FF47BAF00264FF00008DFF814A063
:1030F000C1E74FF0500383F31188BFF36F8FBFF325
:103100004F8FFEE704ED00E02DE9F8438846914635
:103110001F46044640B94FF0500383F31188BFF3B4
:103120006F8FBFF34F8FFEE709BB036CFBB14FF00E
:10313000500383F31188BFF36F8FBFF34F8FFEE708
:1031400004F1240000F03EFC002834D0B9F1000F57
:1031500031D00120C9F8000086F31188BDE8F8835A
:1031600001356DB284F8455025E00020F4E7022FC8
:1031700002D1E36B012B20D1FFF710FDEFF3118695
:103180004FF0500383F31188BFF36F8FBFF34F8F5E
:10319000A26BE36B9A4201D3022FE6D194F845501B
:1031A0003A466DB241462046FFF716FE6B1CD7D15A
:1031B000636A002BC4D10120CEE74FF0500383F3A4
:1031C0001188BFF36F8FBFF34F8FFEE72DE9FF47E5
:1031D000884601929946044640B94FF0500383F364
:1031E0001188BFF36F8FBFF34F8FFEE7002940F0C8
:1031F000A580036C002B00F0A1804FF0500383F3F7
:103200001188BFF36F8FBFF34F8FFEE7019E002E33
:1032100000F09A804FF0500383F31188BFF36F8F53
:10322000BFF34F8FFEE7636AE660002B6DD004F1B9
:1032300024005FE0019D1DB9FFF706FC284667E00A
:1032400016B902A800F000FCFFF7FEFB00F0F0F951
:10325000FFF7D8FB94F84430FF2B08BF84F8447084
:1032600094F84530FF2B08BF84F84570FFF7ECFB5E
:1032700001A902A800F0F8FB002852D1FFF7C2FB19
:10328000A56BFFF7E1FB002D45D1236833B9FFF7AC
:10329000B9FB606800F038FCFFF7D6FB019904F138
:1032A000240000F075FB2046FFF7DDFD00F060FA1A
:1032B00038B94FF08053CAF80030BFF34F8FBFF3D7
:1032C0006F8F0126FFF79EFBA56B002DB2D0414604
:1032D0002046E668FFF7B3FDB9F1000FA3D12368DC
:1032E000013DA56313B900F0A7FC6060236963B1D9
:1032F00004F1100000F066FB38B14FF08052144B1F
:103300001A60BFF34F8FBFF36F8FFFF79DFB012054
:1033100004B0BDE8F0872046FFF7A5FD00F028FACD
:10332000CFE72046FFF79FFD00F022FAFFF76AFB88
:10333000A56BFFF789FB002DC3D17FE700F0D4FB1D
:1033400000283FF463AF00260027DFF804A0B9E7A8
:1033500004ED00E0064A13681968064B19B94FF0EE
:10336000FF321A6070471268D268D2685268F8E774
:103370008050002058510020F8B51B4B1B4E1D6893
:10338000044630680F460430FFF7DAFA334640B996
:1033900001203168164EC96A3268884022EA00026C
:1033A0003260621C07D137B1196812480431BDE898
:1033B000F840FFF7A2BA2C441A68A542546007D916
:1033C0000D4A10681968BDE8F8400431FFF7A1BA4A
:1033D0000A4A106819680431FFF79BFA084B1A680B
:1033E000944238BF1C60F8BDA05100207C500020E2
:1033F0002851002078510020845000208050002067
:10340000585100204FF0500383F31188BFF36F8FA2
:10341000BFF34F8FFEE700002DE9F84F4FEA820A15
:10342000804650460F4699460B9EFFF709FC05461D
:10343000002800F096805420FFF702FC0446002884
:1034400000F08C80AAF1040A056355447B1E25F028
:10345000070A00F134020F37597802F8011B13F8FC
:10346000011F09B1BB42F7D10A9D4FF0000B062D99
:1034700028BF0625271DE5626564384684F843B0F9
:10348000C4F848B0FFF736FAC5F1070504F1180093
:10349000FFF730FAC4F84CB02461A561646284F887
:1034A00050B04A4641465046FFF782FA206006B1C6
:1034B0003460FFF7A7FA324B324E1A68DFF8F0801B
:1034C00001321A603568002D4ED134601B68012B23
:1034D0001DD108EB05001435FFF701FA8C2DF8D14A
:1034E000DFF8D090284D4846FFF7F9F92846FFF756
:1034F000F6F92648FFF7F3F92548FFF7F0F92548D4
:10350000FFF7EDF9244BC3F80090244B1D60012513
:10351000234A24491368086801331360E26A05FAF4
:1035200002F3034314200B6000FB02803946FFF7CF
:10353000E4F9FFF789FA1C4B1B6863B13368DA6A58
:10354000E36A9A4207D24FF08052184B1A60BFF3D9
:103550004F8FBFF36F8F2846BDE8F88F2846FFF7DF
:10356000FDFB4FF0FF35F6E70F4B1B68002BCED16C
:103570003368DA6AE36A9A4298BF3460C7E700BFEB
:10358000145100207C500020405100206051002048
:103590008C51002078510020805000208450002061
:1035A00024510020285100207451002004ED00E037
:1035B000885000202C51002013B50024164B009495
:1035C00001938022234615491548FFF725FF01285E
:1035D00014D14FF0500383F31188BFF36F8FBFF303
:1035E0004F8F4FF0FF320F4B1A600F4B18600F4B8D
:1035F0001C6002B0BDE81040FFF786BA013008D168
:103600004FF0500383F31188BFF36F8FBFF34F8FD9
:10361000FEE702B010BD00BF545100200C67000847
:10362000A93800085851002074510020A0510020F2
:10363000024A136801331360704700BF2051002015
:10364000014B1868704700BFA05100202DE9F84FCA
:103650003C4B1B68002B53D13B4B1C6801341C6056
:10366000BCB93A4B1A68126842B14FF0500383F369
:103670001188BFF36F8FBFF34F8FFEE7344A19688D
:10368000106818601160334A136801331360FFF744
:1036900061FE314D4FF0000B2B68304F9C423ED302
:1036A000DFF8A880DFF8C490D8F80020126872BB59
:1036B0004FF0FF322A6032E006F1040A5046FFF76D
:1036C0003FF9B16A19B106F11800FFF739F9012283
:1036D0004FF0140EF06AD9F8003002FA00F11943E5
:1036E0001F4BC9F800100EFB00305146FFF705F9DB
:1036F0003868F16AC26A914228BF4FF0010BD3E7E4
:10370000184A4FF0000B13680133136011E0D8F82A
:103710000020D268D66871688C42CDD229603A68A0
:103720000F4BD16A14224A439A58022A28BF4FF0FD
:10373000010B0D4A1268002A18BF4FF0010B5846C2
:10374000BDE8F88F20510020A051002080500020BB
:10375000845000205C510020585100207C500020F3
:10376000885000201C510020A45100202851002026
:103770002DE9F843314C236843B94FF0500383F3EC
:103780001188BFF36F8FBFF34F8FFEE7FFF73AF952
:103790002368013B236024682CB10024FFF754F90F
:1037A0002046BDE8F883264B1B68002BF5D0DFF8D8
:1037B000A890244FDFF8A480D9F80030E3B90CB109
:1037C000FFF7C8FD204D2C6844B101271F4EFFF7BD
:1037D0003DFF00B13760013CF9D12C601B4B1B68E9
:1037E000002BDAD04FF08052194B1A60BFF34F8F85
:1037F000BFF36F8F0124D1E7D9F80C300125DC68C5
:10380000261D04F11800FFF79BF83046FFF798F8E3
:103810001420E26A396805FA02F30B4300FB0280C8
:1038200031463B60FFF769F80A4BE26A1B68DB6AC6
:103830009A4224BF054B1D60BEE700BF2051002007
:1038400014510020285100201C510020A4510020B8
:1038500004ED00E07C5000206051002088500020E2
:1038600008B540B94FF080520D4B1A60BFF34F8F2F
:10387000BFF36F8F08BD0B4B196841B14FF0500378
:1038800083F31188BFF36F8FBFF34F8FFEE7FFF70E
:10389000CFFEFFF771FDFFF76BFF0028E2D008BDF8
:1038A00004ED00E02051002008B5174E174C2368A6
:1038B00063B9174B1B68012BF8D94FF08052154B99
:1038C0001A60BFF34F8FBFF36F8FEFE7FFF7B0FEC4
:1038D0003568FFF74DFF002DE9D0FFF793F8F36847
:1038E000DD68281DFFF72CF80B4A1368013B1360B5
:1038F0002368013B2360FFF7A7F8286BFFF72EFA38
:103900002846FFF72BFAD2E78C51002018510020EF
:103910008850002004ED00E014510020174B10B532
:103920001A68174B12B101221A6010BD1A60154BAC
:103930001B68B3FA83F31422DBB2C3F11F035A43AB
:1039400011498C58881844B94FF0500383F31188FB
:10395000BFF36F8FBFF34F8FFEE744680832646890
:103960000A44944208BF6268446008BF426014225F
:1039700002FB03135B68DA68044BD5E72051002093
:10398000A451002028510020885000207C500020A5
:1039900010B50C4640B94FF0500383F31188BFF3C4
:1039A0006F8FBFF34F8FFEE7054B19681831FEF795
:1039B000B0FF2046BDE810400121FFF7DDBC00BF8D
:1039C0007C50002038B5C368DC6844B94FF0500320
:1039D00083F31188BFF36F8FBFF34F8FFEE704F1BE
:1039E00018052846FEF7ACFF114B1B68E3B9251DEF
:1039F0002846FEF7A5FF01230E49E26A08689340B6
:103A0000034314200B6029460B4B00FB0230FEF7EA
:103A100074FF0A4BE26A1B68DB6A9A4285BF012089
:103A2000074B0020186038BD29460648EFE700BF65
:103A30002051002028510020885000207C50002078
:103A4000A45100206051002008B508B9FFF7DAFC46
:103A5000034B1B680360034B1B68436008BD00BF3A
:103A60005C510020A051002038B50D46044640B9F5
:103A70004FF0500383F31188BFF36F8FBFF34F8F65
:103A8000FEE741B94FF0500383F31188BFF36F8F06
:103A9000BFF34F8FFEE7FEF7B5FF0E4B19682B689B
:103AA0005A1C10D00C4A206812689042626801D0FB
:103AB00091420DD2881A83420AD95B1A13442B60B3
:103AC0002046FFF7C1FF0024FEF7BEFF204638BDA9
:103AD0000124F9E7A05100205C5100200122014B94
:103AE0001A607047A4510020054B1B6833B1054B89
:103AF0001B68002B0CBF022000207047012070477C
:103B000074510020205100202DE9F0410446002886
:103B100039D01E4DC36A2A68D26A934233D2142721
:103B200082691B4E002AA8BF2A6807FB0363A2BF55
:103B3000D26AC2F10702826142699A4220D100F141
:103B400004084046FEF7FCFE124A48B9E06A4743C3
:103B5000F3592BB901211368814023EA0103136053
:103B60002B681168D86A012383400B431360142328
:103B7000E062414603FB0060BDE8F041FEF7BDBED8
:103B80002B68DB6AC362BDE8F08100BF7C50002077
:103B90008850002028510020F8B5044608B90020BC
:103BA000F8BD224B1B68984208D04FF0500383F3B6
:103BB0001188BFF36F8FBFF34F8FFEE7836C43B95C
:103BC0004FF0500383F31188BFF36F8FBFF34F8F14
:103BD000FEE7C16A426C013B91428364DFD0002B57
:103BE000DDD1051D2846FEF7ABFE114E114A50B936
:103BF0001421E76A794373582BB901201368B84040
:103C000023EA00031360636CC3F10701E362A1615F
:103C10000124116804FA03F00843106014202946B7
:103C200000FB0360FEF769FE2046F8BD7C500020D3
:103C30008850002028510020044B1A681AB11968D6
:103C40008A6C01328A641868704700BF7C5000207B
:103C5000F0B58BB06C4606460F4D0F460FCD0FC426
:103C60000FCD0FC495E8030084E8030006F11203AA
:103C700033F8022D9E425A80FAD10023184637802D
:103C800036F813205DF8231001330A2B01FB0200E4
:103C9000F6D1000C0BB0F0BDC866000880B594B03A
:103CA00014220021684601F0D4FB142201230021D4
:103CB0000DEB0200ADF8003001F0CBFB0223142223
:103CC00000210AA8ADF8143001F0C3FB032314222D
:103CD00000210FA8694EADF8283001F0BAFB04238B
:103CE0003446674FADF83C30F38B322B40F28D8079
:103CF00075786DBB2A464FF480516248FDF700FF8E
:103D00002A464FF400515F48FDF7FAFE2A464FF469
:103D100080415C48FDF7F4FE2A464FF400415948C3
:103D2000FDF7EEFE2A4640215748FDF7E9FE2A46F8
:103D300080215548FDF7E4FE2A464FF48071524831
:103D4000FDF7DEFE2A464FF400714F48FDF7D8FE1E
:103D5000E578012D32D00023E370E3834B4B4C4DCB
:103D60001A884C482A805A886A809A88DB88AA80F8
:103D7000EB80FDF733F929886846FFF769FF69880A
:103D8000E08105A8FFF764FFA98820820AA8FFF751
:103D90005FFFE98860820FA8FFF75AFF6378A0826F
:103DA000012B35D100233C481A4619460068A37000
:103DB000FFF7F4F83220FFF753FD95E7E38B01336B
:103DC0009BB2B3F5167FE383C8D900224FF400619C
:103DD0003846FDF795FE3220FFF742FD2F4B304964
:103DE0001A78304801F03EFB2F4BC2B22D492F48C4
:103DF0001A70FEF7FFFB3220FFF732FD2A464FF420
:103E000000613846FDF77CFEA5E70133F383A5E7A3
:103E1000A378012BCED100254FF480512A461948B2
:103E20006577FDF76DFE2A464FF400511548FDF702
:103E300067FE2A464FF480411248FDF761FE2A468C
:103E40004FF400410F48FDF75BFE2A4640210E4823
:103E5000FDF756FE2A4680210B48FDF751FE2A4603
:103E60004FF480710848FDF74BFE2A464FF400716D
:103E70000548FDF745FEA5709CE700BF6052002095
:103E800000080140000C01400010014034530020A4
:103E900026540020B45300206C5300203C520020D4
:103EA00011670008B951002039520020E453002066
:103EB0002DE9F04FBA4B93B00EAC0FCB84E80F0056
:103EC0000023B84C4FF0FF32194620688DF8283097
:103ED0008DF829300B93FFF779F9079400230798A1
:103EE0004FF0FF3219460068FFF770F90128F5D14D
:103EF000AD4C2379012BF1D10022637F2270062B78
:103F000043D9AA49AA486277627001F0FBFA1522E8
:103F1000A84BA7491A70A8484FF6FF73FEF7E6FAB8
:103F200000234FF0FF0918464FF0010A9B4694F812
:103F30001BC02778A14D0DF130080DF12C0E35F87E
:103F4000021F35F8086C28F81310721A12B2002AF2
:103F5000B8BF524212B262451ADD0120B1422CBFF5
:103F60005A46524607460EF803200133042BE6D189
:103F700000B12770237873B963700E930F93109379
:103F80001193637700F02CFCA8E701336377C7E750
:103F90000EF80390E9E7A37E0022013B052B40D8F1
:103FA000DFE803F0030A272F343B01238DF8283084
:103FB0008DF829209A4606E002234FF0010A8DF879
:103FC00028308DF829207E49794801F09BFA162285
:103FD000784B77491A7078484FF6FF73FEF786FAE8
:103FE0004FF0000B5FFA8BF306934FF00008704D13
:103FF00080E001234FF0020A8DF828308DF8293037
:10400000E1E7022301228DF82830D1E701238DF862
:10401000283002238DF82930CCE702238DF8283090
:10402000F8E762705AE706999DF8282002FB0132F2
:104030005D4B5FFA82F909F1040603EB490103EBDA
:104040004603DB88C8884FEA8904C01A12AB4B4488
:1040500013F91C7C00B2012F26D15A4B1E19FCF714
:10406000B5F97168FCF706FAFCF7CAFB12AB1C4401
:104070000646034644F8100C4A465349284601F0C8
:10408000F1F94C4BC2B21A7029464FF6FF734A48F9
:10409000FEF72CFA002E01DA002302E078D14FF46B
:1040A0007A7344F8103C23E0002F76D1454B03EBA4
:1040B0008606FCF78BF97168FCF7DCF9FCF7A0FBCE
:1040C00012AB1C440646034644F8100C4A463F49CE
:1040D000284601F0C7F9374BC2B21A7029464FF68D
:1040E000FF733548FEF702FA002E4DDA44F8107CD3
:1040F00008F101080AAA1BF802705FFA88F3BB42B4
:1041000091D3294C6578002D64D00024284EDFF827
:10411000A490E3B2BB429DF82850C0F00E819DF8F8
:1041200029305A4600932A492B46214801F09AF932
:10413000204BC2B21A701E494FF6FF731E48FEF79D
:10414000D5F9FFF77DFA8146069B6B43DDB24FF050
:1041500000081420FFF784FBFFF772FA4646A0EB35
:1041600009035FFA88F4A74200F21A81BE42EED337
:104170004FF47A700BF1010BFFF772FB5FFA8BF3D0
:104180009A453FF62FAF40E002D14FF4FA7388E72B
:1041900042F210739E42ABDD83E712AB1C447BE717
:1041A000F06600086C530020605200201B67000876
:1041B000B951002039520020E45300206C520020F5
:1041C000316700083C520020486700085B67000820
:1041D00085670008894E8A4B56F8250033F825106C
:1041E0000022FDF78DFC874B002233F82510864B0B
:1041F00053F825000135FDF783FC042DEBD1002396
:104200000E930F93109311936377804C6378002B78
:104210003FF464AE063426460025DFF810827C4F5A
:10422000DFF8F8910EAB53F82500B0F5FA7F22DDE8
:104230000CAB318933F815208B1A1BB2002BB8BF99
:104240005B421BB2092B16DC4FF0FF0E0BAB05F8DF
:1042500003E0338802900191009241462A46384695
:1042600001F000F94FF6FF73C2B23946694889F888
:104270000020FEF73BF90135042D06F10206D1D1ED
:104280006549634801F03EF90F22644F4FF6FF7312
:104290005F4960483A700025FEF728F90897002723
:1042A0005F4EDFF86CA10BABEB56002B09933CDBA8
:1042B0000EAB53F825300CAA184632F81580069339
:1042C000FCF784F8B4F808908346A9EB080000B224
:1042D000FCF77CF801465846FCF780F9099B8346B9
:1042E000012B7FD13946FCF777FA08B1C6F800B048
:1042F0003069FCF785FAB4F800B004903068FCF738
:104300007FFA069B039002932A465B4645498DE857
:104310000003504601F0A6F8089BC2B21A7051463D
:104320004FF6FF733B48FEF7E1F80135042D04F129
:10433000020406F10406B6D1D0E5069A3A4905FB17
:10434000023512ABEDB203EB850353F8108C2A460D
:104350004346304601F086F84FF6FF73C2B231464D
:104360002C4889F80020FEF7C1F8B8F1000F0DDDE8
:1043700012AB2B4413F91C2C012A09D1214B33F821
:104380002510214B53F82500FDF7BAFB0134C0E698
:10439000002AFBD11A4B012233F82510174BF1E705
:1043A0002C44E4B212AA02EB840252F8102C93427D
:1043B00015D90693124B002233F824100F4B013607
:1043C00053F82400FDF79CFB0E4B0F4833F82410E4
:1043D000002250F82400FDF793FB069BF6B208F18B
:1043E0000108BEE6002B83D13946FCF7EBF9002823
:1043F0003FF47EAFC6F810B07AE700BF1C00002083
:104400000C0000202C0000203C0000206052002006
:10441000B9510020E4530020C2670008395200203F
:1044200040520020D267000870670008A3670008A8
:1044300008B50A4D0A4CEA7852B1012A03D1114657
:104440002046FDF762FB4FF4FA70FFF709FAF2E736
:1044500001212046FDF754FBF5E700BF6052002024
:1044600000100140002330B57C4C87B003930493C7
:10447000059300F097F900F0EDF9237803A8782B65
:1044800084BF01232370FCF7C3FB049A039B744D84
:104490001344059A7348134401221146EB82FDF739
:1044A0002FFB6420FCF7A2FB002201216D48FDF7E1
:1044B00027FB207800F022F9032200210120FEF7DB
:1044C0004BFD694A106020B100231A461946FEF7D9
:1044D00065FDEA8A6549664800F0C4FF6448FBF759
:1044E000A7FE4FF6FF7382B261496248FDF7FEFFF7
:1044F000FEF76CFC604902465D4800F0B3FF5C4883
:10450000FBF796FE0024012582B24FF6FF7358494F
:104510005848FDF7EBFF2346C822584901940095FF
:104520005748FEF779FFFEF751FC564902465048BE
:1045300000F098FF4E48FBF77BFE4FF6FF7382B208
:104540004B494C48FDF7D2FF2346C8224E490194FF
:1045500000954E48FEF760FFFEF738FC4C490246D6
:10456000434800F07FFF4248FBF762FE4FF6FF73BF
:1045700082B23F493F48FDF7B9FF23464FF400722E
:104580004449019400954448FEF746FFFEF71EFC9F
:1045900042490246364800F065FF3548FBF748FEC1
:1045A0004FF6FF7382B232493248FDF79FFF032373
:1045B0004FF4007200933A49234601943948FEF7BC
:1045C0002BFFFEF703FC38490246294800F04AFF5A
:1045D0002748FBF72DFE4FF6FF7382B2244925488A
:1045E000FDF784FF23464FF448723049019400954B
:1045F0002F48FEF711FFFEF7E9FB2E4902461C4843
:1046000000F030FF1A48FBF713FE4FF6FF7382B23B
:1046100017491848FDF76AFF224640210220FEF79D
:104620009BFC254B1860FEF7D1FB2449024610483D
:1046300000F018FF0E48FBF7FBFD4FF6FF7382B248
:104640000B490C48FDF752FF2A461D490948FDF762
:10465000A9FF1C48FCF7C2FC07B030BD3C5200204B
:1046600060520020001001406C530020EB670008EE
:10467000B9510020E4530020FE6700080F680008CD
:1046800031440008156800082D680008C54F00086F
:1046900032680008496800089D3C0008526800081C
:1046A0006D680008254C0008756800088F680008D0
:1046B000B13E00089568000830540020AE6800083C
:1046C00034540020B453002010B5084C0246084969
:1046D000204600F0C7FE074BC2B21A702146BDE863
:1046E00010404FF400530448FDF700BFA8510020CC
:1046F000D9680008B8510020E453002038B50546B9
:10470000214C00224FF400612048FDF7F9F93220D6
:10471000FCF76CFA4FF4005307221D492046FDF7C1
:10472000E5FEC820FCF762FA4FF40053072219494E
:104730002046FDF7DBFEC820FCF758FA2A4616494A
:10474000164800F08FFE164BC2B21A7013494FF490
:1047500000532046FDF7CAFEC820FCF747FA0122A5
:104760004FF400610948FDF7CBF93220FCF73EFA1F
:104770004FF4964320466360FDF78AFE18B1BDE80A
:10478000384000F04DBA38BDE45300200008014025
:10479000C6680008CE68000811670008A85100200C
:1047A000B851002001210D4B002219710621997684
:1047B00028211A705A70DA705A71DA801A815A8177
:1047C0009A81DA811A825A829A82DA821A765A7623
:1047D000D9761A775A77DA83704700BF6052002083
:1047E000F0B587B0FCF7A8FF00230293134B01A993
:1047F0000493012302A80593FDF74EF810B1104869
:10480000FFF762FF0D4C0F4E0F4F104D04F1784330
:10481000A3F5FE339A59214600230220FCF7D2FF6C
:1048200010B13846FFF750FF0434AC42EED1FCF72C
:1048300095FF0748FFF748FF07B0F0BD00FC0108EF
:10484000F76800083C5200200A69000824FC0108AF
:104850001D6900080A4810B5FFF736FF094B0A48E2
:104860000A491C6803F178420433A2F5FE328B42F8
:104870001450F6D1BDE810400548FFF725BF00BF32
:10488000DC68000800FC01083C52002024FC010800
:10489000EB680008382230B59DB00DEB0200002116
:1048A00000F0D7FD1422002101A800F0D2FD202243
:1048B000002106A800F0CDFD4FF48033022401252D
:1048C000109317934FF4E0130EA818930E951395B9
:1048D0001694FDF72BF90F234FF480620193002308
:1048E000214601A80393049205930294FDF76CFB03
:1048F0004FF4004306A808930694FDF737FC024BDB
:104900001D601DB030BD00BF700042422DE98048DF
:104910008F4D91B0FCF746F9FFF7BCFF1022002144
:1049200008A800F096FDAB69002243F02003AB61BC
:10493000AB6940F2C13103F020030193019BAB69E5
:10494000844843F01003AB61AB69002403F010030B
:104950000293029BAB69012643F00403AB61AB6990
:104960004FF0020803F004030393039BAB694FF479
:10497000006743F00803AB61AB694FF4602B03F0B1
:1049800008030493049BFDF7BBF800224FF4704129
:104990007148FDF7B5F801224FF400616F48FDF74B
:1049A000AFF840F2C13308A96A48089309960A94FF
:1049B0000B96FCF7BFFF4FF4806308A96648089385
:1049C00009940A94FCF7B6FF654B08A9624808975A
:1049D0000993CDF82880FCF7ADFF4FF4704308A988
:1049E0005D48089309960A940B96FCF7A3FF08A963
:1049F0005A48089709960A940B96FCF79BFF4FF4C8
:104A0000805308A95548089309940A94FCF792FF2B
:104A1000224621462820FCF749FC2820FCF77AFC96
:104A20006B69224633436B616B6905213340009308
:104A30000E20009BFCF73AFC0E20FCF76BFC2022BA
:104A400021460DEB0200474D05940694079400F0B3
:104A500000FD454B04272B604FF480734FF0070A8D
:104A60004FF4E0492846AB60EC606C61C5F81CB0BF
:104A70006C602E61FCF732FA05A92846059406966B
:104A80000794FCF74DF908A92846089409960C9755
:104A9000CDF828A0CDF83C900E940D940B94FCF723
:104AA00007FB08A92846CDF824800896FCF700FBF0
:104AB000CDF820804FF0030808A92846CDF82480BF
:104AC000FCF7F6FA08A92846CDF820800997FCF7EC
:104AD000EFFA2022254D0DEB0200214605940694A5
:104AE000079400F0B6FC224B28462B60AC60EC60CB
:104AF0006C61C5F81CB06C602E61FCF7EFF905A97C
:104B00002846059706960794FCF70AF908A928464F
:104B1000089709960C96CDF828A0CDF83C900E94F5
:104B20000D940B94FCF7C4FA4FF416531148124A33
:104B3000846080E80C000C23C460436104618461DC
:104B4000C461FDF7A5FCFFF78DFCFDF7B9FEFEE79C
:104B50000010024000100140000C0140000801401C
:104B600000001110B4530020002401403C530020E9
:104B700000280140E4530020003801400268144B33
:104B800013B59A4222D1134B1A780D2A19D0124C20
:104B900012492378CA540133DBB2402B08BF0023EB
:104BA0000A2A23700DD122780C490D4800F046FCEA
:104BB0000C48002301AA0A490068FEF7A5FA002361
:104BC0002370012203490848FDF7ECFC02B010BD38
:104BD00000380140345400203A520020B0520020E6
:104BE000F052002030540020E453002038B5012159
:104BF0000546FCF74DFA094C022120802846FCF7B7
:104C000047FA032160802846FCF742FA0421A0807D
:104C10002846FCF73DFAE08038BD00BF3453002041
:104C2000704700002DE9F0479AB0402200210AA801
:104C300000F00FFC0023A44D1F462C46DFF8CC8269
:104C4000ADF824308DF81F308DF82030ADF82630C7
:104C50008DF821309D4E00234FF0FF320AA93068B5
:104C6000FEF7B4FA01288146F5D100269DF82830D8
:104C7000EE83732B00F09B80782B00F006816D2B68
:104C8000E8D108AB009309AA0DF11F0390490AA8C7
:104C900000F00CFC9DF83230EA8A8DF82030BDF827
:104CA00024309A42D6D16B782E77012B08BF2B7710
:104CB0006379617E022B08BF237F864A04BF43F0DD
:104CC000020323775288E3890591217E824804916B
:104CD000217F0391A18A0291618A0191218A009129
:104CE0007E4900F0BFFB7E4BC2B27B497D481A7003
:104CF000FDF780FC9DF820209742ABD0002312F0F6
:104D0000010218BF01224FF4805177486370FCF70D
:104D1000F7FE9DF820204FF4005112F0020218BF58
:104D200001227148FCF7ECFE9DF820204FF48041F1
:104D300012F0040218BF01226B48FCF7E1FE9DF857
:104D400020204FF4004112F0080218BF01226648EB
:104D5000FCF7D6FE9DF82020402112F0100218BF6B
:104D600001226248FCF7CCFE9DF82020802112F041
:104D7000200218BF01225D48FCF7C2FE9DF82020EA
:104D80004FF4807112F0400218BF01225748FCF71F
:104D9000B7FE9DF920304FF40071002BB4BF012203
:104DA00000225248FCF7ACFE9DF8207052E79DF8B7
:104DB0002930782B0CD109AA4D490AA800F076FBBE
:104DC000EA8ABDF824309A427FF444AF6E7041E71E
:104DD0002C2B7FF43FAF0DF12303464E05930DF1CD
:104DE000220304930DF121030393B31E0193331F98
:104DF000009309AAB31F02963F490AA800F056FB88
:104E0000EA8ABDF824309A427FF424AF6B79002BF4
:104E10007FF420AF9DF82120312A08BF9946B31FA7
:104E200085F8049002361A880233B2F57A6F84BF8F
:104E3000DA8823F8022C9E42F5D19DF82230A3F1A6
:104E40003002A2769DF82320312A12D11E22313B56
:104E5000052BE27616D929491F4800F053FB17228B
:104E60001F4B1D491A701F484FF6FF73FDF73EFB9D
:104E7000F0E6322A01D13C22E9E7332A0CBF5A225C
:104E80002822E4E701236370E4E695F80390B9F182
:104E9000010F7FF4DFAE9DF829303F2B38D1184A3F
:104EA00018490AA800F002FB0A4AEB8A5288164900
:104EB000094800F0D7FA0A4BC2B2074909481A70EC
:104EC000FDF798FBC6E600BF60520020305400207A
:104ED000276900083C520020B951002035690008BC
:104EE00039520020E4530020000C01400010014022
:104EF000566900086C5200205F690008806900084C
:104F00003E52002098690008A0690008000801408E
:104F1000632B7FF49FAE0DF1260309AA22490AA84C
:104F200000F0C4FAEA8ABDF824309A427FF492AEC7
:104F3000BDF82630DFF884A08AF80030FFF750FC77
:104F4000BAF8022019491A4800F08CFADFF870A06C
:104F5000C2B2174917488AF80020FDF74BFBC8205A
:104F6000FEF77EFC32464FF400614046FCF7C8FD78
:104F70003220FEF775FCBDF826200F490C4800F0E2
:104F800071FA0B49C2B20B488AF80020FDF732FBD8
:104F90003220FEF765FC4A464FF400614046FCF7BC
:104FA000AFFDEE7056E600BFAE690008BB690008B1
:104FB000B9510020E4530020116700083C52002042
:104FC000395200202DE9F84F01244FF0000BA14683
:104FD000DFF874A1574D584E4FF480515046FCF7FE
:104FE00089FD4FF4806180462846FCF783FDC1456A
:104FF000074601D1844233D00120FEF731FC4FF443
:1050000080515046FCF776FD4FF48061804628467B
:10501000FCF770FDC145074601D1844220D0B8F1AC
:10502000000F00D0DFB90124444B00224FF400618F
:105030005046DC70FCF764FD3220FEF711FC0822BC
:105040003F494FF400533F48FDF750FA3220FEF736
:1050500007FC22464FF400615046FCF751FDC14663
:105060004FF400612846FCF745FD834580465AD041
:105070000120FEF7F5FB4FF400612846FCF73AFDEE
:10508000834580464FD000284DD001213046FCF7A3
:105090003CFD6420FEF7E4FB01213046FCF735FDC2
:1050A0004FF4FA70FEF7DCFB01213046FCF72DFDD2
:1050B0006420FEF7D5FB0022012130460024FCF7D6
:1050C0001FFD02221D4B4FF480515A712846224683
:1050D0005C70FCF715FD22464FF400512846FCF7A2
:1050E0000FFD22464FF480412846FCF709FD224679
:1050F0004FF400412846FCF703FD2246402130468C
:10510000FCF7FEFC224680213046FCF7F9FC2246E3
:105110004FF480713046FCF7F3FC22464FF40071E7
:105120003046FCF7EDFC0A20FEF79AFBC3463C46EE
:1051300052E700BF000C0140001001406052002007
:10514000C8690008E453002000080140114B07B56E
:105150009A690F2142F001029A619A696FF0010089
:1051600002F001020092009ADA6942F08052DA619C
:10517000DB69002203F080530193019BFCF796F852
:10518000054A536823F0E06343F00073536003B0B3
:105190005DF804FB001002400000014030B510240F
:1051A000054689B0224600210DEB040000F051F9BC
:1051B0002B68224A934225D1214B0DEB04019A69B9
:1051C00042F400729A619A6902F400720092009AA5
:1051D0009A6942F004029A619B6903F00403019307
:1051E000019B0F230493032305931648FCF7A2FBAE
:1051F000122000220521FCF759F81220FCF78AF84A
:1052000009B030BD104A9342FAD10D4B04A99A69F6
:1052100042F480629A619A6902F480620292029A70
:105220009A6942F004029A619B69049403F00403B2
:105230000393039B03230593D7E700BF002401409A
:10524000001002400008014000280140F0B510277E
:10525000064687B03A46002102A800F0FAF8326804
:10526000244B9A4243D103F558439A6902A942F468
:1052700080429A619A69204802F480420092009A22
:105280009A69002542F004029A619B691B4C03F065
:1052900004030193019B4FF40073029302230393D1
:1052A00003230593FCF746FB4FF48063124802A9E1
:1052B000029303950495FCF73DFB114B204684E8CF
:1052C00088008023A560E36025616561A561E561D3
:1052D000FCF742F808B1FFF7A3FC25203463002255
:1052E00005216662FBF7E2FF2520FCF713F807B003
:1052F000F0BD00BF0038014000080140705300209D
:10530000440002407047FEE7FEE7FEE7FEE7704715
:1053100008B5FBF759FCBDE80840FDF7D6BA000018
:105320000148FCF705B900BF7053002008B50448D8
:10533000FBF780FCBDE808400248FBF77BBC00BFE0
:10534000B45300203C5300200148FDF711BA00BFC0
:10535000E45300204FF40060FCF7DCBB08B50A4BB7
:105360000246196809B90949196069461868024472
:105370008A4206D900F05CF80C2303604FF0FF303E
:1053800008BD1A6008BD00BF805200203C540020B8
:10539000124B1A6842F001021A605968104A0A401A
:1053A0005A601A6822F0847222F480321A601A68F5
:1053B00022F480221A605A6822F4FE025A601A68A7
:1053C00022F0A0521A604FF47F029A600022DA6243
:1053D0004FF00062034B9A60704700BF001002401C
:1053E0000000FFF000ED00E0002103E00A4B5B58F5
:1053F0004350043109480A4B42189A42F6D3094AED
:1054000002E0002342F8043B074B9A42F9D3FFF72E
:10541000BFFFFFF77BFA7047B46B00080000002065
:1054200020020020200200203C540020FEE7000063
:10543000014B1868704700BF5000002010B5431E94
:105440000A44914200D110BD11F8014B03F8014FFD
:10545000F7E703460244934200D1704703F8011B6B
:10546000F9E700000EB44FF4027100B59CB0ADF83E
:1054700014106FF00041049107914FF6FF711DABBE
:1054800002900690084853F8042BADF816100068F7
:1054900002A9019300F09AF80022029B1A701CB036
:1054A0005DF804EB03B07047500000200EB44FF4D9
:1054B000017230B59CB01FAC54F8045BADF81420F9
:1054C00002900690FAF7B4FE0B4B03900B93002367
:1054D0000F9314934FF6FF7307900848ADF81630FA
:1054E0002A46234602A90068019400F0BDF91CB0C9
:1054F000BDE8304003B0704701550008500000205F
:1055000000207047034611F8012B03F8012B002AF5
:10551000F9D170472DE9F0478E6882469E420C46CD
:105520009146984635D88A8912F4906F31D002237B
:10553000256809696F1A656905EB450595FBF3F563
:1055400008F101033B449D4238BF1D46530531D548
:10555000294600F0F1FF064650B90C23CAF8003086
:10556000A3894FF0FF3043F04003A381BDE8F087EB
:105570003A462169FFF762FFA38923F4906343F061
:105580008003A38126613E44266046466561ED1B8B
:10559000A560464528BF464649463246206800F089
:1055A00065FFA36800209B1BA36023681E44266040
:1055B000BDE8F0872A4601F01DF806460028E1D133
:1055C0002169504600F06CFFC7E700002DE9F04F5D
:1055D0009DB003938B8980461C060D4616460FD559
:1055E0000B696BB9402100F0A7FF2860286128B93A
:1055F0000C23C8F800304FF0FF30C4E040236B614B
:105600000023099320238DF8293030234FF0010B1C
:105610008DF82A3037463C4614F8013B002B3CD12C
:10562000B7EB060A0BD05346324629464046FFF7F1
:1056300071FF013000F0A280099B534409933B782D
:10564000002B00F09B8000234FF0FF320493079360
:10565000059206938DF853301A930522217850480D
:1056600000F0F6FE671C049BD8B9D90644BF20227F
:105670008DF853201A0744BF2B228DF8532022782F
:105680002A2A16D000210A20079A27463B7801349F
:10569000303B092B50D9C9B111E0252BC0D027468A
:1056A000B9E73F4A3C46801A0BFA00F018430490D1
:1056B000D3E7039A111D12680391002A01DB0792B8
:1056C00004E0524243F00203079204933B782E2BEE
:1056D0000DD17B78791C2A2B32D1039B02371A1DFE
:1056E0001B680392002BB8BF4FF0FF3305932D4C7E
:1056F00003223978204600F0ABFE38B14023001B6E
:1057000003FA00F0049B013703430493397806221F
:1057100025487E1C8DF8281000F09AFE002835D010
:10572000224BFBB9039B073323F007030833039392
:10573000099B4B4409936DE700FB02320121A4E76A
:1057400000230A24184605930F463A780131303A6F
:10575000092A03D9002BCAD00590C8E704FB002012
:105760000123F1E703AB00932A46114B04A94046FD
:10577000AFF30080B0F1FF3F8146D9D1AB895B0622
:105780003FF539AF09981DB0BDE8F08F03AB00932A
:105790002A46074B04A9404600F032FAEAE700BF68
:1057A000E9690008EF690008F369000800000000DB
:1057B0001555000838B54B1C144603D14FF0FF3582
:1057C000284638BD9389CDB223F020039381536BD3
:1057D00052688BB1A36B9A4208DA23685A1E226082
:1057E00003F8015C636801336360E9E7214600F078
:1057F000D3FD0028F1D0E1E72169236851B1994236
:1058000008D213F8011C8D4204D1013B0132236000
:105810006260D5E7E36304F1440363630323A36396
:105820002346226403F8465F23600123DCE710B5BA
:105830000C46496B69B104F14403994201D000F070
:105840002FFE0020236C6063636013B1E36B236061
:1058500010BD23694FF0FF30236000236360A389EC
:1058600043F02003A38110BD2DE9F04FADF5257D58
:105870000193002306460C4692460A274693479317
:105880009F4B0DF10C08A2939E4BDFF87C92CDF854
:105890002081A3939AF80030002B00F02F8100F0B4
:1058A000B7FD9AF800B05844437813F0080343D189
:1058B000BBF1250F0AF1010540F099804593439310
:1058C0009AF801302A2B03D110230AF102054393E1
:1058D0002978AA46A1F13002092A05F1010541D92A
:1058E0000322894800F0B4FD38B1A0EB0903012080
:1058F000AA469840439B184343909AF800300AF117
:105900000105672B4AD8652B80F0B780472B2FD82D
:10591000452B80F0B280002B00F08280252B66D0D2
:1059200003234497499345E0479901330131479157
:1059300061682360013961606368002B0BDD00F052
:1059400067FD23681978084441780D07ECD40AF103
:105950000105AA469EE7A39B2146304698470028AA
:10596000EDD0F4E7459B07FB0313303B4593AFE7CE
:105970005B2B61D00CD8582BD2D1439A42F40072E1
:105980004392102244926F2BB4BF0323042310E0F0
:10599000632B5CD0642BC3D14497F4E7702B42D0C7
:1059A0001DD86E2B59D043D8692BB9D1002344930D
:1059B000032349936368002B61DD439B59066FD530
:1059C000499B022B7CDC01AB224643A9304600F008
:1059D00037FA012800F092800228BAD11DE0752B19
:1059E000DAD0782BC9D0732B9AD10223E1E7636810
:1059F000002B0CDD23681A7893457FD10133626850
:105A00002360479B013A013362604793A1E7A39B60
:105A10002146304698470028ECD04698002863D1AC
:105A20004FF0FF3066E0439A42F020024392A4E731
:105A3000082344930423BCE72946404600F05AFB60
:105A4000439B054643F0400343930123B1E7439B47
:105A500043F0400343930023ABE7439AD0063FF55E
:105A600078AF12F0010F019A479B02F104010191F6
:105A7000126814BF138013606BE7052399E7A39B9B
:105A8000214630469847002897D0C6E7479A01320A
:105A900047926268013A002A62600ADD013323609E
:105AA00000F0B6FC23681A78104442781207EDD44F
:105AB00086E7A39B2146304698470028F0D0ACE704
:105AC000042B06DC01AB224643A9304600F01CFA49
:105AD0007FE70E4B002B3FF43CAF01AB224643A9BE
